:020000040800F2
:1000000000000824E158020819540208215402088B
:1000100049540208515402085954020800000000D3
:10002000000000000000000000000000B1590108BD
:100030006154020800000000015C0108654B0108E2
:100040003559020835590208355902083559020850
:100050003559020835590208355902083559020840
:1000600035590208355902086F5402087D540208B8
:1000700091540208A5540208B9540208CD5402084C
:10008000E1540208F55402083559020809550208DE
:100090001D55020835590208355902083155020824
:1000A00035590208355902083559020835590208F0
:1000B00035590208355902083559020835590208E0
:1000C00035590208355902083559020835590208D0
:1000D0003559020821B2030849550208C5550208DE
:1000E0005D55020835590208000000003559020824
:1000F00035590208355902083559020835590208A0
:10010000355902083559020835590208355902088F
:100110003559020835590208355902087555020843
:10012000355902083559020835590208355902086F
:10013000355902088955020835590208355902080F
:1001400000000000000000000000000000000000AF
:10015000355902083559020835590208355902083F
:10016000355902083559020835590208355902082F
:1001700035590208355902083559020800000000B7
:10018000355902083559020835590208355902080F
:1001900035590208355902083559020835590208FF
:1001A00035590208355902083559020835590208EF
:1001B00035590208355902083559020835590208DF
:1001C00035590208355902083559020835590208CF
:1001D00035590208355902083559020835590208BF
:1001E00035590208355902083559020835590208AF
:1001F000355902083559020835590208355902089F
:10020000355902083559020835590208355902088E
:100210009D5502083559020835590208355902081A
:100220003559020835590208355902080000000006
:1002300035590208355902080000000035590208F6
:1002400035590208B15502083559020835590208D6
:10025000355902083559020835590208355902083E
:10026000355902083559020835590208355902082E
:1002700035590208355902083559020800000000B6
:1002800035590208355902083559020800000000A6
:080290000000000035590208CE
:1002A00010B5054C237833B9044B13B10448AFF3B0
:1002B00000800123237010BDB80500240000000059
:1002C0005895040808B5034B1BB103490348AFF325
:1002D000008008BD00000000BC05002458950408FB
:1002E00081F0004102E000BF83F0004330B54FEAE7
:1002F00041044FEA430594EA050F08BF90EA020F54
:100300001FBF54EA000C55EA020C7FEA645C7FEAE6
:10031000655C00F0E2804FEA5454D4EB5555B8BF09
:100320006D420CDD2C4480EA020281EA030382EA7A
:10033000000083EA010180EA020281EA0303362D0C
:1003400088BF30BD11F0004F4FEA01314FF4801CDF
:100350004CEA113102D0404261EB410113F0004FF1
:100360004FEA03334CEA133302D0524263EB4303A8
:1003700094EA050F00F0A780A4F10104D5F1200E46
:100380000DDB02FA0EFC22FA05F2801841F10001A1
:1003900003FA0EF2801843FA05F359410EE0A5F175
:1003A00020050EF1200E012A03FA0EFC28BF4CF0A6
:1003B000020C43FA05F3C01851EBE37101F000455C
:1003C00007D54FF0000EDCF1000C7EEB00006EEB69
:1003D0000101B1F5801F1BD3B1F5001F0CD34908F3
:1003E0005FEA30004FEA3C0C04F101044FEA44524A
:1003F00012F5800F80F09A80BCF1004F08BF5FEAD1
:10040000500C50F1000041EB045141EA050130BDB0
:100410005FEA4C0C404141EB0101013C28BFB1F5C2
:10042000801FE9D291F0000F04BF01460020B1FA0D
:1004300081F308BF2033A3F10B03B3F120020CDAE0
:100440000C3208DD02F1140CC2F10C0201FA0CF0BE
:1004500021FA02F10CE002F11402D8BFC2F1200C23
:1004600001FA02F120FA0CFCDCBF41EA0C019040D9
:10047000E41AA2BF01EB0451294330BD6FEA040422
:100480001F3C1CDA0C340EDC04F11404C4F120020D
:1004900020FA04F001FA02F340EA030021FA04F31F
:1004A00045EA030130BDC4F10C04C4F1200220FA76
:1004B00002F001FA04F340EA0300294630BD21FAB4
:1004C00004F0294630BD94F0000F83F4801306BF7A
:1004D00081F480110134013D4EE77FEA645C18BF6E
:1004E0007FEA655C29D094EA050F08BF90EA020F05
:1004F00005D054EA000C04BF1946104630BD91EAFD
:10050000030F1EBF0021002030BD5FEA545C05D1FF
:100510004000494128BF41F0004130BD14F580043E
:100520003CBF01F5801130BD01F0004545F0FE41B2
:1005300041F470014FF0000030BD7FEA645C1ABFE7
:10054000194610467FEA655C1CBF0B46024650EA1E
:10055000013406BF52EA033591EA030F41F400214A
:1005600030BD00BF90F0000F04BF0021704730B5D0
:100570004FF4806404F132044FF000054FF00001A5
:1005800050E700BF90F0000F04BF0021704730B566
:100590004FF4806404F1320410F0004548BF40423B
:1005A0004FF000013EE700BF42004FEAE2014FEA90
:1005B00031014FEA02701FBF12F07F4393F07F4F6B
:1005C00081F06051704732F07F4208BF704793F06E
:1005D0007F4F04BF41F40021704730B54FF4607481
:1005E00001F0004521F000411CE700BF50EA010284
:1005F00008BF704730B54FF000050AE050EA01022D
:1006000008BF704730B511F0004502D5404261EB9C
:1006100041014FF4806404F132045FEA915C3FF4DD
:10062000D8AE4FF003025FEADC0C18BF03325FEA7A
:10063000DC0C18BF033202EBDC02C2F1200300FA2B
:1006400003FC20FA02F001FA03FE40EA0E0021FA50
:1006500002F11444BDE600BF53B94AB9002908BFEE
:1006600000281CBF4FF0FF314FF0FF3000F0C0B941
:10067000ADF1080C6DE904CE00F03EF8DDF804E0C1
:10068000DDE9022304B0704708B502460B4643EC8F
:10069000172BB5EEC07BF1EE10FA03D4BDE808408D
:1006A00000F00AB8B1EE477B51EC170B00F004F8EC
:1006B000404261EB410108BD9FED0B6B41EC170B14
:1006C0009FED0B5B27EE066BBCEEC66BB8EE464BA0
:1006D000A4EE457BFCEEC77B16EE101A17EE900ACF
:1006E000704700BFAFF30080000000000000F03D45
:1006F000000000000000F0412DE9F047089D0F4682
:1007000004468C46002B48D18A42164661D9B2FA7B
:1007100082F34BB1C3F1200201FA03FC20FA02F28A
:100720009E4042EA0C0C9C404FEA164EB7B2BCFB0E
:10073000FEF1220C0EFB11CC42EA0C4201FB07F049
:10074000904209D9B21801F1FF3C80F0EE8090424E
:1007500040F2EB8002393244121AA4B2B2FBFEF02E
:100760000EFB102244EA024400FB07F7A74209D916
:10077000341900F1FF3280F0DA80A74240F2D780CE
:100780003444023840EA0140E41B00211DB1DC4042
:100790000023C5E90043BDE8F0878B4206D90DB1BF
:1007A000C5E9000100210846BDE8F087B3FA83F1EE
:1007B000002948D1BB4202D3824200F20781841A49
:1007C00067EB030201209446002DE4D0C5E9004CFC
:1007D000E1E7002A00F09280B2FA82F3002B40F0A9
:1007E000A8808A1A4FEA164E1FFA86FC0121200CB7
:1007F000B2FBFEF70EFB172240EA02420CFB07F0A9
:10080000904207D9B21807F1FF3802D2904200F2A5
:10081000E2804746121AA4B2B2FBFEF00EFB102291
:1008200044EA02440CFB00FCA44507D9341900F14A
:10083000FF3202D2A44500F2CB801046A4EB0C0498
:1008400040EA0740A2E7C1F120068B4022FA06FCED
:100850004CEA030C07FA01F420FA06F3F7404FEADA
:100860001C49234300FA01F81FFA8CFEB7FBF9F08C
:100870001C0C09FB107744EA074400FB0EF7A74263
:1008800002FA01F20AD91CEB040400F1FF3A80F0ED
:100890009B80A74240F2988002386444E41B9FB2D8
:1008A000B4FBF9F309FB134447EA044403FB0EFECF
:1008B000A64509D91CEB040403F1FF3780F08280C0
:1008C000A6457FD9023B644443EA0040A4EB0E04F2
:1008D000A0FB02E7BC427346B94663D360D05DB16A
:1008E000B8EB030264EB090404FA06F622FA01F3FA
:1008F0001E43CC40C5E9006400214CE7620848086B
:1009000042EAC1710B0C43EA00438AB242EA034255
:10091000B3FBF6F1E407B4463746B6461F23B0FBF7
:10092000F6F0D21B41EA004161E7614614E7104648
:1009300028E7C3F1200120FA01F29E4027FA01F1D5
:100940009F403A434FEA164E1FFA86FCB1FBFEF772
:100950000EFB1710110C41EA004107FB0CF888450B
:1009600004FA03F43AD9711807F1FF3001D288452F
:100970001FD8A1EB0801B1FBFEF808FB0CF70EFB3A
:10098000181192B242EA0142BA422FD2B21808F1CB
:10099000FF31C6D2BA42C4D2A8F102013244C0E744
:1009A000F0459CD2BEEB020367EB0C070138B94659
:1009B00095E7A6EB08084144B81EB1FBFEF808FB1A
:1009C0000CF7DCE73B467FE7504667E70846FBE667
:1009D0003444023832E7023F32441BE7A1EB0801FE
:1009E0003846B1FBFEF808FB0CF7C8E7414698E72C
:1009F000704700BF10F8012B11F8013B012A28BFF6
:100A00009A42F7D0D01A70470000000000000000A2
:100A100001F0FF01102A2BDB10F0070F08D010F8AF
:100A2000013B013A8B422DD010F0070F42B3F6D1B3
:100A3000F0B441EA012141EA014122F007047FF0CC
:100A400000070023F0E80256083C85EA010586EA23
:100A5000010685FA47F5A3FA87F586FA47F6A5FA5F
:100A600087F68EB9EED1F0BC01F0FF0102F007026B
:100A700032B110F8013B013A83EA010313B1F8D116
:100A80000020704701387047002D06BF35460338F7
:100A9000073815F0010F07D1013015F4807F02BF30
:100AA000013015F4C03F0130F0BC0138704700BF81
:100AB000034613F8012B002AFBD1181A013870479E
:100AC0007BB972B90029BEBF00204FF0004106E09B
:100AD00008BF00281CBF6FF000414FF0FF30FFF748
:100AE00087BFADF1080C6DE904CE002909DB002BAE
:100AF0001ADBFFF701FEDDF804E0DDE9022304B0B4
:100B00007047404261EB4101002B1BDBFFF7F4FD16
:100B1000DDF804E0DDE9022304B0404261EB41016D
:100B2000524263EB43037047524263EB4303FFF7C8
:100B3000E3FDDDF804E0DDE9022304B0404261EBAF
:100B400041017047524263EB4303FFF7D5FDDDF8E7
:100B500004E0DDE9022304B0524263EB4303704733
:100B600080B400AF434BD3F88830424A43F470035B
:100B7000C2F88830404B1B6803F00F03062B07D8E0
:100B80003D4B1B6823F00F033B4A43F00703136000
:100B90003A4B1B68394A43F001031360374B00227C
:100BA0001A61364B1A683549354B13400B60324B8E
:100BB0001B6803F00803002B07D02F4B1B6823F0A2
:100BC0000F032D4A43F0070313602C4B00229A6158
:100BD0002A4B0022DA61294B00221A62274B294A4C
:100BE0009A62264B284ADA62244B284A1A63234B1E
:100BF00000225A63214B254A9A63204B0022DA6374
:100C00001E4B224A1A641D4B00225A641B4B1B6860
:100C10001A4A23F480231360184B00221A661C4BD7
:100C20001A681C4B1340B3F1005F02D21A4B012229
:100C30001A60124BD3F8D43003F48053002B13D135
:100C40000E4BD3F8D4300D4A43F48053C2F8D4305D
:100C5000124B43F2D2021A60084BD3F8D430074A41
:100C600023F48053C2F8D43000BFBD465DF8047B46
:100C7000704700BF00ED00E0002000520044025821
:100C80007FEDF6EA000202020000FF01800201018E
:100C90000010005C0000FFFF08810051004000527E
:100CA00080B400AF094BDB68084A43F00203D3600D
:100CB00000BF064B5B6803F40053002BF9D000BF64
:100CC00000BFBD465DF8047B704700BF0048025876
:100CD00080B582B000AF78607B68002B01D1012322
:100CE00049E07B6893F83D30DBB2002B06D17B688E
:100CF000002283F83C20786823F062FF7B680222A0
:100D000083F83D207B681A687B68043319461046D7
:100D100000F0F0FD7B68012283F848207B68012207
:100D200083F83E207B68012283F83F207B68012204
:100D300083F840207B68012283F841207B680122F0
:100D400083F842207B68012283F843207B680122DC
:100D500083F844207B68012283F845207B680122C8
:100D600083F846207B68012283F847207B680122B4
:100D700083F83D20002318460837BD4680BD00009B
:100D800080B485B000AF78607B6893F83D30DBB20B
:100D9000012B01D0012354E07B68022283F83D201F
:100DA0007B681B68DA687B681B6842F00102DA60C6
:100DB0007B681B68264A934222D07B681B68B3F18C
:100DC000804F1DD07B681B68224A934218D07B68F5
:100DD0001B68214A934213D07B681B681F4A9342C9
:100DE0000ED07B681B681E4A934209D07B681B6843
:100DF0001C4A934204D07B681B681B4A934215D15E
:100E00007B681B689A68194B1340FB60FB68062BD4
:100E100015D0FB68B3F5803F11D07B681B681A685A
:100E20007B681B6842F001021A6008E07B681B685F
:100E30001A687B681B6842F001021A6000E000BF7C
:100E4000002318461437BD465DF8047B704700BF89
:100E5000000001400004004000080040000C004079
:100E6000000401400018004000400140070001005C
:100E700080B582B000AF78607B68002B01D1012380
:100E800049E07B6893F83D30DBB2002B06D17B68EC
:100E9000002283F83C20786800F041F87B68022249
:100EA00083F83D207B681A687B6804331946104636
:100EB00000F020FD7B68012283F848207B68012236
:100EC00083F83E207B68012283F83F207B68012263
:100ED00083F840207B68012283F841207B6801224F
:100EE00083F842207B68012283F843207B6801223B
:100EF00083F844207B68012283F845207B68012227
:100F000083F846207B68012283F847207B68012212
:100F100083F83D20002318460837BD4680BD80B4C5
:100F200083B000AF786000BF0C37BD465DF8047B2E
:100F30007047000080B584B000AF786039603B68CE
:100F4000002B09D17B6893F83E30DBB2012B14BF34
:100F500001230023DBB23CE03B68042B09D17B6812
:100F600093F83F30DBB2012B14BF01230023DBB227
:100F70002FE03B68082B09D17B6893F84030DBB247
:100F8000012B14BF01230023DBB222E03B680C2BB2
:100F900009D17B6893F84130DBB2012B14BF0123E8
:100FA0000023DBB215E03B68102B09D17B6893F876
:100FB0004230DBB2012B14BF01230023DBB208E077
:100FC0007B6893F84330DBB2012B14BF012300236D
:100FD000DBB2002B01D00123A1E03B68002B04D140
:100FE0007B68022283F83E2023E03B68042B04D177
:100FF0007B68022283F83F201BE03B68082B04D16A
:101000007B68022283F8402013E03B680C2B04D15C
:101010007B68022283F841200BE03B68102B04D14F
:101020007B68022283F8422003E07B68022283F877
:1010300043207B681B6801223968184601F06EF86E
:101040007B681B68384A934213D07B681B68374A19
:1010500093420ED07B681B68354A934209D07B6867
:101060001B68344A934204D07B681B68324A93421F
:1010700001D1012300E00023002B07D07B681B680F
:101080005A6C7B681B6842F400425A647B681B6898
:10109000254A934222D07B681B68B3F1804F1DD054
:1010A0007B681B68254A934218D07B681B68244ADA
:1010B000934213D07B681B68224A93420ED07B6810
:1010C0001B681A4A934209D07B681B681E4A9342E8
:1010D00004D07B681B68164A934215D17B681B6855
:1010E0009A681A4B1340FB60FB68062B15D0FB680F
:1010F000B3F5803F11D07B681B681A687B681B685A
:1011000042F001021A6008E07B681B681A687B687D
:101110001B6842F001021A6000E000BF002318467D
:101120001037BD4680BD00BF0000014000040140F3
:1011300000400140004401400048014000040040DC
:1011400000080040000C00400018004007000100AB
:1011500080B582B000AF786039607B681B68002280
:101160003968184600F0DAFF7B681B683E4A9342F4
:1011700013D07B681B683D4A93420ED07B681B6886
:101180003B4A934209D07B681B683A4A934204D099
:101190007B681B68384A934201D1012300E0002399
:1011A000002B17D07B681B681A6A41F21113134099
:1011B000002B0FD17B681B681A6A40F2444313402E
:1011C000002B07D17B681B685A6C7B681B6822F474
:1011D00000425A647B681B681A6A41F2111313407B
:1011E000002B0FD17B681B681A6A40F244431340FE
:1011F000002B07D17B681B681A687B681B6822F08C
:1012000001021A603B68002B04D17B68012283F83D
:101210003E2023E03B68042B04D17B68012283F845
:101220003F201BE03B68082B04D17B68012283F838
:10123000402013E03B680C2B04D17B68012283F82B
:1012400041200BE03B68102B04D17B68012283F81E
:10125000422003E07B68012283F8432000231846E4
:101260000837BD4680BD00BF0000014000040140BA
:1012700000400140004401400048014080B584B076
:1012800000AF78607B681B68DB68FB607B681B686D
:101290001B69BB60BB6803F00203002B20D0FB6816
:1012A00003F00203002B1BD07B681B686FF0020267
:1012B0001A617B6801221A777B681B689B6903F0BF
:1012C0000303002B03D0786800F0F6FA05E0786895
:1012D00000F0E8FA786800F0F9FA7B6800221A77E3
:1012E000BB6803F00403002B20D0FB6803F0040369
:1012F000002B1BD07B681B686FF004021A617B68AF
:1013000002221A777B681B689B6903F44073002BE9
:1013100003D0786800F0D0FA05E0786800F0C2FAEF
:10132000786800F0D3FA7B6800221A77BB6803F074
:101330000803002B20D0FB6803F00803002B1BD010
:101340007B681B686FF008021A617B6804221A77B9
:101350007B681B68DB6903F00303002B03D078680C
:1013600000F0AAFA05E0786800F09CFA786800F0CE
:10137000ADFA7B6800221A77BB6803F01003002BDC
:1013800020D0FB6803F01003002B1BD07B681B6888
:101390006FF010021A617B6808221A777B681B685D
:1013A000DB6903F44073002B03D0786800F084FA03
:1013B00005E0786800F076FA786800F087FA7B68D4
:1013C00000221A77BB6803F00103002B0CD0FB68E6
:1013D00003F00103002B07D07B681B686FF001024C
:1013E0001A61786822F090F8BB6803F08003002B44
:1013F00004D1BB6803F40053002B0CD0FB6803F04E
:101400008003002B07D07B681B686FF402521A61BF
:10141000786800F0BFFFBB6803F48073002B0CD02A
:10142000FB6803F08003002B07D07B681B686FF418
:1014300080721A61786800F0B7FFBB6803F0400360
:10144000002B0CD0FB6803F04003002B07D07B6817
:101450001B686FF040021A61786800F041FABB68BF
:1014600003F02003002B0CD0FB6803F02003002BBB
:1014700007D07B681B686FF020021A61786800F063
:101480007FFF00BF1037BD4680BD000080B586B02D
:1014900000AFF860B9607A600023FB75FB6893F8D1
:1014A0003C30012B01D10223FFE0FB68012283F8CD
:1014B0003C207B68142B00F2F08001A252F823F04C
:1014C000151500089B1600089B1600089B160008BF
:1014D000551500089B1600089B1600089B1600086F
:1014E000971500089B1600089B1600089B1600081D
:1014F000D71500089B1600089B1600089B160008CD
:10150000191600089B1600089B1600089B16000879
:1015100059160008FB681B68B968184600F08AFA7B
:10152000FB681B689A69FB681B6842F008029A61B5
:10153000FB681B689A69FB681B6822F004029A61C9
:10154000FB681B689969BB681A69FB681B680A43DA
:101550009A61A5E0FB681B68B968184600F0FAFAC2
:10156000FB681B689A69FB681B6842F400629A6119
:10157000FB681B689A69FB681B6822F480629A61A9
:10158000FB681B689969BB681B691A02FB681B68CA
:101590000A439A6184E0FB681B68B968184600F04A
:1015A00063FBFB681B68DA69FB681B6842F0080292
:1015B000DA61FB681B68DA69FB681B6822F00402C9
:1015C000DA61FB681B68D969BB681A69FB681B682C
:1015D0000A43DA6164E0FB681B68B968184600F0EA
:1015E000CBFBFB681B68DA69FB681B6842F400628E
:1015F000DA61FB681B68DA69FB681B6822F48062A9
:10160000DA61FB681B68D969BB681B691A02FB6851
:101610001B680A43DA6143E0FB681B68B968184637
:1016200000F014FCFB681B685A6DFB681B6842F0F5
:1016300008025A65FB681B685A6DFB681B6822F03C
:1016400004025A65FB681B68596DBB681A69FB6820
:101650001B680A435A6523E0FB681B68B968184693
:1016600000F058FCFB681B685A6DFB681B6842F46D
:1016700000625A65FB681B685A6DFB681B6822F4A0
:1016800080625A65FB681B68596DBB681B691A024A
:10169000FB681B680A435A6502E00123FB7500BF23
:1016A000FB68002283F83C20FB7D18461837BD46B6
:1016B00080BD00BF80B584B000AF78603960002382
:1016C000FB737B6893F83C30012B01D10223DCE0F3
:1016D0007B68012283F83C207B68022283F83D204E
:1016E0007B681B689B68BB60BA686A4B1340BB6031
:1016F000BB6823F47F43BB607B681B68BA689A6051
:101700003B681B68644A934200F0A980624A934296
:1017100000F2AE80614A934200F0A1805F4A93429A
:1017200000F2A6805E4A934200F099805C4A9342A0
:1017300000F29E80B3F1101F00F09180B3F1101FF2
:1017400000F29680B3F5801F00F08980B3F5801F0A
:1017500000F28E80B3F5005F3ED0B3F5005F00F27B
:101760008780B3F5805F00F08680B3F5805F7FD817
:10177000702B1AD0702B7BD8602B50D0602B77D871
:10178000502B3CD0502B73D8402B58D0402B6FD8C7
:10179000302B64D0302B6BD8202B60D0202B67D817
:1017A000002B5CD0102B5AD062E07B6818683B6835
:1017B00099683B685A683B68DB6800F08FFC7B687F
:1017C0001B689B68BB60BB6843F07703BB607B68AA
:1017D0001B68BA689A604FE07B6818683B68996834
:1017E0003B685A683B68DB6800F078FC7B681B68E4
:1017F0009A687B681B6842F480429A603CE07B6890
:1018000018683B6859683B68DB681A4600F0E8FBDB
:101810007B681B685021184600F042FC2CE07B6876
:1018200018683B6859683B68DB681A4600F007FC9B
:101830007B681B686021184600F032FC1CE07B6866
:1018400018683B6859683B68DB681A4600F0C8FBBB
:101850007B681B684021184600F022FC0CE07B6886
:101860001A683B681B681946104600F019FC03E033
:101870000123FB7300E000BF7B68012283F83D2059
:101880007B68002283F83C20FB7B18461037BD465E
:1018900080BD00BF88FFCEFF400010003000100068
:1018A0002000100080B483B000AF786000BF0C3718
:1018B000BD465DF8047B704780B483B000AF7860AC
:1018C00000BF0C37BD465DF8047B704780B483B021
:1018D00000AF786000BF0C37BD465DF8047B7047F1
:1018E00080B483B000AF786000BF0C37BD465DF8B0
:1018F000047B704780B485B000AF786039607B6846
:101900001B68FB607B68434A934213D07B68B3F14A
:10191000804F0FD07B68404A93420BD07B683F4A90
:10192000934207D07B683E4A934203D07B683D4A8E
:10193000934208D1FB6823F07003FB603B685B684F
:10194000FA681343FB607B68324A93421FD07B687E
:10195000B3F1804F1BD07B682F4A934217D07B682E
:101960002E4A934213D07B682D4A93420FD07B6856
:101970002C4A93420BD07B682B4A934207D07B685A
:101980002A4A934203D07B68294A934208D1FB68D4
:1019900023F44073FB603B68DB68FA681343FB6029
:1019A000FB6823F080023B685B691343FB603B6884
:1019B0009A687B68DA623B681A687B689A627B681F
:1019C000144A93420FD07B68164A93420BD07B682F
:1019D000154A934207D07B68144A934203D07B6830
:1019E000134A934203D13B681A697B681A637B6888
:1019F0001B6843F004027B681A607B6801225A610D
:101A00007B68FA681A6000BF1437BD465DF8047B36
:101A1000704700BF00000140000400400008004083
:101A2000000C00400004014000400140004401401F
:101A30000048014080B487B000AF786039607B68AF
:101A40001B6A7B617B681B6A23F001027B681A6258
:101A50007B685B683B617B689B69FB60FA68374B1E
:101A60001340FB60FB6823F00303FB603B681B68CB
:101A7000FA681343FB607B6923F002037B613B68D8
:101A80009B687A6913437B617B682D4A93420FD030
:101A90007B682C4A93420BD07B682B4A934207D039
:101AA0007B682A4A934203D07B68294A93420CD12F
:101AB0007B6923F008037B613B68DB687A69134329
:101AC0007B617B6923F004037B617B681C4A934242
:101AD0000FD07B681B4A93420BD07B681A4A934213
:101AE00007D07B68194A934203D07B68184A934217
:101AF00011D13B6923F480733B613B6923F400738C
:101B00003B613B685B693A6913433B613B689B6996
:101B10003A6913433B617B683A695A607B68FA68AB
:101B20009A613B685A687B685A637B687A691A6273
:101B300000BF1C37BD465DF8047B70478FFFFEFF7A
:101B40000000014000040140004001400044014009
:101B50000048014080B487B000AF786039607B688E
:101B60001B6A7B617B681B6A23F010027B681A6228
:101B70007B685B683B617B689B69FB60FA68344B00
:101B80001340FB60FB6823F44073FB603B681B68F9
:101B90001B02FA681343FB607B6923F020037B611F
:101BA0003B689B681B017A6913437B617B68294A08
:101BB000934203D07B68284A93420DD17B6923F07E
:101BC00080037B613B68DB681B017A6913437B619F
:101BD0007B6923F040037B617B681E4A93420FD0F0
:101BE0007B681D4A93420BD07B681C4A934207D006
:101BF0007B681B4A934203D07B681A4A934213D1F5
:101C00003B6923F480633B613B6923F400633B61E0
:101C10003B685B699B003A6913433B613B689B6986
:101C20009B003A6913433B617B683A695A607B6861
:101C3000FA689A613B685A687B689A637B687A693C
:101C40001A6200BF1C37BD465DF8047B704700BFB9
:101C5000FF8FFFFE000001400004014000400140F2
:101C6000004401400048014080B487B000AF786074
:101C700039607B681B6A7B617B681B6A23F4807216
:101C80007B681A627B685B683B617B68DB69FB6031
:101C9000FA68334B1340FB60FB6823F00303FB60DF
:101CA0003B681B68FA681343FB607B6923F400738D
:101CB0007B613B689B681B027A6913437B617B688D
:101CC000284A934203D07B68274A93420DD17B690F
:101CD00023F400637B613B68DB681B027A69134372
:101CE0007B617B6923F480637B617B681D4A93423F
:101CF0000FD07B681C4A93420BD07B681B4A9342EF
:101D000007D07B681A4A934203D07B68194A9342F2
:101D100013D13B6923F480533B613B6923F40053A7
:101D20003B613B685B691B013A6913433B613B685C
:101D30009B691B013A6913433B617B683A695A60AE
:101D40007B68FA68DA613B685A687B68DA637B68AB
:101D50007A691A6200BF1C37BD465DF8047B704784
:101D60008FFFFEFF000001400004014000400140E1
:101D7000004401400048014080B487B000AF786063
:101D800039607B681B6A3B617B681B6A23F4805265
:101D90007B681A627B685B687B617B68DB69FB60E0
:101DA000FA68244B1340FB60FB6823F44073FB602C
:101DB0003B681B681B02FA681343FB603B6923F412
:101DC00000533B613B689B681B033A6913433B61CB
:101DD0007B68194A93420FD07B68184A93420BD014
:101DE0007B68174A934207D07B68164A934203D018
:101DF0007B68154A934209D17B6923F480437B6158
:101E00003B685B699B017A6913437B617B687A69F4
:101E10005A607B68FA68DA613B685A687B681A64C2
:101E20007B683A691A6200BF1C37BD465DF8047BC7
:101E3000704700BFFF8FFFFE00000140000401401B
:101E400000400140004401400048014080B487B098
:101E500000AF786039607B681B6A3B617B681B6AF6
:101E600023F480327B681A627B685B687B617B68E5
:101E70005B6DFB60FA68214B1340FB603B681B689D
:101E8000FA681343FB603B6923F400333B613B6812
:101E90009B681B043A6913433B617B68184A934271
:101EA0000FD07B68174A93420BD07B68164A934247
:101EB00007D07B68154A934203D07B68144A93424B
:101EC00009D17B6923F480337B613B685B691B022A
:101ED0007A6913437B617B687A695A607B68FA6828
:101EE0005A653B685A687B689A657B683A691A62EA
:101EF00000BF1C37BD465DF8047B70478FFFFEFFB7
:101F00000000014000040140004001400044014045
:101F10000048014080B487B000AF786039607B68CA
:101F20001B6A3B617B681B6A23F480127B681A6220
:101F30007B685B687B617B685B6DFB60FA68224B4A
:101F40001340FB603B681B681B02FA681343FB608D
:101F50003B6923F400133B613B689B681B053A69AE
:101F600013433B617B68194A93420FD07B68184A40
:101F700093420BD07B68174A934207D07B68164A7E
:101F8000934203D07B68154A934209D17B6923F4BD
:101F900080237B613B685B699B027A6913437B61A9
:101FA0007B687A695A607B68FA685A653B685A6848
:101FB0007B68DA657B683A691A6200BF1C37BD46E8
:101FC0005DF8047B704700BFFF8FFFFE00000140FB
:101FD000000401400040014000440140004801402D
:101FE00080B487B000AFF860B9607A60FB681B6AA4
:101FF0007B61FB681B6A23F00102FB681A62FB68C5
:102000009B693B613B6923F0F0033B617B681B01EB
:102010003A6913433B617B6923F00A037B617A6968
:10202000BB6813437B61FB683A699A61FB687A6914
:102030001A6200BF1C37BD465DF8047B704780B450
:1020400087B000AFF860B9607A60FB681B6A7B619B
:10205000FB681B6A23F01002FB681A62FB689B692D
:102060003B613B6923F470433B617B681B033A6926
:1020700013433B617B6923F0A0037B61BB681B01B9
:102080007A6913437B61FB683A699A61FB687A69F4
:102090001A6200BF1C37BD465DF8047B7047000024
:1020A00080B485B000AF786039607B689B68FB6066
:1020B000FA68094B1340FB603A68FB68134343F02E
:1020C0000703FB607B68FA689A6000BF1437BD465F
:1020D0005DF8047B704700BF8FFFCFFF80B487B0EF
:1020E00000AFF860B9607A603B60FB689B687B6119
:1020F0007B6923F47F437B613B681A027B681A4348
:10210000BB6813437A6913437B61FB687A699A6001
:1021100000BF1C37BD465DF8047B704780B487B0B4
:1021200000AFF860B9607A60BB6803F01F0301225A
:1021300002FA03F37B61FB681A6A7B69DB431A408E
:10214000FB681A62FB681A6ABB6803F01F037968B0
:1021500001FA03F31A43FB681A6200BF1C37BD463D
:102160005DF8047B7047000080B485B000AF7860F4
:1021700039607B6893F83C30012B01D102236DE07C
:102180007B68012283F83C207B68022283F83D2093
:102190007B681B685B68FB607B681B689B68BB6037
:1021A0007B681B68304A934204D07B681B682F4AC7
:1021B000934208D1FB6823F47003FB603B685B68C3
:1021C000FA681343FB60FB6823F07003FB603B6815
:1021D0001B68FA681343FB607B681B68FA685A60E7
:1021E0007B681B68204A934222D07B681B68B3F14E
:1021F000804F1DD07B681B681D4A934218D07B68B6
:102200001B681C4A934213D07B681B681A4A93428E
:102210000ED07B681B68154A934209D07B681B6807
:10222000164A934204D07B681B68154A93420CD12E
:10223000BB6823F08003BB603B689B68BA681343AC
:10224000BB607B681B68BA689A607B68012283F870
:102250003D207B68002283F83C2000231846143779
:10226000BD465DF8047B704700000140000401405A
:102270000004004000080040000C0040001800402E
:102280000040014080B485B000AF78603960002321
:10229000FB607B6893F83C30012B01D1022365E0A1
:1022A0007B68012283F83C20FB6823F0FF023B6837
:1022B000DB681343FB60FB6823F440723B689B6858
:1022C0001343FB60FB6823F480623B685B68134345
:1022D000FB60FB6823F400623B681B681343FB60F0
:1022E000FB6823F480523B681B691343FB60FB6867
:1022F00023F400523B685B691343FB60FB6823F4E3
:1023000080423B689B6A1343FB60FB6823F47022A6
:102310003B689B691B041343FB607B681B68164A80
:10232000934204D07B681B68144A934215D1FB6822
:1023300023F470023B685B6A1B051343FB60FB6878
:1023400023F080723B68DB691343FB60FB6823F07A
:1023500000723B681B6A1343FB607B681B68FA686A
:102360005A647B68002283F83C2000231846143707
:10237000BD465DF8047B7047000001400004014049
:1023800080B483B000AF786000BF0C37BD465DF805
:10239000047B704780B483B000AF786000BF0C3717
:1023A000BD465DF8047B704780B483B000AF7860B1
:1023B00000BF0C37BD465DF8047B704780B584B024
:1023C00000AF78607B68002B01D10123E3E07B68DC
:1023D000D3F88430002B06D17B682022C3F88420F8
:1023E000786820F01DFC6E4BD3F8F4306C4A43F053
:1023F0000203C2F8F4306A4BD3F8F43003F002035E
:10240000BB60BB687B681B7A002B03D1002008F0FF
:10241000D3FF03E04FF4000008F0CEFF614B5B6890
:102420007B681B6803F580531B687A68126843F069
:10243000010302F58052136008F082FFF86011E09A
:1024400008F07EFF0246FB68D31AB3F5FA7F09D97C
:102450007B680422C3F888207B68E022C3F88420CC
:10246000012398E07B681B6803F580531B6803F029
:102470000103002BE4D1786800F01CFF02F090FC0F
:102480000346494AA2FB03239A0C7B681B68013A66
:10249000C3F8DC20786801F019F97B681B6803F544
:1024A0008053D3F8003123F4E0137A68126843F4C0
:1024B000002302F58052C2F800317B685B6903F0AB
:1024C0000303002B09D07B680122C3F888207B68B6
:1024D000E022C3F8842001235DE07B681B6803F5DC
:1024E0008053D3F80821314B13407A685269510068
:1024F0007A6812680B4302F58052C2F80831786896
:1025000001F081F9786801F0C7F97B685B680533F1
:102510001B781A027B685B6804331B7819467B685A
:102520001B680A43C3F800237B685B6803331B788E
:102530001A067B685B6802331B781B041A437B68AE
:102540005B6801331B781B021A437B685B681B784E
:1025500019467B681B680A43C3F804237B681B6821
:10256000D3F80C177B681A68114B0B43C2F80C3771
:102570007B681B68D3F810177B681A680D4B0B43F8
:10258000C2F810377B680022C3F888207B681022CD
:10259000C3F88420002318461037BD4680BD00BF15
:1025A000004402580004005883DE1B430180FFFFF3
:1025B0006000020C00C0200C80B582B000AF7860D3
:1025C0007B68D3F88430102B65D17B682022C3F858
:1025D00084207B6801229A657B680422DA66786829
:1025E00000F0E4F97B681B6803F58053D3F80431ED
:1025F0007A68126843F0010302F58052C2F8043190
:102600007B681B6803F58053D3F808317A68126839
:1026100043F0010302F58052C2F808317B681B6861
:1026200003F58053D3F860317A68126843F48173FC
:1026300002F58052C2F860317B681B68D3F8002D28
:102640007B681B6842F00102C3F8002D7B681B68A1
:102650001A687B681B6842F002021A607B681B687C
:102660001A687B681B6842F001021A607B681B686D
:1026700003F58053D3F834117B681A684DF2C10317
:102680000B4302F58052C2F834317B684022C3F814
:102690008420002300E0012318460837BD4680BD92
:1026A00080B485B000AF78607B68D3F88430402B6D
:1026B00065D17B682022C3F884207B681B6803F502
:1026C0008053D3F834117B681A68304B0B4002F505
:1026D0008052C2F834317B681B6803F58053D3F80D
:1026E00004317A68126823F0010302F58052C2F8BF
:1026F00004317B681B6803F58053D3F808317A688E
:10270000126823F0010302F58052C2F808317B6899
:102710001B681A687B681B6822F001021A607B68DC
:102720001B68D3F8002D7B681B6842F00102C3F8D8
:10273000002D7B681B681A687B681B6822F0020208
:102740001A600023FB600EE07B68FA68123253F8CF
:102750002230BB60BB68DB6823F08042BB68DA6074
:10276000FB680133FB60FB68032BEDD97B6800221B
:102770009A657B681022C3F88420002300E00123BF
:1027800018461437BD465DF8047B70473E2FFFFFA7
:1027900080B582B000AF786039603B68002B09D10A
:1027A0007B68D3F8883043F001027B68C3F8882047
:1027B00001233AE07B68D3F88430402B34D13B6866
:1027C0005A6B7B68DA6301223968786801F0C2F8D5
:1027D0000346002B09D07B68D3F8883043F002020F
:1027E0007B68C3F8882001231FE0BFF34F8F00BF31
:1027F0007B689B6A5A1C7B689A627B689B6A032B86
:1028000004D97B689B6A1A1F7B689A627B68996A05
:102810007B681A687B68063153F8213002F58052D4
:10282000C2F82031002300E0012318460837BD46D6
:1028300080BD80B588B000AF7860396000237B61CF
:102840000023FB743B68002B09D17B68D3F88830E8
:1028500043F001027B68C3F888200123A2E07B6873
:10286000D3F88430402B01D001239BE07B68DB6DE3
:10287000FB617B68FA69123253F82230BB617B68D6
:10288000DB6EC3F10403FB6064E0BB69DB6803F04B
:102890008043002B07D0BB695A687B689A67BB6985
:1028A0001A687B685A67BB69DB6803F00053002B2A
:1028B00003D17B68DB6F002B3AD0BB69DB6803F088
:1028C0000053002B05D07B6800221A667B6800222B
:1028D0005A66BB69DB68C3F30E027B685B6ED31A72
:1028E000BB60BB69DB6803F08053002B05D0BB697C
:1028F000DA687B681A670123FB747B6803F17C004C
:102900007B6803F18001BB691B691A46BB689BB2F7
:1029100020F046FB7B681B6E5A1C7B681A667B683E
:102920005A6EBB681A447B685A66BB6900221A61FA
:10293000FB690133FB61FB69032B02D9FB69043B93
:10294000FB617B68FA69123253F82230BB617B6904
:1029500001337B61BB69DB68002B06DB7A69FB68AE
:102960009A4202D2FB7C002B8FD07B68DA6E7B69A7
:102970001A447B68DA667B68DB6E002B02D07868CD
:1029800000F014F87B68FA69DA65FB7C012B08D14A
:102990007B68DA6F3B681A607B680022DA67002385
:1029A00000E0012318462037BD4680BD80B588B0C1
:1029B00000AF78600023BB600123FB747B689B6ED3
:1029C000FB617B68FA69123253F822307B617B68C5
:1029D000DB6EBB6138E07B691B69002B12D107F10C
:1029E0000803184620F0ACFABB68002B02D1002384
:1029F000FB7407E0BB681A467B691A61BB681A461C
:102A00007B691A60FB7C002B1ED07B689B6D002BC2
:102A100004D07B694FF04142DA6003E07B694FF0FC
:102A20000142DA60FB690133FB61FB69032B02D9C8
:102A3000FB69043BFB617B68FA69123253F8223070
:102A40007B61BB69013BBB61BB69002B02D0FB7C96
:102A5000002BC0D17B68DB6EBA699A421BD0FB6940
:102A6000033303F00303FB60BFF35F8F00BF7B689A
:102A70001969FA6813465B001344DB00CA187B68C7
:102A80001B6803F58053C3F828217B68FA699A66AE
:102A90007B68BA69DA6600BF2037BD4680BD80B565
:102AA00086B000AF78607B681833BB60BB689B6AF8
:102AB0007B61BB68DB6A3B610123FB7347E0012359
:102AC000BB737B69013B7B61BA683B6904339B0044
:102AD00013445B68002B0AD13B6901333B613B69BE
:102AE000032B02D93B69043B3B610023BB73BB7BD7
:102AF000002B2CD07B68D9683A6913465B001344DD
:102B0000DB000B44DB68002B1FDBBA683B69043336
:102B10009B0013445B68184620F0AAFABA683B6928
:102B200004339B00134400225A603B6901333B612C
:102B30003B69032B02D93B69043B3B61BB687A6963
:102B40009A62BB683A69DA6201E00023FB737B6931
:102B5000002B02D0FB7B002BB1D100231846183785
:102B6000BD4680BD80B586B000AF78607B681B68CD
:102B7000D3F8B0307B617B681B6803F58053D3F8D2
:102B800060313B617B681B6803F58053D3F83431B7
:102B9000FB606D4B9B6ABB603B6903F04003002BFD
:102BA00010D0FB6803F04003002B0BD07B681B6840
:102BB00003F580531A4648F24003C2F86031786842
:102BC0001FF060FD3B6903F00103002B10D0FB6890
:102BD00003F00103002B0BD07B681B6803F58053C7
:102BE0001A4648F20103C2F8603178681FF05AFDB6
:102BF0003B6903F48043002B47D0FB6803F4804318
:102C0000002B42D07B68D3F8883043F008027B6801
:102C1000C3F888203B6903F48053002B1ED07B68E7
:102C20001B6803F58053D3F8602141F2021313406F
:102C30007A68C2F88C307B681B6803F58053D3F840
:102C400034317A68126823F4404302F58052C2F8A6
:102C500034317B68E022C3F8842013E07B681B6872
:102C600003F58053D3F8603103F4CD427B68C3F899
:102C70008C207B681B6803F580531A464FF4CD43C4
:102C8000C2F8603178681FF01DFD7B6903F4804352
:102C9000002B04D17B6903F40053002B19D07B680F
:102CA000D3F8883043F010027B68C3F888207B6833
:102CB0001B68D3F8B8207B68C3F890207B68E022BB
:102CC000C3F8842078681FF0FDFC7B680022C3F8FD
:102CD00090207B6903F01003002B0FD07B681B68EA
:102CE000D3F8C03003F060027B68C3F894207868A2
:102CF00000F02CF87B680022C3F894207B6903F075
:102D00002003002B0FD07B681B68D3F8D03003F072
:102D10000F027B68C3F89820786800F021F87B6880
:102D20000022C3F89820BB6803F48003002B06D070
:102D3000054B4FF480029A62786800F01BF800BFE0
:102D40001837BD4680BD00BF8000005880B483B0F6
:102D500000AF786000BF0C37BD465DF8047B70475C
:102D600080B483B000AF786000BF0C37BD465DF81B
:102D7000047B704780B483B000AF786000BF0C372D
:102D8000BD465DF8047B704780B586B000AFF86043
:102D9000B9607A603B60FB681B68D3F8003203F0CF
:102DA0000103002B01D001233EE0FB681B68D3F830
:102DB00000327B617B6923F07872BB685B0513434B
:102DC0007B617B6923F4F8127B681B0413437B61EE
:102DD0007B6943F00C037B617B6943F001037B61FA
:102DE000FB681B687A69C3F8002208F0A9FA386109
:102DF00009E008F0A5FA02463B69D31AB3F57A7FD9
:102E000001D9012310E0FB681B68D3F8003203F0FE
:102E10000103002BEDD1FB681B68D3F804329BB291
:102E20001A463B681A60002318461837BD4680BD15
:102E300080B586B000AFF860B9607A603B60FB682F
:102E40001B68D3F8003203F00103002B01D00123EB
:102E50003CE0FB681B68D3F800327B617B6923F0A0
:102E60007872BB685B0513437B617B6923F4F812BE
:102E70007B681B0413437B617B6923F00C0343F0E5
:102E800004037B617B6943F001037B613B689AB279
:102E9000104BC3F804220F4A7B69C2F8003208F0D5
:102EA0004FFA386109E008F04BFA02463B69D31A41
:102EB000B3F57A7F01D9012308E0FB681B68D3F8DA
:102EC000003203F00103002BEDD100231846183720
:102ED000BD4680BD0080024080B483B000AF786002
:102EE00039603B68002B01D10123C3E17B681B687B
:102EF0001B6803F00C023B68DA627B681B681B6886
:102F000003F01003002B14BF01230023DBB21A4689
:102F10003B6883F828207B681B681B6803F060020D
:102F20003B685A627B681B681B6803F48073002B44
:102F30000CBF01230023DBB21A463B6883F8202034
:102F40007B681B681B6803F40073002B14BF01230C
:102F50000023DBB21A463B68DA777B681B681B6884
:102F600003F48063002B0CBF01230023DBB21A465D
:102F70003B689A777B681B681B6803F40063002B2F
:102F800014BF01230023DBB21A463B685A777B68E3
:102F90001B681B6803F48053002B14BF012300231C
:102FA000DBB21A463B681A777B681B681B6803F420
:102FB00000523B689A617B681B681B6803F480427F
:102FC0003B685A617B681B681B6803F48033002BE5
:102FD00014BF01230023DBB21A463B689A747B6856
:102FE0001B681B6803F40033002B0CBF0123002374
:102FF000DBB21A463B685A747B681B681B6803F493
:103000000023002B0CBF01230023DBB21A463B68D0
:103010001A747B681B681B6803F48013002B14BFB1
:1030200001230023DBB21A463B68DA737B681B6816
:103030001B6803F40013002B14BF01230023DBB231
:103040001A463B689A737B681B681B6803F480030D
:10305000002B14BF01230023DBB21A463B685A73CE
:103060007B681B681B6803F40003002B14BF01235B
:103070000023DBB21A463B681A737B681B681B6827
:1030800003F0E0623B689A607B681B681B6803F092
:103090000063002B14BF01230023DBB21A463B68F8
:1030A0001A717B681B681B6803F0E0423B681A607A
:1030B0007B681B685B68C3F30D023B685A637B68DF
:1030C0001B685B6803F48033002B0CBF01230023D3
:1030D000DBB21A463B6883F832207B681B685B686A
:1030E00003F40033002B14BF01230023DBB21A4684
:1030F0003B6883F831207B681B685B6803F480239E
:10310000002B14BF01230023DBB21A463B6883F86F
:1031100030207B681B685B6803F08073002B14BF52
:1031200001230023DBB21A463B6883F838207B6812
:103130001B685B685B0E03F01F023B68DA637B6809
:103140001B68DB6803F48073002B14BF012300238A
:10315000DBB21A463B6883F840207B681B68DB685B
:1031600003F00F023B685A647B681B681B6F03F017
:103170000203002B14BF01230023DBB21A463B6875
:1031800083F854207B681B681B6F03F08003002BBF
:103190000CBF01230023DBB21A463B6883F84C20A6
:1031A0007B681B681B6F03F070023B681A657B68C5
:1031B0001B681B6F1B0C9AB23B689A647B681B6888
:1031C000D3F8903003F00103002B14BF0123002338
:1031D000DBB21A463B6883F856207B681B68D3F83D
:1031E000903003F00203002B14BF01230023DBB255
:1031F0001A463B6883F855207B681B68D3F8003D6E
:1032000003F072023B689A657B681B68D3F8303D17
:1032100003F023023B68DA657B681B68D3F8303D16
:1032200003F00803002B14BF01230023DBB21A466E
:103230003B6883F862207B681B68D3F8303D03F05D
:103240001003002B14BF01230023DBB21A463B6896
:1032500083F861207B681B68D3F8303D03F040039E
:10326000002B0CBF01230023DBB21A463B6883F816
:103270006020002318460C37BD465DF8047B70477C
:1032800080B582B000AF786039603B68002B01D117
:1032900001230BE07B68D3F88430102B05D139680B
:1032A000786800F071F8002300E001231846083721
:1032B000BD4680BD80B584B000AF78607B681B6878
:1032C000D3F80032FB60FB6823F47063FB6001F00D
:1032D00067FDB860BB681A4A934204D8FB6843F4A0
:1032E0000073FB6022E0BB68164A934204D2FB687D
:1032F00043F44073FB6019E0BB68134A934215D94D
:10330000BB68124A934204D8FB6843F48073FB60A5
:103310000CE0BB680E4A934204D8FB6843F4806318
:10332000FB6003E0FB6843F4A063FB607B681B6801
:10333000FA68C3F8002200BF1037BD4680BD00BF49
:10334000BF0E160200879303FFE0F5057FD1F0085A
:103350007FB2E60E80B483B000AF78607B68D3F8AC
:10336000883018460C37BD465DF8047B704780B442
:1033700083B000AF78607B68D3F88C3018460C3788
:10338000BD465DF8047B704780B485B000AF7860BF
:1033900039603B689A683B681B681A433B681B7935
:1033A000DB061A433B681B7BDB051A433B685B7BF0
:1033B0009B051A433B689B7B5B051A433B68DB7BA1
:1033C0001B0513433A68127C002A02D14FF40022F5
:1033D00000E0002213433A68527C002A02D14FF4E5
:1033E000003200E000221A433B689B7C1B041A4316
:1033F0003B685B691A433B689B691A433B681B7FC8
:103400001B031A433B685B7FDB0213433A68927FDE
:10341000002A02D14FF4806200E000221A433B6888
:10342000DB7F5B0213433A6892F82020002A02D126
:103430004FF4807200E000221A433B685B6A1A4333
:103440003B6893F828301B011A433B68DB6A13433F
:10345000FB607B681B681A68564B13407A681268D9
:10346000F9680B4313603B68DB6B5A063B6893F8C3
:1034700038301B061A433B6893F830309B041A43DC
:103480003B6893F831305B0413433A6892F832207A
:10349000002A02D14FF4803200E000221A433B6838
:1034A0005B6B1343FB607B681B685A68424B13409D
:1034B0007A681268F9680B4353603B6893F84030B0
:1034C0001A023B685B6C1343FB607B681B68DA681D
:1034D0003A4B13407A681268F9680B43D3603B6833
:1034E00093F854305A003B681B6D13433A6892F8C6
:1034F0004C20002A01D1802200E000221A433B68C0
:103500009B6C1B041343FB607B681B681A6F4FF6B0
:103510000D7313407A681268F9680B4313673B68B0
:1035200093F856301A463B6893F855305B001343C6
:10353000FB607B681B68D3F8903023F003017B6845
:103540001B68FA680A43C3F890207B681B68D3F8AD
:10355000003D23F072013B689A6D7B681B680A434B
:10356000C3F8002D3B68DB6D3A6892F86020002AB2
:1035700001D1402200E000221A433B6893F86130F9
:103580001B011A433B6893F86230DB001343FB6076
:103590007B681B68D3F8303D23F07B017B681B6898
:1035A000FA680A43C3F8302D00BF1437BD465DF8F2
:1035B000047B7047838004000080F8C0F0FEFFFFAA
:1035C00080B485B000AF786039607B681B6803F514
:1035D00080531A68384B13403A6811687A68126849
:1035E0000B4302F5805213603B681B791A033B685A
:1035F0009B681A433B681B7BDB031343FB607B68C0
:103600001B6803F580535A682C4B13407A68126884
:10361000F9680B4302F5805253603B685B7B1A04E8
:103620003B681B6A1343FB607B681B6803F5805390
:10363000D3F80021224B13407A681268F9680B43D3
:1036400002F58052C2F800313B681A693B681B7D65
:103650001B011A433B685B7F1B031343FB607B68C2
:103660001B6803F58053D3F80421164B13407A6886
:103670001268F9680B4302F58052C2F804313B68C6
:103680001B7FDA073B689B691343FB607B681B6801
:1036900003F58053D3F808210B4B13407A68126866
:1036A000F9680B4302F58052C2F8083100BF1437A5
:1036B000BD465DF8047B7047FD87FFFFFE2FFFFFCF
:1036C00000C0FEFFEFEFC0FFFFFFC07F80B5A4B0DA
:1036D00000AF7860012387F83B3000233B6500236F
:1036E00087F84930002387F84B30012387F83030C2
:1036F000012387F85E30012387F83A30002387F8EA
:103700005430012387F88C304FF400537B6400233E
:1037100087F864300023BB66002387F88D300023D0
:1037200087F88E304FF4C3633B66002387F8383048
:1037300000237B63012387F83D30002387F83E3068
:10374000002387F848300023FB6700237B670023B2
:10375000BB65002387F86C30002387F88230012393
:1037600087F84A302023C7F88830012387F84C3087
:10377000002387F85D304FF04053FB624FF48043E5
:103780003B64002387F839300223C7F884300023D4
:1037900087F88030002387F88130002387F85C3079
:1037A000012387F83C3000233B67012387F87830FA
:1037B00007F12C0319467868FFF7E6FD01233B73F8
:1037C00001233B610023BB60002387F824300023E2
:1037D0007B7500233B754FF400133B6200233B775E
:1037E0004FF40013BB61002387F825304FF40673B4
:1037F000BB6207F1080319467868FFF7E1FE00BFD6
:103800009037BD4680BD80B485B000AF786000239E
:10381000FB601DE07B68D968FA6813465B001344BF
:10382000DB000B44BB60BB6800221A60BB6800224F
:103830005A60BB6800229A60BB680022DA60B968EF
:103840007B68FA68063243F82210FB680133FB609C
:10385000FB68032BDED97B6800229A627B681B68B9
:1038600003F580531A460323C2F82C317B68DA68CB
:103870007B681B6803F58053C3F814217B68DA6802
:103880007B681B6803F58053C3F8202100BF143701
:10389000BD465DF8047B704780B485B000AF7860AA
:1038A0000023FB6023E07B681969FA6813465B001C
:1038B0001344DB000B44BB60BB6800221A60BB688A
:1038C00000225A60BB6800229A60BB680022DA605E
:1038D000BB6800221A61BB6800225A61B9687B6824
:1038E000FA68123243F82210FB680133FB60FB6870
:1038F000032BD8D97B680022DA657B6800221A6620
:103900007B6800229A667B680022DA667B68002268
:103910009A657B681B6803F580531A460323C2F837
:1039200030317B681A697B681B6803F58053C3F8E4
:103930001C217B681B6903F148027B681B6803F547
:103940008053C3F8282100BF1437BD465DF8047BBF
:103950007047000080B491B000AFF860B9607A6041
:10396000FB6818337B627B6A1B69FB637B6A1B699C
:103970003B6200237B637B6AFA6B53F822303B6324
:10398000BB689B68FB620023BB623B6BDB6803F098
:103990000043B3F1004F07D07A6AFB6B04339B00FE
:1039A00013445B68002B01D0022366E2BB681B68EE
:1039B00003F00403002B44D03B6BDA68754B1340D3
:1039C000BA68526A1A433B6BDA603B6BDB6843F4BC
:1039D00080323B6BDA60FB681B681A6EFB681B6801
:1039E00042F480121A66BB681B6803F00803002BC0
:1039F00027D03B6B9B689AB2BB68DB6A1B041A43F7
:103A00003B6B9A603B6BDB6843F400323B6BDA60E4
:103A10003B6BDB6823F44022BB681B6B1A433B6B98
:103A2000DA60FB681B685A6EFB681B6842F4801200
:103A30005A66FB681B681A6DFB681B6842F080625F
:103A40001A65BB681B6803F01003002B0ED03B6B9C
:103A50009A68514B1340BA6892691A433B6B9A605B
:103A60003B6BDB6843F080623B6BDA60BB681B68D2
:103A700003F00403002B05D1BB681B6803F010039F
:103A8000002B36D03B6BDB6843F080423B6BDA6047
:103A9000BFF35F8F00BF3B6BDB6843F000423B6BC3
:103AA000DA60FB6B0133FB63FB6B032B02D9FB6B0F
:103AB000043BFB637B6AFA6B53F822303B637B6BFE
:103AC00001337B633B6BDB6803F00043B3F1004FD2
:103AD0000FD17B6A3A6A53F822303B63BFF35F8FA2
:103AE00000BF3B6BDB6823F000423B6BDA600223D4
:103AF000C3E17B6B01337B63FB6A1B681A463B6B3C
:103B00001A603B6B9A68244B1340FA6A52681A4356
:103B10003B6B9A60FB6A9B68002B12D0FB6A9B6828
:103B2000FB62FB6A1B681A463B6B5A603B6B9A68E8
:103B30001A4B1340FA6A526812041A433B6B9A609C
:103B400008E03B6B00225A603B6B9A68134B1340B2
:103B50003A6B9360BB681B6803F01003002B21D005
:103B60003B6BDB6823F4F002BB681B6ADB041A437F
:103B70003B6BDA603B6BDA68094B1340BA68D26979
:103B80001A433B6BDA603B6BDB6843F480223B6B90
:103B9000DA602EE00000FFFF00C0FFFFFFFF00C063
:103BA0000000FCFF3B6BDA687B4B1340BA6852683D
:103BB0001A433B6BDA60BB681B6803F00103002B00
:103BC00008D03B6BDB6823F44032BB685B691A4367
:103BD0003B6BDA60BB681B6803F02003002B08D046
:103BE0003B6BDB6823F04062BB681B691A433B6B8D
:103BF000DA60BB681B6803F00403002B08D03B6B42
:103C00009B6823F44042BB689B6A1A433B6B9A60F3
:103C10003B6BDB6843F000523B6BDA603B6BDB686D
:103C200023F080423B6BDA60BFF35F8F00BF3B6BDA
:103C3000DB6843F000423B6BDA60BB681B6803F053
:103C40000203002B00F0DA803B6BDB6823F060722C
:103C5000BB68DB681A433B6BDA60CFE03B6BDB6829
:103C600023F080523B6BDA60FB6B0133FB63FB6B31
:103C7000032B02D9FB6B043BFB637B6AFA6B53F8A3
:103C800022303B633B6BDB6823F000523B6BDA6016
:103C90003B6BDB6803F00043B3F1004F07D07A6A57
:103CA000FB6B04339B0013445B68002B29D03B6AF9
:103CB000FB637B6AFA6B53F822303B630023BB63E0
:103CC00019E0BFF35F8F00BF3B6BDB6823F000425E
:103CD0003B6BDA60FB6B0133FB63FB6B032B02D99D
:103CE000FB6B043BFB637B6AFA6B53F822303B634C
:103CF000BB6B0133BB63BA6B7B6B9A42E1D302238C
:103D0000BBE07B6B01337B63FB6A9B68FB62FB6AF6
:103D10001B681A463B6B1A603B6B9A681F4B13403B
:103D2000FA6A52681A433B6B9A60FB6A9B68002BE5
:103D300012D0FB6A9B68FB62FB6A1B681A463B6BEE
:103D40005A603B6B9A68164B1340FA6A5268120429
:103D50001A433B6B9A6008E03B6B00225A603B6B56
:103D60009A680F4B13403A6B9360BB681B6803F073
:103D70001003002B18D03B6BDA680A4B1340BA686B
:103D8000D2691A433B6BDA603B6BDB6843F48022F9
:103D90003B6BDA6020E000BF0080FFFF00C0FFFF48
:103DA000FFFF00C00000FCFF3B6BDA68364B13409E
:103DB000BA6852681A433B6BDA60BB681B6803F051
:103DC0000103002B08D03B6BDB6823F44032BB6857
:103DD0005B691A433B6BDA60BB6A0133BB62BFF3BA
:103DE0005F8F00BF3B6BDB6843F000423B6BDA60E8
:103DF0003B6BDB6823F080423B6BDA60FB6A9B68BD
:103E0000002B7FF42BAF7B68002B06D03B6B9B68AD
:103E100043F000423B6B9A6005E03B6B9B6823F0EC
:103E200000423B6B9A603B6BDB6843F080523B6B1C
:103E3000DA607B6A5A6A796AFB6B04339B000B4435
:103E40005A607B6AFA6B1A61EFF31083BB61BB693E
:103E5000FB6101237B617B6983F3108800BF7B6A70
:103E60009A6ABB6A13445A1C7B6A9A62FB693B617B
:103E70003B6983F3108800BF002318464437BD46D2
:103E80005DF8047B704700BF0080FFFF80B58CB0F9
:103E900000AF78607B68002B02D1012300F048BCA2
:103EA0007B681B6803F00103002B00F08880994BAE
:103EB0001B6903F03803FB62964B9B6ABB62FB6A8B
:103EC000102B07D0FB6A182B11D1BB6A03F0030338
:103ED000022B0CD18F4B1B6803F40033002B6DD0E9
:103EE0007B685B68002B69D1012300F021BC7B68F3
:103EF0005B68B3F5803F06D1864B1B68854A43F467
:103F0000803313602EE07B685B68002B0CD1814B03
:103F10001B68804A23F4803313607E4B1B687D4A04
:103F200023F4802313601DE07B685B68B3F5A02F4A
:103F30000CD1784B1B68774A43F480231360754B90
:103F40001B68744A43F4803313600BE0714B1B68A9
:103F5000704A23F4803313606E4B1B686D4A23F460
:103F6000802313607B685B68002B13D007F0E8F9AF
:103F7000786208E007F0E4F902467B6AD31A642B02
:103F800001D90323D4E3634B1B6803F40033002BF4
:103F9000F0D014E007F0D4F9786208E007F0D0F927
:103FA00002467B6AD31A642B01D90323C0E3594B21
:103FB0001B6803F40033002BF0D100E000BF7B68E6
:103FC0001B6803F00203002B00F0CA80514B1B69F1
:103FD00003F038033B624F4B9B6AFB613B6A002B4B
:103FE00007D03B6A182B56D1FB6903F00303002B63
:103FF00051D1484B1B6803F00403002B05D07B68AC
:10400000DB68002B01D1012392E3424B1B6823F0B4
:1040100019027B68DB683F4913430B6007F090F996
:10402000786208E007F08CF902467B6AD31A022B0B
:1040300001D903237CE3374B1B6803F00403002BF7
:10404000F0D007F0ADF9034641F20302934217D8CE
:104050007B681B69402B08D12E4B5B6823F47C33B3
:104060002C4A43F4003353607AE02A4B5B6823F414
:104070007C327B681B691B03264913434B606FE04E
:10408000244B5B6823F0FE427B681B691B062149B9
:1040900013434B6064E07B68DB68002B47D01D4B0B
:1040A0001B6823F019027B68DB681A4913430B6015
:1040B00007F046F9786208E007F042F902467B6AA9
:1040C000D31A022B01D9032332E3124B1B6803F0EE
:1040D0000403002BF0D007F063F9034641F203021A
:1040E000934219D87B681B69402B08D1094B5B6848
:1040F00023F47C33074A43F40033536030E0054B2C
:104100005B6823F47C327B681B691B030149134302
:104110004B6025E0004402589A4B5B6823F0FE4256
:104120007B681B691B06974913434B6018E0954B4E
:104130001B68944A23F00103136007F001F97862C9
:1041400008E007F0FDF802467B6AD31A022B01D97A
:104150000323EDE28B4B1B6803F00403002BF0D12B
:104160007B681B6803F01003002B00F0A980854BCF
:104170001B6903F03803BB61824B9B6A7B61BB699F
:10418000082B07D0BB69182B3AD17B6903F00303D6
:10419000012B35D17B4B1B6803F48073002B05D0BA
:1041A0007B68DB69802B01D00123C1E207F0F8F8BE
:1041B000034641F20302934217D87B681B6A202B07
:1041C00008D1704B5B6823F0F8436E4A43F080439C
:1041D000536075E06B4B5B6823F0F8427B681B6AA9
:1041E0009B06684913434B606AE0664BDB6823F02B
:1041F0007C527B681B6A1B0662491343CB605FE0FD
:104200007B68DB69002B42D05E4B1B685D4A43F044
:104210008003136007F094F8786208E007F090F8E4
:1042200002467B6AD31A022B01D9032380E2554B45
:104230001B6803F48073002BF0D007F0B1F803463D
:1042400041F20302934217D87B681B6A202B08D1E6
:104250004C4B5B6823F0F8434A4A43F08043536079
:104260002EE0484B5B6823F0F8427B681B6A9B0694
:10427000444913434B6023E0424BDB6823F07C52FC
:104280007B681B6A1B063F491343CB6018E03D4B1C
:104290001B683C4A23F08003136007F051F87862F2
:1042A00008E007F04DF802467B6AD31A022B01D9C9
:1042B00003233DE2334B1B6803F48073002BF0D1E2
:1042C0007B681B6803F00803002B36D07B685B69B2
:1042D000002B19D02B4B5B6F2A4A43F00103536725
:1042E00007F02EF8786208E007F02AF802467B6AA9
:1042F000D31A022B01D903231AE2224B5B6F03F07E
:104300000203002BF0D018E01E4B5B6F1D4A23F018
:104310000103536707F014F8786208E007F010F81B
:1043200002467B6AD31A022B01D9032300E2154B04
:104330005B6F03F00203002BF0D17B681B6803F076
:104340002003002B39D07B689B69002B1CD00D4BC0
:104350001B680C4A43F48053136006F0F1FF786247
:1043600008E006F0EDFF02467B6AD31A022B01D962
:104370000323DDE1034B1B6803F40053002BF0D053
:104380001BE000BF004402589B4B1B689A4A23F471
:104390008053136006F0D4FF786208E006F0D0FF87
:1043A00002467B6AD31A022B01D90323C0E1924B48
:1043B0001B6803F40053002BF0D17B681B6803F0EB
:1043C0000403002B00F081808C4B1B688B4A43F464
:1043D0008073136006F0B4FF786208E006F0B0FF67
:1043E00002467B6AD31A642B01D90323A0E1834BD5
:1043F0001B6803F48073002BF0D07B689B68012B53
:1044000006D17D4B1B6F7C4A43F0010313672DE0FF
:104410007B689B68002B0CD1774B1B6F764A23F08F
:1044200001031367744B1B6F734A23F00403136774
:104430001CE07B689B68052B0CD16F4B1B6F6E4A91
:1044400043F0040313676C4B1B6F6B4A43F001038B
:1044500013670BE0684B1B6F674A23F00103136778
:10446000654B1B6F644A23F0040313677B689B68EA
:10447000002B15D006F064FF78620AE006F060FFBA
:1044800002467B6AD31A41F28832934201D9032350
:104490004EE1594B1B6F03F00203002BEED014E0EA
:1044A00006F04EFF78620AE006F04AFF02467B6A99
:1044B000D31A41F28832934201D9032338E14E4B9B
:1044C0001B6F03F00203002BEED17B685B6A002BAD
:1044D00000F02D81484B1B6903F03803182B00F0C6
:1044E000BD807B685B6A022B40F09E80424B1B685C
:1044F000414A23F08073136006F022FF786208E0DF
:1045000006F01EFF02467B6AD31A022B01D9032351
:104510000EE1394B1B6803F00073002BF0D1364BD2
:104520009A6A374B13407A68916A7A68D26A1201A4
:104530000A43314913438B627B681B6B013BC3F316
:1045400008027B685B6B013B5B029BB21A437B6892
:104550009B6B013B1B0403F4FE031A437B68DB6B7C
:10456000013B1B0603F0FE43234913430B63224B1D
:10457000DB6A214A23F00103D3621F4B5A6B214BA4
:1045800013407A68926CD2001B4913434B631A4B59
:10459000DB6A23F00C027B681B6C17491343CB6268
:1045A000154BDB6A23F002027B685B6C12491343F4
:1045B000CB62114BDB6A104A43F48033D3620E4B5B
:1045C000DB6A0D4A43F40033D3620B4BDB6A0A4AC1
:1045D00043F48023D362084BDB6A074A43F00103AC
:1045E000D362054B1B68044A43F08073136006F0E6
:1045F000A7FE786211E000BF00440258004802584C
:104600000CFCFFFF0700FFFF06F09AFE02467B6AE4
:10461000D31A022B01D903238AE0474B1B6803F00E
:104620000073002BF0D082E0434B1B68424A23F01A
:104630008073136006F084FE786208E006F080FE66
:1046400002467B6AD31A022B01D9032370E03A4B4E
:104650001B6803F00073002BF0D168E0364B9B6AB7
:104660003B61354B1B6BFB607B685B6A012B31D078
:104670003B6903F003027B689B6A9A422AD13B693B
:104680001B0903F03F027B68DB6A9A4222D1FB6878
:10469000C3F308027B681B6B013B9A421AD1FB688B
:1046A0005B0A03F07F027B685B6B013B9A4211D18E
:1046B000FB681B0C03F07F027B689B6B013B9A42FB
:1046C00008D1FB681B0E03F07F027B68DB6B013BAC
:1046D0009A4201D001232BE0174B5B6BDB08C3F33D
:1046E0000C033B617B689B6C3A699A421FD0124B6A
:1046F000DB6A114A23F00103D36206F021FE7862DF
:1047000000BF06F01DFE02467B6A9342F9D00A4BB9
:104710005A6B0A4B13407A68926CD20006491343D5
:104720004B63054BDB6A044A43F00103D362002369
:1047300018463037BD4680BD004402580700FFFFD1
:1047400080B586B000AF786039607B68002B01D1FE
:1047500001239CE18A4B1B6803F00F033A689A42DD
:1047600010D9874B1B6823F00F0285493B68134320
:104770000B60834B1B6803F00F033A689A4201D029
:10478000012384E17B681B6803F00403002B10D035
:104790007B681A697B4B9B6903F070039A4208D9C6
:1047A000784B9B6923F070027B681B697549134342
:1047B0008B617B681B6803F00803002B10D07B68BB
:1047C0005A69704BDB6903F070039A4208D96D4B4C
:1047D000DB6923F070027B685B696A491343CB6134
:1047E0007B681B6803F01003002B10D07B689A696C
:1047F000644BDB6903F4E0639A4208D9614BDB69DF
:1048000023F4E0627B689B695E491343CB617B685C
:104810001B6803F02003002B10D07B68DA69594B2A
:104820001B6A03F070039A4208D9564B1B6A23F0A7
:1048300070027B68DB69534913430B627B681B681A
:1048400003F00203002B10D07B68DA684D4B9B69A4
:1048500003F00F039A4208D94A4B9B6923F00F02D9
:104860007B68DB68474913438B617B681B6803F0F7
:104870000103002B55D0434B9B6923F470627B6886
:104880009B68404913438B617B685B68022B07D1AF
:104890003C4B1B6803F40033002B21D10123F6E0CD
:1048A0007B685B68032B07D1364B1B6803F00073F2
:1048B000002B15D10123EAE07B685B68012B07D14F
:1048C000304B1B6803F48073002B09D10123DEE019
:1048D0002C4B1B6803F00403002B01D10123D6E00D
:1048E000284B1B6923F007027B685B68254913434B
:1048F0000B6106F025FD78610AE006F021FD024615
:104900007B69D31A41F28832934201D90323BEE076
:104910001C4B1B6903F038027B685B68DB009A4222
:10492000EBD17B681B6803F00203002B10D07B687F
:10493000DA68144B9B6903F00F039A4208D2114BBB
:104940009B6923F00F027B68DB680E4913438B6180
:104950000B4B1B6803F00F033A689A4214D2084BC2
:104960001B6823F00F0206493B6813430B60044B9E
:104970001B6803F00F033A689A4205D0012386E0D2
:1049800000200052004402587B681B6803F00403B7
:10499000002B10D07B681A693F4B9B6903F07003B2
:1049A0009A4208D23C4B9B6923F070027B681B69DA
:1049B000394913438B617B681B6803F00803002BA4
:1049C00010D07B685A69344BDB6903F070039A425C
:1049D00008D2314BDB6923F070027B685B692E499A
:1049E0001343CB617B681B6803F01003002B10D0CE
:1049F0007B689A69284BDB6903F4E0639A4208D22A
:104A0000254BDB6923F4E0627B689B6922491343F1
:104A1000CB617B681B6803F02003002B10D07B6800
:104A2000DA691D4B1B6A03F070039A4208D21A4BD5
:104A30001B6A23F070027B68DB69174913430B6222
:104A400000F034F80246144B9B691B0A03F00F0375
:104A50001249CB5C03F01F0322FA03F33B610E4BB8
:104A60009B6903F00F030D4AD35C03F01F033A69FF
:104A700022FA03F30A4A13600A4A3B6913600A4B9D
:104A80001B68184620F0C6FD0346FB73FB7B1846E7
:104A90001837BD4680BD00BF0044025824210508D8
:104AA00004000024000000240800002480B489B021
:104AB00000AFB34B1B6903F03803182B00F255818C
:104AC00001A252F823F000BF2D4B00086B4D0008E7
:104AD0006B4D00086B4D00086B4D00086B4D0008D6
:104AE0006B4D00086B4D0008534B00086B4D0008E0
:104AF0006B4D00086B4D00086B4D00086B4D0008B6
:104B00006B4D00086B4D0008594B00086B4D0008B9
:104B10006B4D00086B4D00086B4D00086B4D000895
:104B20006B4D00086B4D00085F4B0008944B1B68F1
:104B300003F02003002B09D0914B1B68DB0803F026
:104B40000303904A22FA03F3BB6111E18D4BBB6171
:104B50000EE18D4BBB610BE18C4BBB6108E1884BD7
:104B60009B6A03F003037B61854B9B6A1B0903F07F
:104B70003F033B61824BDB6A03F00103FB60804B28
:104B80005B6BDB08C3F30C03FA6802FB03F307EE6D
:104B9000903AF8EE677AC7ED027A3B69002B00F095
:104BA000E1807B69022B00F083807B69022B00F29D
:104BB000A1807B69002B03D07B69012B56D099E043
:104BC0006F4B1B6803F02003002B2DD06C4B1B6830
:104BD000DB0803F003036B4A22FA03F37B607B6874
:104BE00007EE903AF8EE676A3B6907EE903AF8EE06
:104BF000677A86EEA77A624B1B6BC3F3080307EE56
:104C0000903AF8EE676A97ED026ADFED615AC6EEF8
:104C1000257A76EEA77AF7EE006A77EEA67A67EE47
:104C2000277AC7ED077A87E03B6907EE903AF8EEFE
:104C3000677ADFED586A86EEA77A514B1B6BC3F398
:104C4000080307EE903AF8EE676A97ED026ADFED27
:104C5000505AC6EE257A76EEA77AF7EE006A77EE1E
:104C6000A67A67EE277AC7ED077A65E03B6907EE1B
:104C7000903AF8EE677ADFED486A86EEA77A404B05
:104C80001B6BC3F3080307EE903AF8EE676A97EDE3
:104C9000026ADFED3F5AC6EE257A76EEA77AF7EE86
:104CA000006A77EEA67A67EE277AC7ED077A43E0C7
:104CB0003B6907EE903AF8EE677ADFED386A86EEE8
:104CC000A77A2F4B1B6BC3F3080307EE903AF8EE5D
:104CD000676A97ED026ADFED2E5AC6EE257A76EE08
:104CE000A77AF7EE006A77EEA67A67EE277AC7ED25
:104CF000077A21E03B6907EE903AF8EE677ADFED3C
:104D0000266A86EEA77A1E4B1B6BC3F3080307EED9
:104D1000903AF8EE676A97ED026ADFED1D5AC6EE2B
:104D2000257A76EEA77AF7EE006A77EEA67A67EE36
:104D3000277AC7ED077A00BF114B1B6B5B0A03F0A4
:104D40007F0301333B603B6807EE903AB8EE677A29
:104D5000D7ED076AC6EE877AFCEEE77A17EE903A4F
:104D6000BB6105E00023BB6102E0074BBB6100BFF4
:104D7000BB6918462437BD465DF8047B704700BF09
:104D8000004402580090D00300093D0040787D01A6
:104D9000000000460024744C0024744A20BCBE4B22
:104DA00080B582B000AFFFF781FE0246104B9B69D1
:104DB0001B0A03F00F030F49CB5C03F01F0322FA19
:104DC00003F37B600A4B9B6903F00F03094AD35C32
:104DD00003F01F037A6822FA03F3074A1360074AB5
:104DE0007B681360044B1B6818460837BD4680BDBE
:104DF0000044025824210508040000240000002477
:104E000080B500AFFFF7CCFF0246064BDB691B09FC
:104E100003F007030449CB5C03F01F0322FA03F3FA
:104E2000184680BD004402582421050880B500AF13
:104E3000FFF7B6FF0246064BDB691B0A03F00703C8
:104E40000449CB5C03F01F0322FA03F3184680BD2C
:104E5000004402582421050880B483B000AF786074
:104E600039607B683F221A601A4B1B6903F0070206
:104E70007B685A60174B9B6903F470627B689A6089
:104E8000144B9B6903F00F027B68DA60114B9B693E
:104E900003F070027B681A610E4BDB6903F070024D
:104EA0007B685A610B4BDB6903F4E0627B689A61B3
:104EB000084B1B6A03F070027B68DA61064B1B68C3
:104EC00003F00F023B681A6000BF0C37BD465DF867
:104ED000047B704700440258002000522DE9B04F77
:104EE000CAB000AFC7F81401002387F827310023A8
:104EF00087F82631D7F81431D3E9002302F0006493
:104F0000002554EA050349D0D7F814319B6EB3F558
:104F1000401F2FD0B3F5401F28D8B3F5001F1AD07B
:104F2000B3F5001F22D8002B03D0B3F5801F07D0A4
:104F30001CE0B84BDB6AB74A43F40033D3621AE093
:104F4000D7F8143108330221184602F061FB0346FA
:104F500087F827310FE0D7F814312833022118469B
:104F600002F008FC034687F8273104E0012387F8A4
:104F7000273100E000BF97F82731002B0AD1A54B5D
:104F80001B6D23F44011D7F814319B6EA14A0B43DB
:104F9000136503E097F8273187F82631D7F81431E5
:104FA000D3E9002302F480784FF0000958EA09039E
:104FB00047D0D7F814319B6D042B2AD801A252F8A0
:104FC00023F000BFD94F0008E74F0008FD4F00084D
:104FD0001B5000081B5000088E4BDB6A8D4A43F4BF
:104FE0000033D3621AE0D7F8143108330021184691
:104FF00002F00EFB034687F827310FE0D7F8143193
:1050000028330021184602F0B5FB034687F8273104
:1050100004E0012387F8273100E000BF97F827312B
:10502000002B0AD17B4B1B6D23F00701D7F81431FD
:105030009B6D784A0B43136503E097F8273187F897
:105040002631D7F81431D3E9002302F4007A4FF067
:10505000000B5AEA0B034CD0D7F81431DB6DB3F5D3
:10506000807F30D0B3F5807F29D8C02B2DD0C02BC6
:1050700025D8802B18D0802B21D8002B02D0402B94
:1050800007D01CE0634BDB6A624A43F40033D3620F
:105090001CE0D7F8143108330021184602F0B8FAA2
:1050A000034687F8273111E0D7F81431283300215F
:1050B000184602F05FFB034687F8273106E001231C
:1050C00087F8273102E000BF00E000BF97F82731E2
:1050D000002B0AD14F4B1B6D23F4E071D7F814312C
:1050E000DB6D4C4A0B43136503E097F8273187F8D3
:1050F0002631D7F81431D3E9002302F48063C7F8CE
:1051000008310023C7F80C31D7E942120B4613438C
:1051100053D0D7F81431D3F8A830B3F5000F35D0F9
:10512000B3F5000F2ED8B3F5C00F31D0B3F5C00FD3
:1051300028D8B3F5800F1AD0B3F5800F22D8002BF2
:1051400003D0B3F5001F07D01CE0324BDB6A314AB5
:1051500043F40033D3621CE0D7F814310833002144
:10516000184602F055FA034687F8273111E0D7F8C0
:10517000143128330021184602F0FCFA034687F860
:10518000273106E0012387F8273102E000BF00E065
:1051900000BF97F82731002B0BD11E4B9B6D23F4DA
:1051A0006001D7F81431D3F8A8301A4A0B4393653D
:1051B00003E097F8273187F82631D7F81431D3E97F
:1051C000002302F40063C7F800310023C7F804315C
:1051D000D7E940120B46134356D0D7F81431D3F811
:1051E000AC30B3F1806F38D0B3F1806F31D8B3F108
:1051F000407F34D0B3F1407F2BD8B3F1007F1DD076
:10520000B3F1007F25D8002B06D0B3F1807F0AD000
:105210001FE000BF00440258A24BDB6AA14A43F4DE
:105220000033D3621CE0D7F814310833002118464C
:1052300002F0EEF9034687F8273111E0D7F8143170
:1052400028330021184602F095FA034687F82731E3
:1052500006E0012387F8273102E000BF00E000BF2D
:1052600097F82731002B0BD18E4B9B6D23F0E0611B
:10527000D7F81431D3F8AC308A4A0B43936503E076
:1052800097F8273187F82631D7F81431D3E900236E
:1052900002F00073C7F8F8300023C7F8FC30D7E9F4
:1052A0003E120B4613433AD0D7F81431DB6C302B47
:1052B0001FD0302B19D8202B0CD0202B15D8002B29
:1052C00019D0102B11D1774BDB6A764A43F40033A7
:1052D000D36211E0D7F8143108330221184602F0E6
:1052E00097F9034687F8273106E0012387F827312D
:1052F00002E000BF00E000BF97F82731002B0AD181
:10530000684BDB6C23F03001D7F81431DB6C654A55
:105310000B43D36403E097F8273187F82631D7F899
:105320001431D3E9002302F48053C7F8F03000238E
:10533000C7F8F430D7E93C120B46134351D0D7F8E5
:1053400014311B6EB3F5804F35D0B3F5804F2ED896
:10535000B3F5405F31D0B3F5405F28D8B3F5005FB7
:105360001AD0B3F5005F22D8002B03D0B3F5805FCD
:1053700007D01CE04B4BDB6A4A4A43F40033D3624C
:105380001CE0D7F8143108330021184602F040F928
:10539000034687F8273111E0D7F81431283300216C
:1053A000184602F0E7F9034687F8273106E00123A3
:1053B00087F8273102E000BF00E000BF97F82731EF
:1053C000002B0AD1374B1B6D23F4E041D7F8143181
:1053D0001B6E344A0B43136503E097F8273187F8B7
:1053E0002631D7F81431D3E9002302F40053C7F86B
:1053F000E8300023C7F8EC30D7E93A120B461343E4
:1054000056D0D7F814315B6EB3F5A02F33D0B3F577
:10541000A02F2CD8B3F5802F2FD0B3F5802F26D80E
:10542000B3F5403F2BD0B3F5403F20D8B3F5003F54
:1054300012D0B3F5003F1AD8002B22D0B3F5803F2D
:1054400015D1D7F8143108330121184602F0E0F8DD
:10545000034687F8273115E0D7F8143128330121A6
:10546000184602F087F9034687F827310AE001233E
:1054700087F8273106E000BF04E000BF02E000BF6C
:1054800000E000BF97F82731002B0DD1054B1B6DB5
:1054900023F4E021D7F814315B6E024A0B43136505
:1054A00006E000BF0044025897F8273187F82631FC
:1054B000D7F81431D3E9002302F48043C7F8E03071
:1054C0000023C7F8E430D7E938120B46134355D010
:1054D000D7F81431D3F8B030B3F1A04F33D0B3F1D3
:1054E000A04F2CD8B3F1804F2FD0B3F1804F26D8E6
:1054F000B3F1405F2BD0B3F1405F20D8B3F1005F30
:1055000012D0B3F1005F1AD8002B22D0B3F1805F24
:1055100015D1D7F8143108330121184602F078F874
:10552000034687F8273115E0D7F8143128330121D5
:10553000184602F01FF9034687F827310AE00123D5
:1055400087F8273106E000BF04E000BF02E000BF9B
:1055500000E000BF97F82731002B0BD1A34B9B6DC8
:1055600023F0E041D7F81431D3F8B0309F4A0B4311
:10557000936503E097F8273187F82631D7F814317F
:10558000D3E9002302F40043C7F8D8300023C7F85A
:10559000DC30D7E936120B46134337D0D7F8143135
:1055A0001B6FB3F1005F0ED0B3F1005F16D8002B74
:1055B00018D0B3F1805F11D18C4BDB6A8B4A43F476
:1055C0000033D3620FE0D7F81431083301211846B5
:1055D00002F01EF8034687F8273104E0012387F81C
:1055E000273100E000BF97F82731002B0AD17F4B0D
:1055F0001B6D23F04051D7F814311B6F7B4A0B43CE
:10560000136503E097F8273187F82631D7F814316E
:10561000D3E9002302F08073C7F8D0300023C7F825
:10562000D430D7E934120B46134339D0D7F81431AC
:105630009B6C032B1CD801A252F823F0795600086A
:105640004D5600085B56000879560008674BDB6A28
:10565000664A43F40033D3620FE0D7F814310833BD
:105660000221184601F0D4FF034687F8273104E0F1
:10567000012387F8273100E000BF97F82731002B7E
:105680000AD15A4BDB6C23F00301D7F814319B6C21
:10569000564A0B43D36403E097F8273187F8263145
:1056A000D7F81431D3E9002302F48003C7F8C830D7
:1056B0000023C7F8CC30D7E932120B46134300F071
:1056C0009F804B4B1B684A4A43F48073136005F07C
:1056D00037FEC7F820010BE005F032FE0246D7F88E
:1056E0002031D31A642B03D9032387F8273105E02F
:1056F0003F4B1B6803F48073002BEDD097F82731E4
:10570000002B79D1394B1A6FD7F81431D3F8B43054
:10571000534003F44073002B15D0344B1B6F23F41C
:105720004073C7F81C31314B1B6F304A43F4803350
:1057300013672E4B1B6F2D4A23F4803313672B4ABC
:10574000D7F81C311367D7F81431D3F8B430B3F558
:10575000807F18D105F0F4FDC7F820010DE005F0B9
:10576000EFFD0246D7F82031D21A41F288339A422F
:1057700003D9032387F8273105E01C4B1B6F03F087
:105780000203002BEBD097F82731002B29D1D7F853
:105790001431D3F8B43003F44073B3F5407F0ED125
:1057A000124B1B6923F47C51D7F81431D3F8B43071
:1057B0001A09104B13400D4A0B43136105E00B4BC4
:1057C0001B690A4A23F47C531361084B196FD7F8FD
:1057D0001431D3F8B430C3F30B03044A0B431367FB
:1057E0000EE097F8273187F8263109E00044025887
:1057F00000480258CFFFFF0097F8273187F826317D
:10580000D7F81431D3E9002302F00103C7F8C03000
:105810000023C7F8C430D7E930120B46134300F019
:105820008980D7F81431DB6F282B6BD801A252F88E
:1058300023F000BF0D59000805590008055900085C
:1058400005590008055900080559000805590008C0
:1058500005590008D95800080559000805590008DD
:1058600005590008055900080559000805590008A0
:1058700005590008EF5800080559000805590008A7
:105880000559000805590008055900080559000880
:10589000055900080D590008055900080559000868
:1058A0000559000805590008055900080559000860
:1058B000055900080D590008055900080559000848
:1058C0000559000805590008055900080559000840
:1058D000055900080D590008D7F814310833012183
:1058E000184601F095FE034687F827310FE0D7F8F8
:1058F000143128330121184601F03CFF034687F894
:10590000273104E0012387F8273100E000BF97F832
:105910002731002B0AD1BF4B5B6D23F03801D7F83C
:105920001431DB6FBB4A0B43536503E097F8273113
:1059300087F82631D7F81431D3E9002302F00203A7
:10594000C7F8B8300023C7F8BC30D7E92E120B4691
:10595000134341D0D7F814319B6F052B24D801A2F3
:1059600052F823F0B15900087D59000893590008F6
:10597000B1590008B1590008B1590008D7F81431DD
:1059800008330121184601F043FE034687F827310A
:105990000FE0D7F8143128330121184601F0EAFE50
:1059A000034687F8273104E0012387F8273100E018
:1059B00000BF97F82731002B0AD1964B5B6D23F07F
:1059C0000701D7F814319B6F924A0B43536503E0EC
:1059D00097F8273187F82631D7F81431D3E9002317
:1059E00002F00403C7F8B0300023C7F8B430D7E999
:1059F0002C120B46134344D0D7F81431D3F894300B
:105A0000052B25D801A252F823F000BF595A0008EF
:105A1000255A00083B5A0008595A0008595A0008EC
:105A2000595A0008D7F8143108330121184601F0FB
:105A3000EFFD034687F827310FE0D7F814312833FC
:105A40000121184601F096FE034687F8273104E04D
:105A5000012387F8273100E000BF97F82731002B9A
:105A60000BD16C4B9B6D23F00701D7F81431D3F8A1
:105A70009430684A0B43936503E097F8273187F821
:105A80002631D7F81431D3E9002302F02003C7F8F8
:105A9000A8300023C7F8AC30D7E92A120B461343CD
:105AA00055D0D7F81431D3F89030B3F1A04F33D09C
:105AB000B3F1A04F2CD8B3F1804F2FD0B3F1804F6A
:105AC00026D8B3F1405F2BD0B3F1405F20D8B3F1BB
:105AD000005F12D0B3F1005F1AD8002B22D0B3F1CF
