:020000040800F2
:100000000000082085020008D5020008D50200087B
:10001000D5020008D5020008D50200080000000043
:10002000000000000000000000000000D5020008F1
:10003000D502000800000000D5020008D502000823
:10004000D5020008D5020008D5020008D502000834
:10005000D5020008D5020008D5020008D502000824
:10006000D5020008D5020008D5020008D502000814
:10007000D5020008D5020008D5020008D502000804
:10008000D5020008D5020008D5020008D5020008F4
:10009000D5020008D5020008D5020008D5020008E4
:1000A000D5020008D5020008D5020008D5020008D4
:1000B000D5020008D5020008D5020008D5020008C4
:1000C000D5020008D5020008D5020008D5020008B4
:1000D000D5020008D5020008D5020008D5020008A4
:1000E000D5020008D5020008D5020008D502000894
:1000F000D5020008D5020008D5020008D502000884
:10010000D5020008D5020008D5020008D502000873
:10011000D5020008D5020008D5020008D502000863
:10012000D5020008D5020008D5020008D502000853
:10013000D5020008D5020008D5020008D502000843
:10014000D5020008D5020008D5020008D502000833
:10015000D5020008D5020008D5020008D502000823
:10016000D5020008D5020008D5020008D502000813
:10017000D5020008D5020008D502000800000000E2
:10018000D5020008D5020008D5020008D5020008F3
:10019000D5020008D5020008D5020008D5020008E3
:1001A000D5020008D5020008D5020008D5020008D3
:1001B000D5020008D5020008D5020008D5020008C3
:1001C000D5020008D502000800000000D502000892
:1001D000D5020008D5020008D5020008D5020008A3
:1001E000D5020008D5020008D5020008D502000893
:0801F000D5020008D502000849
:1001F8000348044B834202D0034B03B118477047AE
:10020800CC010220CC010220000000000548064B6A
:100218001B1AD90F01EBA301491002D0034B03B1FC
:1002280018477047CC010220CC01022000000000D2
:1002380010B5064C237843B9FFF7DAFF044B13B126
:100248000448AFF300800123237010BDCC010220C5
:1002580000000000FC11000808B5054B1BB105495A
:100268000548AFF30080BDE80840FFF7CFBF00BFE7
:1002780000000000D0010220FC110008DFF834D093
:1002880000F084FF0C480D490D4A002302E0D458C1
:10029800C4500433C4188C42F9D30A4A0A4C0023C8
:1002A80001E013600432A242FBD300F07FFF00F0AC
:1002B800D1FB70470000082000000220CC0102207A
:1002C8009C1D0008CC010220EC010220FEE7000082
:1002D80080B400AF034B4AF6AA221A6000BFBD469D
:1002E80080BC70470030004080B483B000AF7860B5
:1002F8007B68042B1DD07B68042B1CD87B68032BE0
:1003080015D07B68032B16D87B68022B0DD07B6831
:10031800022B10D87B68002B03D07B68012B02D0FE
:1003280009E0084B08E0084B06E0084B04E0084BDE
:1003380002E0084B00E0084B18460C37BD4680BC6D
:10034800704700BF40120008481200085412000805
:100358005C1200086C1200087812000880B582B0A0
:1003680000AF1E4B5B6F7B6079681D4800F0B0FDE5
:100378007B68002B02DA1B4800F0AAFD7B6803F0BB
:100388008043002B02D0184800F0A2FD7B6803F0E0
:100398000053002B02D0154800F09AFD7B6803F04B
:1003A8008053002B02D0124800F092FD7B6803F0C6
:1003B8000063002B02D00F4800F08AFD7B6803F031
:1003C8008063002B02D00C4800F082FD0B4800F03F
:1003D8007FFD00BF0837BD4680BD00BF0038024022
:1003E800801200089C120008A4120008AC12000831
:1003F800B4120008BC120008C4120008CC1200088D
:1004080080B582B000AF786039607B683A68194679
:10041800002000F0FDFB034618460837BD4680BDA6
:100428002DE9F04F95B000AFF861EFF31083BB6290
:10043800BB6A7B630023FB6472B600BF00F0F0FE6A
:1004480000F0F6FE6649674800F042FD142000F00F
:10045800E3FE0346002B09D0634BDB68194663486B
:1004680000F038FE4FF0FF33FB648FE0FB693B631D
:100478005B4BFB620023BB6483E04FF0FF324FF01D
:10048800FF33C7E91023BB6C193B072B04D8BB6C9F
:10049800C3F12003FB6301E00823FB630023BB6374
:1004A8004CE0BB6BDE004FF0FF024FF00003A6F1FB
:1004B8002001C6F1200003FA06F902FA01F149EA1F
:1004C800010922FA00F049EA000902FA06F86FEA7F
:1004D80008033B616FEA09037B61D7E91023396997
:1004E8001140B96079690B40FB60BA6CBB6B13446F
:1004F8003A6B13441B78DBB200229A469346BB6BD7
:10050800DB00A3F12001C3F120020BFA03F50AFA7C
:1005180001F10D432AFA02F215430AFA03F4D7E966
:1005280002120B4623433B6013462B437B60D7E9FB
:100538000023C7E91023BB6B0133BB63BA6BFB6BAA
:100548009A42AED3FA6ABB6CD118D7E91023084691
:1005580000F05EFE0346002B10D0FA6ABB6C134411
:100568001946234800F0B4FC1F4BDB6819462148A4
:1005780000F0B0FD4FF0FF33FB6407E0BB6C0833BD
:10058800BB64BB6C1F2B7FF678AF00BF00F04CFE3E
:100598007B6B7B627B6A83F3108800BFFB6C002B4C
:1005A8000DD1FB695B681846FFF79EFE0146FB69A3
:1005B8009A68FB69DB68104800F08AFC09E0FB696F
:1005C8005B681846FFF790FE034619460B4800F093
:1005D8007FFCFB6C18465437BD46BDE8F08F00BF62
:1005E80000000908D0120008003C0240001300086F
:1005F80010130008301300083C130008701300089B
:100608002DE9F04F99B000AFF861FB69002B03D0DA
:10061800FB69B3F5C02F08D94FF4C022F9698548A2
:1006280000F056FC4FF0FF33FEE0EFF310837B62DF
:100638007B6A3B630023FB6572B600BF00F0F0FDE8
:1006480000F0F6FD0023BB6529E07B4ABB6D13442F
:100658001B78191F784ABB6D13441B781A467748D4
:1006680000F036FC744ABB6D13441B78184600F042
:10067800D3FD0346002B0CD0714800F029FC714BC8
:10068800DB681946704800F025FD4FF0FF33FB6525
:10069800C1E06E4800F01CFCBB6D0133BB65BB6D4F
:1006A800022BD2DD6A4B7B656A4B3B65FB69FB64B9
:1006B8000023BB6400237B643B6D7A6DF96966484F
:1006C80000F006FC9EE04FF0FF324FF0FF33C7E921
:1006D8000E23FB6C082B28BF0823FB627B6DBB62D3
:1006E80000237B634EE07B6BDC004FF0FF024FF092
:1006F8000003A4F12001C4F1200003FA04FB02FA6C
:1007080001F14BEA010B22FA00F04BEA000B02FA66
:1007180004FA6FEA0A033B616FEA0B037B61D7E9CE
:100728000E2339691140B96079690B40FB60BA6AD8
:100738007B6B13441B78DBB200221D4616467B6B8D
:10074800DB00A3F12001C3F1200206FA03F905FA40
:1007580001F149EA010925FA02F249EA020905FA12
:1007680003F8D7E902120B4643EA08033B60134635
:1007780043EA09037B60D7E90034C7E90E347B6B91
:1007880001337B637A6BFB6A9A42ACD3D7E90E23B9
:10079800386D00F03DFD0346002B0DD0396D2F4814
:1007A80000F096FB274BDB6819462D4800F092FCB9
:1007B8004FF0FF33FB652EE07B6D08337B653B6DA7
:1007C80008333B65FA6CFB6AD31AFB64BA6CFB6AA4
:1007D8001344BB64BA6C7B6C9A4211D3BB6C642221
:1007E80003FB02F2FB69B2FBF3F1FB69BA6C1D482B
:1007F80000F06EFBFB699A087B6C134401337B6441
:10080800FFF766FDFB6C002B7FF45DAFFA69B96CEE
:10081800154800F05DFB00F007FD3B6B3B623B6A4F
:1008280083F3108800BFFB6D18466437BD46BDE8EA
:10083800F08F00BF9813000890190008C41300082F
:10084800E8130008003C0240F0130008F813000801
:100858000000020800000A08FC1300082814000819
:1008680048140008501400086C14000880B584B0BF
:1008780000AF78607B6899687B68DB681A464248F5
:1008880000F026FB7B689B6819464048FFF7B8FDD7
:10089800F8607B68DB68FA689A420DD07B68DB6891
:1008A8001A46F9683A4800F013FB7B6804225A603C
:1008B8007868FFF7B5FD64E0F968364800F008FB92
:1008C800354800F005FB7B689B681846FFF798FEE3
:1008D8000346002B09D0314800F0FAFA7B6804225D
:1008E8005A607868FFF79CFD4BE02D4800F0F0FA5D
:1008F8007B689B6819462B48FFF782FDF8607B6888
:10090800DB68FA689A4232D07B68DB681A46F96875
:10091800254800F0DDFA7B689B681846FFF770FEF3
:100928000346002B09D0214800F0D2FA7B68042244
:100938005A607868FFF774FD23E07B689B68194666
:100948001848FFF75DFDF8607B68DB68FA689A4233
:100958000DD07B68DB681A46F968154800F0B8FACC
:100968007B6804225A607868FFF75AFD09E0F96845
:10097800104800F0ADFA7B6802225A607868FFF7E9
:100988004FFD1037BD4680BD8C14000800000208DA
:10099800C0140008001500082015000848150008B4
:1009A8007015000800000A0890150008D415000802
:1009B800FC1500084016000880B483B000AF134B44
:1009C8001B687B60124B1B683B607B68B3F1005F60
:1009D80016D37B680F4A934212D87B68B3F1FF3F66
:1009E8000ED03B680C4A93420AD93B68B3F1016FB9
:1009F80006D23B6803F00103002B01D0012300E07D
:100A0800002318460C37BD4680BC704700000A0812
:100A180004000A0800000820FFFF090880B582B01A
:100A280000AF72B600BF084B1B687B607B6883F31E
:100A3800088800BF054B044A9A60054B1B68984715
:100A480000BF0837BD4680BD00000A0800ED00E081
:100A580004000A08B0B58AB000AF00237B6200F03A
:100A68003FF9554800F034FA5449554800F030FA37
:100A7800FFF774FC534B5B6903F00053002B01D163
:100A880001237B624F4B5B6903F00053002B01D0BD
:100A9800012100E000217B6A002B01D04A4B00E0D5
:100AA8004A4B1A464A4800F013FA4A4B3C1D1D4669
:100AB8000FCD0FC495E80F0084E80F007B68464A05
:100AC800934205D07B681946444800F001FA09E0D2
:100AD800BB681846FFF708FC0146FA683B694048BE
:100AE80000F0F6F97B683C4A934242D17B6A002BBE
:100AF8003FD0BB68042B27D0042B29D8032B15D053
:100B0800032B25D8022B0DD0022B21D8002B17D070
:100B1800012B1DD1334800F0DBF93B1D1846FFF7C8
:100B2800A5FE25E0304800F0D3F921E02F4800F079
:100B3800CFF90023BB603B1D1846FFF771FC17E097
:100B48002B4800F0C5F913E02A4800F0C1F90FE07E
:100B5800BB681946284800F0BBF90023BB60002396
:100B6800FB6000233B613B1D1846FFF759FC00BFA3
:100B780009E07B68184A934205D17B6A002B02D1B1
:100B88001E4800F0A5F9FFF717FF0346002B09D010
:100B98001B4B1B681B4A126819461B4800F098F942
:100BA800FFF73CFF164B1B68164A12681946174890
:100BB80000F08EF900BFFDE75C1600080024F40081
:100BC800A4160008003C0240E8160008F8160008C1
:100BD80004170008000009084F42554C1C1700086C
:100BE800481700087C170008A0170008D817000845
:100BF800FC17000818180008541800088C1800087A
:100C080000000A0804000A08CC180008FC180008AC
:100C180080B487B000AFF860B9607A60BB687B6168
:100C2800FB68DB43FB600EE07B695A1C7A611B782A
:100C38001A46FB685340DBB2094A52F82320FB6886
:100C48001B0A5340FB607B685A1E7A60002BEBD16D
:100C5800FB68DB4318461C37BD4680BC704700BFA5
:100C68009419000880B400AF034B20229A6100BF9A
:100C7800BD4680BC704700BF0000024080B400AF92
:100C8800034B4FF400129A6100BFBD4680BC704709
:100C98000000024080B483B000AF0346FB7100BF80
:100CA800064BDB6903F08003002BF9D0034AFB797C
:100CB800936200BF0C37BD4680BC70470078004087
:100CC80080B400AF00BF054BDB6903F04003002B85
:100CD800F9D000BF00BFBD4680BC70470078004017
:100CE80080B483B000AF394B1B78DBB2002B68D1DE
:100CF800364B01221A70364B1B6B354A43F02103E1
:100D08001363334B1B6C324A43F080431364304BFC
:100D18001B6B2F4B1B6C2F4B4FF400129A612D4B02
:100D28001B6823F440632B4A43F480631360294B08
:100D38005B68284A23F020035360264B9B68254AAA
:100D480043F440639360234BDB68224A23F44063F7
:100D5800D360214B1B6823F440431F4A43F40043EC
:100D680013601D4B5B681C4A23F0800353601A4BC9
:100D78009B68194A43F440439360174BDB68164A53
:100D880023F44043D360144B1B6A23F07043124A88
:100D980043F000431362114B00221A600F4B0022EC
:100DA8005A600E4B00229A608B237B600B4A7B684B
:100DB8009BB2D360094B1B68084A43F009031360D0
:100DC80000E000BF0C37BD4680BC7047E801022038
:100DD8000038024000000240001402400078004041
:100DE80080B582B000AF786006E07B685A1C7A60F4
:100DF8001B781846FFF74EFF7B681B78002BF4D151
:100E080000BF00BF0837BD4680BD80B58CB000AFBD
:100E1800F860B9607A603B600023FB62FB68BA68DF
:100E2800B3FBF2F2B96801FB02F29B1ABB62BB6A20
:100E3800092B04D8BB6ADBB23033DAB20BE0BB6BE8
:100E4800002B01D0412200E06122BB6ADBB21344CF
:100E5800DBB20A3BDAB2FB6A591CF96230333B4415
:100E680003F8202CFA68BB68B2FBF3F3FB60FB685D
:100E7800002B11D0FB6A172BD0DD0DE03B68002B4F
:100E880001D0302100E02021FB6A5A1CFA6230337D
:100E98003B440A4603F8202CFA6A7B689A420EDA29
:100EA800FB6A172BEADD0AE0FB6A013BFB6207F1EC
:100EB8001002FB6A13441B781846FFF7EBFEFB6A27
:100EC800002BF1DC00BF00BF3037BD4680BD0000FD
:100ED8000FB480B588B002AF7B4B1B78DBB2002B18
:100EE80000F0EA8007F124033B60784B40221A6245
:100EF800FFF7B8FE3B6A7B61D4E07B691B78252B42
:100F08000CD07B691B780A2B02D10D20FFF7C2FE9B
:100F18007B691B781846FFF7BDFEC0E000233B61E4
:100F28000023FB607B6901337B617B691B78302B75
:100F380013D101233B617B6901337B610DE0FA68C2
:100F480013469B0013445B001A467B691B78303BB1
:100F58001344FB607B6901337B617B691B782F2B12
:100F680007D97B691B78392BE9D902E07B69013302
:100F78007B617B691B786C2BF8D07B691B784C2BC9
:100F8800F4D07B691B78782B55D0782B7EDC752BB9
:100F980045D0752B7ADC732B16D0732B76DC702B2F
:100FA80061D0702B72DC692B1FD0692B6EDC642B2F
:100FB8001BD0642B6ADC632B0ED0632B66DC252BDD
:100FC80060D0582B43D061E03B681A1D3A601B681B
:100FD8001846FFF705FF62E03B681A1D3A601B6878
:100FE800DBB21846FFF756FE59E03B681A1D3A6017
:100FF8001B687B607B68002B06DA2D20FFF74AFE12
:101008007B685B42BB6001E07B68BB6000230093A8
:101018003B69FA680A21B868FFF7F7FE3FE03B68CA
:101028001A1D3A601868002300933B69FA680A2180
:10103800FFF7EBFE33E03B681A1D3A60186800239F
:1010480000933B69FA681021FFF7DFFE27E03B6851
:101058001A1D3A601868012300933B69FA68102149
:10106800FFF7D3FE1BE01A48FFF7BAFE3B681A1DCC
:101078003A60186801230093012308221021FFF722
:10108800C4FE0CE02520FFF705FE08E02520FFF749
:1010980001FE7B691B781846FFF7FCFD00BF7B69E2
:1010A80001337B617B691B78002B7FF426AFFFF748
:1010B80007FEFFF7E3FD00E000BF1837BD46BDE8B7
:1010C800804004B0704700BFE8010220007800406B
:1010D8003419000880B582B000AF786039603A688A
:1010E80079682148FFF7F4FE3B6803F00203002B00
:1010F80002D01E48FFF7ECFE3B6803F01003002BFC
:1011080002D01B48FFF7E4FE3B6803F02003002BE6
:1011180002D01848FFF7DCFE3B6803F04003002BC1
:1011280002D01548FFF7D4FE3B6803F08003002B7C
:1011380002D01248FFF7CCFE3B6803F48033002B43
:1011480002D00F48FFF7C4FE3B6803F0F203002B00
:1011580002D10C48FFF7BCFE0B48FFF7B9FE00BFF1
:101168000837BD4680BD00BF38190008501900086F
:101178005819000860190008681900087019000853
:1011880078190008801900088C19000880B400AF8D
:10119800054BD3F88830044A43F47003C2F888300A
:1011A80000BFBD4680BC704700ED00E070B50D4B38
:1011B8000D4C00261D1BB6EBA50F09D100F01AF83F
:1011C8000A4C0B4B00261D1BB6EBA50F05D170BDB5
:1011D80054F8043B98470136EDE754F8043B984728
:1011E8000136F1E7941D0008941D0008941D0008BD
:1011F800981D0008F8B500BFF8BC08BC9E467047AB
:10120800F8B500BFF8BC08BC9E4670470000000057
:101218005FF800F0F90002205FF800F041010220B9
:101228005FF800F0390002205FF800F06500022046
:081238005FF800F02100022024
:101240004E4F4E452830290050454E44494E4728C0
:1012500031290000444F4E4528322900434F4E4665
:1012600049524D4544283329000000004641494C6D
:101270004544283429000000554E4B4E4F574E0030
:101280005B424F4F545D20525354204353523D30E4
:101290007825303858202D3E00000000204C505753
:1012A000520000002057574447000000204957448F
:1012B00047000000205346540000000020504F52C9
:1012C000000000002050494E000000000A0000000D
:1012D0005B424F4F545D207772697465206D657471
:1012E000613A2065726173652053313628736E62EE
:1012F00032302920403078253038580A000000006C
:101300006D657461206572617365206661696C004A
:101310005B424F4F545D206D6574612070726F6742
:10132000206661696C20403078253038580A00000A
:101330006D6574612070726F670000005B424F4FF3
:10134000545D207772697465206D657461204F4B20
:10135000202D3E2073746174653D2573206C656E8D
:101360003D2575206372633D3078253038580A007A
:101370005B424F4F545D207772697465206D6574D0
:1013800061204641494C4544202873746174653D91
:101390002573290A000000005B424F4F545D204531
:1013A0005252206275726E5F6170703A20626164A1
:1013B000206C656E3D257520286D61782025752986
:1013C0000A0000005B424F4F545D206572617365F7
:1013D00020417070205325752028736E623D25755D
:1013E00029202E2E2E2000004641494C0A000000E4
:1013F00065726173650000006F6B0A005B424F4FBE
:10140000545D206275726E202575423A2066775FC2
:101410006120307825303858202D3E2041707020D2
:101420003078253038580A005B424F4F545D2045D4
:1014300052522070726F67206661696C204030786C
:10144000253038580A00000070726F6700000000F5
:101450005B424F4F545D2020206275726E202575CF
:101460002525202825752F2575290A005B424F4F19
:10147000545D206275726E20313030252520646FF6
:101480006E65202825752F2575290A005B424F4F70
:10149000545D2073746570313A207665726966799F
:1014A0002066775F612043524320286C656E3D259E
:1014B000752C206578703D307825303858290A0021
:1014C0005B424F4F545D204552522066775F61204A
:1014D000435243206D69736D617463682061637466
:1014E0003D307825303858206578703D307825308B
:1014F0003858202D3E204641494C45440A00000002
:101500005B424F4F545D2066775F6120435243201A
:101510004F4B2028307825303858290A0000000029
:101520005B424F4F545D2073746570323A20657290
:10153000617365204170702042616E6B32202B20F8
:101540006275726E0A0000005B424F4F545D204589
:101550005252206275726E5F617070206661696CB4
:101560006564202D3E204641494C45440A00000058
:101570005B424F4F545D2073746570333A2076653B
:101580007269667920417070204352430A0000005E
:101590005B424F4F545D205741524E2041707020A6
:1015A000435243206D69736D617463682061637495
:1015B0003D307825303858206578703D30782530BA
:1015C0003858202D3E207265747279206275726ED3
:1015D0000A0000005B424F4F545D2045525220727A
:1015E00065747279206275726E206661696C6564DB
:1015F000202D3E204641494C45440A005B424F4F56
:10160000545D204552522041707020435243207354
:1016100074696C6C206D69736D61746368206163BB
:10162000743D307825303858206578703D30782505
:10163000303858202D3E204641494C45440A000090
:101640005B424F4F545D2041707020435243204F06
:101650004B2028307825303858290A000A5B424F41
:101660004F545D203D3D2053656E736F72436F6E26
:1016700063656E747261746F7220426F6F746C6F09
:10168000616465722028463736375A475436203110
:101690004D422C206475616C2D62616E6B29203D7A
:1016A0003D0A00005B424F4F545D20756172743AF1
:1016B0002044454255472D43483120554152543727
:1016C000205046372F44453D504135203131353289
:1016D000303020384E31202850434C4B313D257559
:1016E000487A290A000000006475616C2D62616E01
:1016F0006B20284F4B29000053494E474C452D6223
:10170000616E6B005B424F4F545D206E4442414E10
:101710004B3D2575202D3E2025730A005B424F4F1F
:10172000545D206D6574613A206E6F206D6167694C
:10173000632028307825303858292C20736B697045
:10174000204F54410A0000005B424F4F545D206D12
:101750006574613A206D616769633D4F4B20737416
:101760006174653D2573206C656E3D25752063723F
:10177000633D3078253038580A0000005B424F4FF7
:10178000545D202D3E2050454E44494E472C207339
:1017900074617274207570646174650A00000000E1
:1017A0005B424F4F545D202D3E20444F4E452062FA
:1017B000757420417070206E6F7420636F6E66695F
:1017C000726D6564207965742C207265747279205D
:1017D0006A756D700A0000005B424F4F545D202D0A
:1017E0003E20434F4E4649524D45442C20636C6584
:1017F000617220746F204E4F4E450A005B424F4F7E
:10180000545D202D3E204E4F4E452C206E6F20758E
:1018100070646174650A00005B424F4F545D202D77
:101820003E204641494C454420286C617374207524
:101830007064617465206661696C6564292C20623E
:101840006F6F74206578697374696E67204170707A
:101850000A0000005B424F4F545D202D3E20756E04
:101860006B6E6F776E2073746174653D25752C20E7
:1018700073616E6974697A6520746F204E4F4E45AE
:10188000202620626F6F740A000000005B424F4FF9
:10189000545D204552522073696E676C652D6261FC
:1018A0006E6B3A2072656675736520616C6C20669C
:1018B0006C617368207772697465732C206A756D2A
:1018C0007020417070206F6E6C790A005B424F4F40
:1018D000545D206170702076616C69643A205350C9
:1018E0003D3078253038582050433D307825303809
:1018F00058202D3E204A554D500A00005B424F4F64
:10190000545D20455252206E6F2076616C696420D0
:10191000417070202853503D307825303858205081
:10192000433D30782530385829202D3E2048414C01
:10193000540A0000307800005B424F4F545D202570
:10194000733A2053523D307825303858202D3E00D0
:10195000204F5045525200002057525045525200DD
:1019600020504741455252002050475045525200A6
:101970002045525345525200204253590000000066
:10198000206E6F2D6572726F720000000A000000F9
:101990001516170000000000963007772C610EEE38
:1019A000BA51099919C46D078FF46A7035A563E9B6
:1019B000A395649E3288DB0EA4B8DC791EE9D5E0DD
:1019C00088D9D2972B4CB609BD7CB17E072DB8E7DC
:1019D000911DBF906410B71DF220B06A4871B9F331
:1019E000DE41BE847DD4DA1AEBE4DD6D51B5D4F46A
:1019F000C785D38356986C13C0A86B647AF962FDCF
:101A0000ECC9658A4F5C0114D96C0663633D0FFA1B
:101A1000F50D088DC8206E3B5E10694CE44160D521
:101A2000727167A2D1E4033C47D4044BFD850DD20B
:101A30006BB50AA5FAA8B5356C98B242D6C9BBDB1E
:101A400040F9BCACE36CD832755CDF45CF0DD6DC19
:101A5000593DD1ABAC30D9263A00DE518051D7C8C0
:101A60001661D0BFB5F4B42123C4B3569995BACF4B
:101A70000FA5BDB89EB802280888055FB2D90CC66C
:101A800024E90BB1877C6F2F114C6858AB1D61C1E5
:101A90003D2D66B69041DC760671DB01BC20D29804
:101AA0002A10D5EF8985B1711FB5B606A5E4BF9F91
:101AB00033D4B8E8A2C9077834F9000F8EA8099684
:101AC00018980EE1BB0D6A7F2D3D6D08976C6491EF
:101AD000015C63E6F4516B6B62616C1CD830658508
:101AE0004E0062F2ED95066C7BA5011BC1F40882E5
:101AF00057C40FF5C6D9B06550E9B712EAB8BE8B26
:101B00007C88B9FCDF1DDD62492DDA15F37CD38CAE
:101B1000654CD4FB5861B24DCE51B53A7400BCA3AC
:101B2000E230BBD441A5DF4AD795D83D6DC4D1A4DE
:101B3000FBF4D6D36AE96943FCD96E34468867ADB5
:101B4000D0B860DA732D0444E51D03335F4C0AAA54
:101B5000C97C0DDD3C710550AA41022710100BBE57
:101B600086200CC925B56857B3856F2009D466B99E
:101B70009FE461CE0EF9DE5E98C9D9292298D0B0D3
:101B8000B4A8D7C7173DB359810DB42E3B5CBDB780
:101B9000AD6CBAC02083B8EDB6B3BF9A0CE2B60301
:101BA0009AD2B1743947D5EAAF77D29D1526DB04B6
:101BB0008316DC73120B63E3843B64943E6A6D0D01
:101BC000A85A6A7A0BCF0EE49DFF099327AE000A4C
:101BD000B19E077D44930FF0D2A3088768F2011EDF
:101BE000FEC206695D5762F7CB67658071366C1976
:101BF000E7066B6E761BD4FEE02BD3895A7ADA1097
:101C0000CC4ADD676FDFB9F9F9EFBE8E43BEB71777
:101C1000D58EB060E8A3D6D67E93D1A1C4C2D83801
:101C200052F2DF4FF167BBD16757BCA6DD06B53F67
:101C30004B36B248DA2B0DD84C1B0AAFF64A0336A6
:101C4000607A0441C3EF60DF55DF67A8EF8E6E3125
:101C500079BE69468CB361CB1A8366BCA0D26F256E
:101C600036E2685295770CCC03470BBBB9160222BB
:101C70002F260555BE3BBAC5280BBDB2925AB42BD0
:101C8000046AB35CA7FFD7C231CFD0B58B9ED92CE5
:101C90001DAEDE5BB0C2649B26F263EC9CA36A754A
:101CA0000A936D02A906099C3F360EEB8567077201
:101CB00013570005824ABF95147AB8E2AE2BB17B68
:101CC000381BB60C9B8ED2920DBED5E5B7EFDC7CEF
:101CD00021DFDB0BD4D2D38642E2D4F1F8B3DD6846
:101CE0006E83DA1FCD16BE815B26B9F6E177B06F41
:101CF0007747B718E65A0888706A0FFFCA3B06662E
:101D00005C0B0111FF9E658F69AE62F8D3FF6B61BA
:101D100045CF6C1678E20AA0EED20DD75483044E5C
:101D2000C2B30339612667A7F71660D04D476949EA
:101D3000DB776E3E4A6AD1AEDC5AD6D9660BDF40FD
:101D4000F03BD83753AEBCA9C59EBBDE7FCFB247B0
:101D5000E9FFB5301CF2BDBD8AC2BACA3093B35395
:101D6000A6A3B4240536D0BA9306D7CD2957DE549E
:101D7000BF67D9232E7A66B3B84A61C4021B685D77
:101D8000942B6F2A37BE0BB4A18E0CC31BDF055AF0
:041D90008DEF022DA4
:041D940061020008E0
:041D98003902000804
:101D9C0080B400AF00BF054BDB6803F48033002B2D
:101DAC00F9D100BF00BFBD4680BC7047003C02406B
:101DBC0080B400AF034BF322DA6000BFBD4680BC99
:101DCC00704700BF003C024080B400AF064B1B695B
:101DDC00002B05DA044B054A5A60034B044A5A603F
:101DEC0000BFBD4680BC7047003C024023016745E4
:101DFC00AB89EFCD80B400AF044B1B69034A43F0B1
:101E0C000043136100BFBD4680BC7047003C0240DC
:101E1C0080B582B000AF78603960FFF7B9FFFFF78B
:101E2C00C7FF184B1B69174A23F440731361154BFA
:101E3C001B69144A43F400731361124B1B69114A5A
:101E4C0043F0010313617B683A681A60BFF34F8F4C
:101E5C0000BFFFF79DFF0B4B1B690A4A23F00103E0
:101E6C001361084BDB6803F0F203002B04D1054B24
:101E7C000122DA60002301E04FF0FF3318460837E7
:101E8C00BD4680BD003C024090B587B000AFF86005
:101E9C00C7E900233B681946F868FFF7B9FF78617A
:101EAC007B69002B0FD1FB681C1DD7E900014FF09B
:101EBC0000024FF000030A00002313461946204687
:101ECC00FFF7A6FF78617B6918461C37BD4690BDAD
:101EDC0080B582B000AF7860FFF75AFF1E4B1B69CC
:101EEC001D4A23F4407313611B4B1B691A4A43F4BC
:101EFC0040731361184B1B69174A23F0F8031361E5
:101F0C00154B1A697B68DB00DBB21343124A43F0B2
:101F1C0002031361104B1B690F4A43F480331361A6
:101F2C00BFF34F8F00BFFFF733FF0B4B1B690A4A00
:101F3C0023F0FA031361084BDB6803F0F203002B68
:101F4C0004D1054B0122DA60002301E04FF0FF338E
:0C1F5C0018460837BD4680BD003C02401E
:040000050800028568
:00000001FF
