:020000040800F2
:100000000000082085020008D5020008D50200087B
:10001000D5020008D5020008D50200080000000043
:10002000000000000000000000000000D5020008F1
:10003000D502000800000000D5020008D502000823
:10004000D5020008D5020008D5020008D502000834
:10005000D5020008D5020008D5020008D502000824
:10006000D5020008D5020008D5020008D502000814
:10007000D5020008D5020008D5020008D502000804
:10008000D5020008D5020008D5020008D5020008F4
:10009000D5020008D5020008D5020008D5020008E4
:1000A000D5020008D5020008D5020008D5020008D4
:1000B000D5020008D5020008D5020008D5020008C4
:1000C000D5020008D5020008D5020008D5020008B4
:1000D000D5020008D5020008D5020008D5020008A4
:1000E000D5020008D5020008D5020008D502000894
:1000F000D5020008D5020008D5020008D502000884
:10010000D5020008D5020008D5020008D502000873
:10011000D5020008D5020008D5020008D502000863
:10012000D5020008D5020008D5020008D502000853
:10013000D5020008D5020008D5020008D502000843
:10014000D5020008D5020008D5020008D502000833
:10015000D5020008D5020008D5020008D502000823
:10016000D5020008D5020008D5020008D502000813
:10017000D5020008D5020008D502000800000000E2
:10018000D5020008D5020008D5020008D5020008F3
:10019000D5020008D5020008D5020008D5020008E3
:1001A000D5020008D5020008D5020008D5020008D3
:1001B000D5020008D5020008D5020008D5020008C3
:1001C000D5020008D502000800000000D502000892
:1001D000D5020008D5020008D5020008D5020008A3
:1001E000D5020008D5020008D5020008D502000893
:0801F000D5020008D502000849
:1001F8000348044B834202D0034B03B118477047AE
:10020800CC010220CC010220000000000548064B6A
:100218001B1AD90F01EBA301491002D0034B03B1FC
:1002280018477047CC010220CC01022000000000D2
:1002380010B5064C237843B9FFF7DAFF044B13B126
:100248000448AFF300800123237010BDCC010220C5
:1002580000000000A008000808B5054B1BB10549BF
:100268000548AFF30080BDE80840FFF7CFBF00BFE7
:1002780000000000D0010220A0080008DFF834D0F8
:1002880000F0D6FA0C480D490D4A002302E0D45874
:10029800C4500433C4188C42F9D30A4A0A4C0023C8
:1002A80001E013600432A242FBD300F0D1FA00F05F
:1002B8004FFA70470000082000000220CC010220FD
:1002C800EC0C0008CC010220E8010220FEE7000047
:1002D80080B400AF034B4AF6AA221A6000BFBD469D
:1002E80080BC70470030004080B582B000AF7860B5
:1002F80039607B683A681946002000F06FFA0346B7
:1003080018460837BD4680BD2DE9F04F95B000AFBF
:10031800F861EFF31083BB62BB6A7B630023FB6465
:1003280072B600BF00F0D4FA00F0CEFA142000F044
:10033800BFFA0346002B03D04FF0FF33FB6481E084
:10034800FB693B63464BFB620023BB6476E04FF0DE
:10035800FF324FF0FF33C7E91023BB6C193B072B63
:1003680004D8BB6CC3F12003FB6301E00823FB63E3
:100378000023BB634CE0BB6BDE004FF0FF024FF085
:100388000003A6F12001C6F1200003FA06F902FADB
:1003980001F149EA010922FA00F049EA000902FAE2
:1003A80006F86FEA08033B616FEA09037B61D7E946
:1003B800102339691140B96079690B40FB60BA6C48
:1003C800BB6B13443A6B13441B78DBB200229A468A
:1003D8009346BB6BDB00A3F12001C3F120020BFAAB
:1003E80003F50AFA01F10D432AFA02F215430AFA53
:1003F80003F4D7E902120B4623433B6013462B4311
:100408007B60D7E90023C7E91023BB6B0133BB63CB
:10041800BA6BFB6B9A42AED3FA6ABB6CD118D7E9B8
:100428001023084600F04CFA0346002B03D04FF087
:10043800FF33FB6406E0BB6C0833BB64BB6C1F2B4B
:1004480085D900BF00F038FA7B6B7B627B6A83F347
:10045800108800BFFB6C18465437BD46BDE8F08FC6
:10046800000009082DE9F04F97B000AFF861FB696B
:10047800002B03D0FB69B3F5C02F02D94FF0FF332F
:10048800AEE0EFF310837B627B6A3B6300237B65FE
:1004980072B600BF00F01CFA00F016FA00233B65A4
:1004A80010E0524A3B6D13441B78184600F000FADE
:1004B8000346002B03D04FF0FF337B6587E03B6D8D
:1004C80001333B653B6D022BEBDD494BFB64494B2C
:1004D800BB64FB697B6476E04FF0FF324FF0FF337B
:1004E800C7E90E237B6C082B28BF0823FB62FB6C33
:1004F800BB6200237B634AE07B6BDE004FF0FF02A8
:100508004FF00003A6F12001C6F1200003FA06F916
:1005180002FA01F149EA010922FA00F049EA000960
:1005280002FA06F86FEA08033B616FEA09037B6188
:10053800D7E90E2339691140B96079690B40FB602E
:10054800BA6A7B6B13441B78DBB200229A46934647
:100558007B6BDB00A3F12001C3F120020BFA03F54A
:100568000AFA01F10D432AFA02F215430AFA03F4D2
:10057800D7E902120B4623433B6013462B437B60AB
:10058800D7E90023C7E90E237B6B01337B637A6BC2
:10059800FB6A9A42B0D3D7E90E23B86C00F090F901
:1005A8000346002B03D04FF0FF337B650FE0FB6C55
:1005B8000833FB64BB6C0833BB647A6CFB6AD31AE0
:1005C8007B64FFF785FE7B6C002B85D100BF00F0B4
:1005D80073F93B6B3B623B6A83F3108800BF7B6D0A
:1005E80018465C37BD46BDE8F08F00BFE00800083C
:1005F8000000020800000A0880B582B000AF7860E9
:100608007B689B6819462948FFF76EFE02467B689F
:10061800DB689A4206D07B6804225A607868FFF744
:1006280073FE40E07B689B681846FFF71BFF034694
:10063800002B06D07B6804225A607868FFF764FEB6
:1006480031E07B689B6819461948FFF74DFE024662
:100658007B68DB689A4220D07B689B681846FFF766
:1006680001FF0346002B06D07B6804225A60786895
:10067800FFF74AFE17E07B689B6819460C48FFF7AE
:1006880033FE02467B68DB689A4206D07B68042208
:100698005A607868FFF738FE05E07B6802225A60E6
:1006A8007868FFF731FE0837BD4680BD00000208B4
:1006B80000000A0880B483B000AF134B1B687B604E
:1006C800124B1B683B607B68B3F1005F16D37B68F5
:1006D8000F4A934212D87B68B3F1FF3F0ED03B68B4
:1006E8000C4A93420AD93B68B3F1016F06D23B68C2
:1006F80003F00103002B01D0012300E0002318467A
:100708000C37BD4680BC704700000A0804000A0880
:1007180000000820FFFF090880B582B000AF72B65C
:1007280000BF084B1B687B607B6883F3088800BFA9
:10073800054B044A9A60054B1B68984700BF083769
:10074800BD4680BD00000A0800ED00E004000A086C
:10075800B0B58AB000AF00237B621D4B5B6903F024
:100768000053002B01D101237B621A4B3C1D1D460F
:100778000FCD0FC495E80F0084E80F007B68164A78
:1007880093421BD17B6A002B18D0BB68032B0BD07C
:10079800032B10D8012B02D0022B0ED00BE03B1DEF
:1007A8001846FFF729FF09E00023BB603B1D1846E8
:1007B800FFF7AAFD02E000BF00E000BFFFF77AFFE5
:1007C8000346002B01D0FFF7A7FF00BFFDE700BFDE
:1007D800003C0240000009084F42554C80B487B0E5
:1007E80000AFF860B9607A60BB687B61FB68DB4387
:1007F800FB600EE07B695A1C7A611B781A46FB681D
:100808005340DBB2094A52F82320FB681B0A5340C5
:10081800FB607B685A1E7A60002BEBD1FB68DB43D8
:1008280018461C37BD4680BC704700BFE408000866
:1008380080B400AF054BD3F88830044A43F4700302
:10084800C2F8883000BFBD4680BC704700ED00E0AC
:1008580070B50D4B0D4C00261D1BB6EBA50F09D12D
:1008680000F01AF80A4C0B4B00261D1BB6EBA50F1F
:1008780005D170BD54F8043B98470136EDE754F8AC
:10088800043B98470136F1E7E40C0008E40C000843
:10089800E40C0008E80C0008F8B500BFF8BC08BC78
:1008A8009E467047F8B500BFF8BC08BC9E46704726
:1008B8005FF800F0410102205FF800F065000220B7
:1008C8005FF800F0F90002205FF800F02100022034
:0808D8005FF800F03900022076
:1008E0001516170000000000963007772C610EEEF9
:1008F000BA51099919C46D078FF46A7035A563E977
:10090000A395649E3288DB0EA4B8DC791EE9D5E09D
:1009100088D9D2972B4CB609BD7CB17E072DB8E79C
:10092000911DBF906410B71DF220B06A4871B9F3F1
:10093000DE41BE847DD4DA1AEBE4DD6D51B5D4F42A
:10094000C785D38356986C13C0A86B647AF962FD8F
:10095000ECC9658A4F5C0114D96C0663633D0FFADC
:10096000F50D088DC8206E3B5E10694CE44160D5E2
:10097000727167A2D1E4033C47D4044BFD850DD2CC
:100980006BB50AA5FAA8B5356C98B242D6C9BBDBDF
:1009900040F9BCACE36CD832755CDF45CF0DD6DCDA
:1009A000593DD1ABAC30D9263A00DE518051D7C881
:1009B0001661D0BFB5F4B42123C4B3569995BACF0C
:1009C0000FA5BDB89EB802280888055FB2D90CC62D
:1009D00024E90BB1877C6F2F114C6858AB1D61C1A6
:1009E0003D2D66B69041DC760671DB01BC20D298C5
:1009F0002A10D5EF8985B1711FB5B606A5E4BF9F52
:100A000033D4B8E8A2C9077834F9000F8EA8099644
:100A100018980EE1BB0D6A7F2D3D6D08976C6491AF
:100A2000015C63E6F4516B6B62616C1CD8306585C8
:100A30004E0062F2ED95066C7BA5011BC1F40882A5
:100A400057C40FF5C6D9B06550E9B712EAB8BE8BE6
:100A50007C88B9FCDF1DDD62492DDA15F37CD38C6F
:100A6000654CD4FB5861B24DCE51B53A7400BCA36D
:100A7000E230BBD441A5DF4AD795D83D6DC4D1A49F
:100A8000FBF4D6D36AE96943FCD96E34468867AD76
:100A9000D0B860DA732D0444E51D03335F4C0AAA15
:100AA000C97C0DDD3C710550AA41022710100BBE18
:100AB00086200CC925B56857B3856F2009D466B95F
:100AC0009FE461CE0EF9DE5E98C9D9292298D0B094
:100AD000B4A8D7C7173DB359810DB42E3B5CBDB741
:100AE000AD6CBAC02083B8EDB6B3BF9A0CE2B603C2
:100AF0009AD2B1743947D5EAAF77D29D1526DB0477
:100B00008316DC73120B63E3843B64943E6A6D0DC1
:100B1000A85A6A7A0BCF0EE49DFF099327AE000A0C
:100B2000B19E077D44930FF0D2A3088768F2011E9F
:100B3000FEC206695D5762F7CB67658071366C1936
:100B4000E7066B6E761BD4FEE02BD3895A7ADA1057
:100B5000CC4ADD676FDFB9F9F9EFBE8E43BEB71738
:100B6000D58EB060E8A3D6D67E93D1A1C4C2D838C2
:100B700052F2DF4FF167BBD16757BCA6DD06B53F28
:100B80004B36B248DA2B0DD84C1B0AAFF64A033667
:100B9000607A0441C3EF60DF55DF67A8EF8E6E31E6
:100BA00079BE69468CB361CB1A8366BCA0D26F252F
:100BB00036E2685295770CCC03470BBBB91602227C
:100BC0002F260555BE3BBAC5280BBDB2925AB42B91
:100BD000046AB35CA7FFD7C231CFD0B58B9ED92CA6
:100BE0001DAEDE5BB0C2649B26F263EC9CA36A750B
:100BF0000A936D02A906099C3F360EEB85670772C2
:100C000013570005824ABF95147AB8E2AE2BB17B28
:100C1000381BB60C9B8ED2920DBED5E5B7EFDC7CAF
:100C200021DFDB0BD4D2D38642E2D4F1F8B3DD6806
:100C30006E83DA1FCD16BE815B26B9F6E177B06F01
:100C40007747B718E65A0888706A0FFFCA3B0666EE
:100C50005C0B0111FF9E658F69AE62F8D3FF6B617B
:100C600045CF6C1678E20AA0EED20DD75483044E1D
:100C7000C2B30339612667A7F71660D04D476949AB
:100C8000DB776E3E4A6AD1AEDC5AD6D9660BDF40BE
:100C9000F03BD83753AEBCA9C59EBBDE7FCFB24771
:100CA000E9FFB5301CF2BDBD8AC2BACA3093B35356
:100CB000A6A3B4240536D0BA9306D7CD2957DE545F
:100CC000BF67D9232E7A66B3B84A61C4021B685D38
:100CD000942B6F2A37BE0BB4A18E0CC31BDF055AB1
:040CE0008DEF022D65
:040CE40061020008A1
:040CE80039020008C5
:100CEC0080B400AF00BF054BDB6803F48033002BEE
:100CFC00F9D100BF00BFBD4680BC7047003C02402C
:100D0C0080B400AF034BF322DA6000BFBD4680BC59
:100D1C00704700BF003C024080B400AF064B1B691B
:100D2C00002B05DA044B054A5A60034B044A5A60FF
:100D3C0000BFBD4680BC7047003C024023016745A4
:100D4C00AB89EFCD80B400AF044B1B69034A43F071
:100D5C000043136100BFBD4680BC7047003C02409D
:100D6C0080B582B000AF78603960FFF7B9FFFFF74C
:100D7C00C7FF184B1B69174A23F440731361154BBB
:100D8C001B69144A43F400731361124B1B69114A1B
:100D9C0043F0010313617B683A681A60BFF34F8F0D
:100DAC0000BFFFF79DFF0B4B1B690A4A23F00103A1
:100DBC001361084BDB6803F0F203002B04D1054BE5
:100DCC000122DA60002301E04FF0FF3318460837A8
:100DDC00BD4680BD003C024090B587B000AFF860C6
:100DEC00C7E900233B681946F868FFF7B9FF78613B
:100DFC007B69002B0FD1FB681C1DD7E900014FF05C
:100E0C0000024FF000030A00002313461946204647
:100E1C00FFF7A6FF78617B6918461C37BD4690BD6D
:100E2C0080B582B000AF7860FFF75AFF1E4B1B698C
:100E3C001D4A23F4407313611B4B1B691A4A43F47C
:100E4C0040731361184B1B69174A23F0F8031361A5
:100E5C00154B1A697B68DB00DBB21343124A43F073
:100E6C0002031361104B1B690F4A43F48033136167
:100E7C00BFF34F8F00BFFFF733FF0B4B1B690A4AC1
:100E8C0023F0FA031361084BDB6803F0F203002B29
:100E9C0004D1054B0122DA60002301E04FF0FF334F
:0C0EAC0018460837BD4680BD003C0240DF
:040000050800028568
:00000001FF
