:020000040800F2
:1000000000000824D90200082D030008A5050008F7
:100010002D0300082D0300082D0300080000000038
:100020000000000000000000000000002D03000898
:100030002D030008000000002D03000891050008B2
:100040002D0300082D0300082D0300082D030008D0
:100050002D0300082D0300082D0300082D030008C0
:100060002D0300082D0300082D0300082D030008B0
:100070002D0300082D0300082D0300082D030008A0
:100080002D0300082D0300082D0300082D03000890
:100090002D0300082D0300082D0300082D03000880
:1000A0002D0300082D0300082D0300082D03000870
:1000B0002D0300082D0300082D0300082D03000860
:1000C0002D0300082D0300082D0300082D03000850
:1000D0002D0300082D0300082D0300082D03000840
:1000E0002D0300082D030008000000002D03000868
:1000F0002D0300082D0300082D0300082D03000820
:100100002D0300082D0300082D0300082D0300080F
:100110002D0300082D0300082D0300082D030008FF
:100120002D0300082D0300082D0300082D030008EF
:100130002D0300082D0300082D0300082D030008DF
:1001400000000000000000000000000000000000AF
:100150002D0300082D0300082D0300082D030008BF
:100160002D0300082D0300082D0300082D030008AF
:100170002D0300082D0300082D03000800000000D7
:100180002D0300082D0300082D0300082D0300088F
:100190002D0300082D0300082D0300082D0300087F
:1001A0002D0300082D0300082D0300082D0300086F
:1001B0002D0300082D0300082D0300082D0300085F
:1001C0002D0300082D0300082D0300082D0300084F
:1001D0002D0300082D0300082D0300082D0300083F
:1001E0002D0300082D0300082D0300082D0300082F
:1001F0002D0300082D0300082D0300082D0300081F
:100200002D0300082D0300082D0300082D0300080E
:100210002D0300082D0300082D0300082D030008FE
:100220002D0300082D0300082D0300080000000026
:100230002D0300082D030008000000002D03000816
:100240002D0300082D0300082D0300082D030008CE
:100250002D0300082D0300082D0300082D030008BE
:100260002D0300082D0300082D0300082D030008AE
:100270002D0300082D0300082D03000800000000D6
:100280002D0300082D0300082D03000800000000C6
:08029000000000002D0300082E
:1002980010B5054C237833B9044B13B10448AFF3B8
:1002A80000800123237010BD10000024000000000E
:1002B8009C45000808B5034B1BB103490348AFF33D
:1002C800008008BD00000000140000249C450008C0
:1002D800DFF838D001F08AF901F0E8F80C480D4948
:1002E8000D4A002302E0D458C4500433C4188C4289
:1002F800F9D30A4A0A4C002301E013600432A242EF
:10030800FBD304F015F900F0B5FD70470000082490
:100318000000002410000024004D000810000024F4
:10032800B8020024FEE780B5B0B000AF3B46C0225B
:100338000021184604F0F3F84FF480524FF0000300
:10034800C7E900230823BB626423FB6208233B63DD
:1003580004237B630423BB634FF40063FB63002324
:100368003B6400237B644FF400533B663B461846CE
:1003780001F068FC00BFC037BD4680BD80B400AF47
:10038800044B4AF6AA221A6000BFBD465DF8047BFA
:10039800704700BF0048005880B400AF00BFBD469A
:1003A8005DF8047B7047000080B400AF244B5B6DA0
:1003B80023F00703224A43F003035365204BD3F885
:1003C800E0301F4A43F00803C2F8E0301C4BD3F872
:1003D800E8301B4A43F40033C2F8E830194B1B6875
:1003E80023F44063174A43F400631360154B5B68BA
:1003F800144A23F020035360124B9B68114A43F4BC
:10040800406393600F4BDB680E4A43F48063D3600C
:100418000C4B1B6A23F470030A4A43F4E00313628B
:10042800094B00221A60084B40F22B22DA60064B77
:1004380009221A6000BFBD465DF8047B704700BF03
:1004480000440258000C02580044004080B483B0B5
:1004580000AF0346FB7100BF074BDB6903F0800365
:10046800002BF9D0044AFB79936200BF0C37BD46D4
:100478005DF8047B704700BF0044004080B582B03F
:1004880000AF786006E07B685A1C7A601B781846D3
:10049800FFF7DCFF7B681B78002BF4D100BF00BF9F
:1004A8000837BD4680BD000080B586B000AF7860D3
:1004B800396000237B6113E07B699B007A6822FA2C
:1004C80003F303F00F023B68591E7B69CB1A0E49F0
:1004D8008A5C18333B4403F8102C7B6901337B6139
:1004E8007A693B689A42E7DB07F108023B681344E4
:1004F80000221A7007F108031846FFF7BFFF00BF74
:100508001837BD4680BD00BFD448000880B586B006
:1005180000AF786000237B617B68002B1DD1302001
:10052800FFF794FF2BE07968164BA3FB0123DA0849
:1005380013469B0013445B00CA1AD2B27B69591C4C
:1005480079613032D2B218333B4403F8102C7B68FF
:100558000C4AA2FB0323DB087B607B68002BE2D1FB
:100568000AE07B69013B7B6107F108027B69134460
:100578001B781846FFF76AFF7B69002BF1D1183703
:10058800BD4680BDCDCCCCCC80B500AF01F0B8F86D
:1005980000BF80BD80B400AF00BFFDE780B586B066
:1005A80000AFEFF308837B607B687B617B693B610D
:1005B8003B695B69FB60FB6803F01003002B02D00A
:1005C8003B699B6902E07B6960331B68BB6020481C
:1005D800FFF754FF1F48FFF751FF1F4BDB6A082145
:1005E8001846FFF761FF1D48FFF748FF1A4B9B6A43
:1005F80008211846FFF758FF1948FFF73FFF164B29
:100608005B6B08211846FFF74FFF1648FFF736FFC8
:10061800114B9B6B08211846FFF746FF1248FFF75E
:100628002DFF0821B868FFF73FFF1048FFF726FFA6
:100638000821F868FFF738FF0D48FFF71FFF08216A
:100648007869FFF731FF0B48FFF718FF00BFFDE798
:10065800B4450008C845000800ED00E0D84500088A
:10066800E4450008F8450008044600081446000858
:100678001C4600082446000880B588B000AF07F182
:100688000C0300221A605A609A60DA601A611A4BE9
:10069800D3F8E030184A43F00103C2F8E030164BB3
:1006A800D3F8E03003F00103BB60BB68124BD3F80A
:1006B800E030114A43F00203C2F8E0300E4BD3F8A1
:1006C800E03003F002037B607B681023FB600123AA
:1006D8003B6100237B610123BB6101221021074894
:1006E80002F0CEFF07F10C031946044802F018FE89
:1006F80000BF2037BD4680BD0044025800000258A4
:1007080080B582B000AF72B600BF4FF001631B68BE
:100718007B607B6883F3088800BF054B4FF001625C
:100728009A60044B1B68984700BF0837BD4680BDD8
:1007380000ED00E00400100880B400AF4FF0016342
:100748001B68B3F1105F11D34FF001631B680A4AAD
:1007580093420BD8094B1B68B3F1016F06D3074BC3
:100768001B68B3F1026F01D2012300E00023184691
:10077800BD465DF8047B7047FFFF0F240400100896
:1007880080B400AF094BD3F80C3103F00103002B00
:1007980007D0064B064AC3F80421044B054AC3F8A0
:1007A800042100BFBD465DF8047B7047002000525D
:1007B80023016745AB89EFCD80B400AF064BD3F872
:1007C8000C31054A43F00103C2F80C3100BFBD46A5
:1007D8005DF8047B704700BF0020005280B586B0EA
:1007E80000AF7860396000F09FFF38613B697B613A
:1007F800FFF7C4FD2E4BD3F81031FB60FB6803F400
:10080800DC03002B29D02B48FFF738FE0821F868B5
:10081800FFF74AFEFB6803F40033002B02D026489A
:10082800FFF72CFEFB6803F48023002B02D023483B
:10083800FFF724FEFB6803F48003002B02D0204856
:10084800FFF71CFE1F48FFF719FE194B4FF4DE0295
:10085800C3F814214FF0FF3325E0FB6803F480331D
:10086800002B06D0124B4FF48032C3F8142100231A
:1008780019E000F059FFB860BA687B69D31AB3F57C
:100888007A7F04DBBB687B617868FFF7F7FDBA689D
:100898003B69D31A1A463B689A42A9DB0A48FFF714
:1008A800EDFD4FF0FF3318461837BD4680BD00BF39
:1008B8000020005228460008404600084846000824
:1008C80050460008244600085846000880B500AF86
:1008D800FFF756FF1A48FFF7D1FD1A4B4FF4DE0217
:1008E800C3F814211848FFF7C9FD164BD3F80C318B
:1008F800144A23F03003C2F80C31124BD3F80C31F0
:10090800104A43F08803C2F80C3143F698210F4887
:10091800FFF764FF0346002B04D0FFF74DFF4FF0AD
:10092800FF330BE0074BD3F80C31064A23F00803DA
:10093800C2F80C310648FFF7A1FD0023184680BD18
:10094800744600080020005290460008B04600088F
:10095800C846000890B597B000AF7860396007F1D5
:100968005803503B1F335B095C0100237B653B68E0
:100978003B654FF00163FB643B68002B03D03B6889
:10098800B3F5002F05D95B48FFF778FD4FF0FF332B
:10099800ABE0FFF79BFF0346002B05D05648FFF757
:1009A8006DFD4FF0FF33A0E05448FFF767FD0821C5
:1009B800F86CFFF779FD5248FFF760FD8BE03B6D5F
:1009C800202B28BF2023BB647A687B6D1344BA6C44
:1009D8002146184600F07CFCBB6C1F2B08D8BB6C6A
:1009E800E018BB6CC3F120031A46FF2103F097FD02
:1009F800444B4FF4DE02C3F81421424BD3F80C31B8
:100A0800404A43F00203C2F80C31FB6C7B643C643F
:100A18003B6C1A687B6C1A607B6C04333A6C5268C6
:100A28001A607B6C08333A6C92681A607B6C0C33E2
:100A38003A6CD2681A607B6C10333A6C12691A608F
:100A48007B6C14333A6C52691A607B6C18333A6CBD
:100A580092691A607B6C1C333A6CD2691A6040F652
:100A6800B8312948FFF7BAFE0346002B0FD0254BB3
:100A7800D3F80C31234A23F00203C2F80C31FFF7F4
:100A88009BFE2248FFF7FAFC4FF0FF332DE01D4B89
:100A9800D3F80C311B4A23F00203C2F80C31FB6C6B
:100AA8002033FB647A6DBB6C13447B653A6DBB6C79
:100AB800D31A3B65FFF762FC7B6D9BB2002B0AD112
:100AC8001348FFF7DBFC7B6D9B0A1846FFF71EFDFA
:100AD8001048FFF7D3FC3B6D002B7FF470AFFFF796
:100AE8006BFE0D48FFF7CAFC002318465C37BD466D
:100AF80090BD00BFDC460008FC460008104700080F
:100B080024460008002000522C47000844470008EB
:100B180058470008684700087047000880B5C6B005
:100B280000AF4FF00163C7F814314FF40023C7F842
:100B380010310023C7F80C310023C7F808310CE046
:100B4800D7F8083103F59813184600F067FCD7F872
:100B5800083103F58033C7F80831D7F80831B3F501
:100B6800002FEDD331E0D7F81031B3F5807F28BFDF
:100B78004FF48073C7F80431D7F814113B1DD7F828
:100B88000421184603F0F8FCD7F80C3103F5981344
:100B9800391DD7F80421184600F0F4FBD7F81421C2
:100BA800D7F804311344C7F81431D7F80C21D7F813
:100BB80004311344C7F80C31D7F81021D7F80431A1
:100BC800D31AC7F81031FFF7D9FBD7F81031002B2B
:100BD800C9D10023184607F58C77BD4680BD80B57E
:100BE800C6B000AF07F58C73A3F58A7318600023AD
:100BF800C7F814314FF00163C7F8103107F58C734B
:100C0800A3F58A731B68C7F80C312AE0D7F80C31B2
:100C1800B3F5807F28BF4FF48073C7F80831D7F841
:100C2800101107F10803D7F80821184603F0A4FCAF
:100C380007F10803D7F808211946D7F8140100F07E
:100C4800A1FAC7F81401D7F81021D7F808311344CE
:100C5800C7F81031D7F80C21D7F80831D31AC7F8DC
:100C68000C31D7F80C31002BD0D1D7F814311846F5
:100C780007F58C77BD4680BD80B5C6B000AF07F5D7
:100C88008C73A3F58A73186007F58C73A3F58C73BE
:100C980019600023C7F814310023C7F8103107F58D
:100CA8008C73A3F58C731B68C7F80C3130E0D7F848
:100CB8000C31B3F5807F28BF4FF48073C7F8083133
:100CC80007F58C73A3F58A731A68D7F810311344A3
:100CD80007F10801D7F80821184600F0F9FA07F1DA
:100CE8000803D7F808211946D7F8140100F04AFA82
:100CF800C7F81401D7F81021D7F808311344C7F8FA
:100D08001031D7F80C21D7F80831D31AC7F80C31AD
:100D1800D7F80C31002BCAD1D7F81431184607F58B
:100D28008C77BD4680BD80B582B000AF78604FF447
:100D38000C1000F097FB202279684FF40C1000F09B
:100D480021FB00BF0837BD4680BD000080B584B0D8
:100D580000AF78607B689B6819464FF44030FFF716
:100D68008BFFF8603948FFF789FB0821F868FFF71F
:100D78009BFB3748FFF782FB7B68DB680821184636
:100D8800FFF792FB3348FFF779FB7B689B681846AF
:100D9800FFF7BCFB3048FFF771FB7B68DB68FA683C
:100DA8009A4206D07B6804225A607868FFF7BBFF36
:100DB80049E0FFF7B3FE2948FFF760FB7B689B68B3
:100DC80019464FF44030FFF7C5FD0346002B0FD0FE
:100DD8002348FFF753FB4FF400214FF49810FFF717
:100DE800B9FD7B6804225A607868FFF79CFF2AE007
:100DF8007B689B681846FFF7F2FE02467B68DB6853
:100E08009A420CD01748FFF739FB4FF400214FF4F2
:100E18009810FFF79FFD7B6804225A6005E012488E
:100E2800FFF72CFB7B6802225A607868FFF77BFF8C
:100E38000E48FFF723FB7B685B681846FFF766FBE5
:100E48000B48FFF71BFB1037BD4680BD84470008E1
:100E5800A0470008A8470008B0470008E447000872
:100E6800FC470008244800084C480008604800086F
:100E78007048000880B58AB000AF00F0CFFBFFF7DC
:100E880052FAFFF791FA4748FFF7F8FAFFF784FAA2
:100E9800FFF7F2FB00F098F81E2000F051FC002349
:100EA8007B623B1D202219464FF40C1000F010FA0B
:100EB8003D48FFF7E3FA786AFFF728FB3B48FFF75E
:100EC800DDFA7B6808211846FFF7EEFA3848FFF785
:100ED800D5FABB681846FFF719FB3648FFF7CEFA74
:100EE8007B68354A934209D0142000F029FC7B6ABC
:100EF80001337B627B6A042BD3D900E000BF2F4803
:100F0800FFF7BCFA7B6808211846FFF7CDFA284896
:100F1800FFF7B4FABB681846FFF7F8FA2848FFF756
:100F2800ADFAFB681846FFF7F1FA2648FFF7A6FA6C
:100F38003B6908211846FFF7B7FA1E48FFF79EFAE3
:100F48007B681D4A934223D1BB68032B18D0032B1F
:100F58001DD8012B02D0022B05D018E03B1D1846E6
:100F6800FFF7F4FE14E04FF400214FF49810FFF758
:100F7800F1FC0023BB603B1D1846FFF7D4FE07E0D9
:100F88000023BB603B1D1846FFF7CDFE00E000BF05
:100F9800FFF7D2FB0346002B01D0FFF7B1FB00BFE0
:100FA800FDE700BF7C4800088C4800089848000806
:100FB800A0480008244600084F42554CA84800089D
:100FC800BC480008C848000880B500AF274B284A2D
:100FD8001A60264B4FF480025A60244B00229A6014
:100FE800224B0722DA60214B00221A611F4B002294
:100FF8005A611E4B4FF080629A611C4B4FF0405271
:10100800DA611A4B00221A62184B00225A62174BF7
:1010180000229A62154B0022DA62144B4FF080428C
:101028005A63124B00229A63104B0022DA630F4B6B
:1010380000221A640D4B00225A640C4B00229A6459
:101048000A4B0022DA64094B00221A65074B00227A
:101058005A65064B00229A65044802F02BFB0346AA
:10106800002B01D0FFF796FA00BF80BD2C000024AA
:101078000030014080B58AB000AF786007F11403F2
:1010880000221A605A609A60DA601A617B681B68ED
:10109800294A93424CD1294BD3F8F030274A43F4DC
:1010A8008053C2F8F030254BD3F8F03003F4805366
:1010B8003B613B69214BD3F8E030204A43F0010300
:1010C800C2F8E0301D4BD3F8E03003F00103FB60B9
:1010D800FB681A4BD3F8E030184A43F00203C2F811
:1010E800E030164BD3F8E03003F00203BB60BB6876
:1010F80060237B610223BB610023FB6103233B6206
:1011080005237B6207F1140319460D4802F008F91C
:1011180020237B610223BB610023FB6103233B6225
:1011280005237B6207F114031946064802F0F8F814
:1011380000BF2837BD4680BD00300140004402583A
:10114800000002580004025880B582B000AF0C4B72
:10115800D3F8F4300A4A43F00203C2F8F430084BDB
:10116800D3F8F43003F002037B607B6800220F2180
:101178006FF0010000F0C5FB00BF0837BD4680BD19
:101188000044025880B487B000AFF860B9607A6054
:10119800BB687B61FB68DB43FB600EE07B695A1C24
:1011A8007A611B781A46FB685340DBB2094A52F849
:1011B8002320FB681B0A5340FB607B685A1E7A6039
:1011C800002BEBD1FB68DB4318461C37BD465DF8A6
:1011D800047B7047E848000880B500AF0022102162
:1011E800024802F04DFA00BF80BD00BF000002585F
:1011F80080B500AF01221021024802F041FA00BF79
:1012080080BD00BF0000025880B582B000AF786092
:1012180039603B689AB24FF47A737968034802F0F0
:101228006DFB00BF0837BD4680BD00BF2C00002401
:1012380080B586B002AFF860B9607A607B689BB20F
:101248004FF47A720092BA68F968034802F044FDD4
:1012580000BF1037BD4680BD2C00002480B582B089
:1012680000AF4FF60573BB8000233B80FFF7B4FF48
:1012780039463B1D02221846FFF7DAFFFFF7B8FF91
:101288007B7818460837BD4680BD80B500AF02E0C0
:10129800012000F055FAFFF7E1FF034603F00103D0
:1012A800002BF5D100BF00BF80BD80B582B000AF74
:1012B8000623FB71FFF790FFFB1D01211846FFF77E
:1012C800A3FFFFF795FF00BF0837BD4680BD0000AC
:1012D80080B588B000AFF860B9607A6003233B75C9
:1012E800FB681B0CDBB27B75FB681B0ADBB2BB75AA
:1012F800FB68DBB2FB750023FB6139E07B68B3F563
:10130800007F28BF4FF40073BB61FFF765FF07F14B
:10131800140304211846FFF777FFBA69FF2118481C
:1013280003F0FDF8BA6916491548FFF781FFBA6856
:10133800FB691344BA691249184603F01DF9FFF70F
:1013480057FFFA68BB691344FB60FB681B0CDBB2F0
:101358007B75FB681B0ADBB2BB75FB68DBB2FB75F0
:10136800FA69BB691344FB617A68BB69D31A7B606D
:101378007B68002BC2D1002318462037BD4680BDAC
:10138800B400002480B588B000AFF860B9607A6016
:101398000023FB613AE0FB68DBB27B617B69C3F544
:1013A8008073BB61BA697B689A4201D97B68BB616B
:1013B800FFF77BFF02233B74FB681B0CDBB27B74DB
:1013C800FB681B0ADBB2BB74FB68DBB2FB74FFF77C
:1013D80003FF07F1100304211846FFF715FFBA6849
:1013E800FB691344B9691846FFF70EFFFFF700FFC2
:1013F800FFF74BFFFA68BB691344FB60FA69BB69E6
:101408001344FB617A68BB69D31A7B607B68002B45
:10141800C1D1002318462037BD4680BD80B584B0B1
:1014280000AF7860FFF741FFD8233B737B681B0C44
:10143800DBB27B737B681B0ADBB2BB737B68DBB2F6
:10144800FB73FFF7C9FE07F10C0304211846FFF7E9
:10145800DBFEFFF7CDFEFFF718FF00231846103715
:10146800BD4680BD80B584B000AF7860FFF71DFF32
:1014780020233B737B681B0CDBB27B737B681B0AE6
:10148800DBB2BB737B68DBB2FB73FFF7A5FE07F12A
:101498000C0304211846FFF7B7FEFFF7A9FEFFF774
:1014A800F4FE002318461037BD4680BD80B400AF57
:1014B800434BD3F88830424A43F47003C2F888306B
:1014C800404B1B6803F00F03062B07D83D4B1B68E6
:1014D80023F00F033B4A43F0070313603A4B1B68A2
:1014E800394A43F001031360374B00221A61364B27
:1014F8001A683549354B13400B60324B1B6803F0B3
:101508000803002B07D02F4B1B6823F00F032D4A2D
:1015180043F0070313602C4B00229A612A4B0022E8
:10152800DA61294B00221A62274B294A9A62264B14
:10153800284ADA62244B284A1A63234B00225A634A
:10154800214B254A9A63204B0022DA631E4B224A1C
:101558001A641D4B00225A641B4B1B681A4A23F459
:1015680080231360184B00221A661C4B1A681C4B08
:101578001340B3F1005F02D21A4B01221A60124BDA
:10158800D3F8D43003F48053002B13D10E4BD3F887
:10159800D4300D4A43F48053C2F8D430124B43F28E
:1015A800D2021A60084BD3F8D430074A23F4805388
:1015B800C2F8D43000BFBD465DF8047B704700BF59
:1015C80000ED00E000200052004402587FEDF6EAEA
:1015D800000202020000FF01800201010010005C0D
:1015E8000000FFFF088100510040005280B400AFA6
:1015F800094BDB68084A43F00203D36000BF064B7F
:101608005B6803F40053002BF9D000BF00BFBD4650
:101618005DF8047B704700BF0048025880B582B06F
:1016280000AF032000F062F900F092F90246154B72
:101638009B691B0A03F00F031349CB5C03F01F03DC
:1016480022FA03F37B600F4B9B6903F00F030E4AEA
:10165800D35C03F01F037A6822FA03F30B4A136082
:101668000B4A7B6813600F2000F014F80346002B28
:1016780001D0012302E0FFF767FD00231846083771
:10168800BD4680BD00440258E84C00080400002410
:101698000000002480B582B000AF7860154B1B783D
:1016A800002B01D1012321E0134B1A68114B1B7841
:1016B80019464FF47A73B3FBF1F3B2FBF3F3184610
:1016C80000F039F90346002B01D001230EE07B68B6
:1016D8000F2B0AD8002279684FF0FF3000F011F97B
:1016E800064A7B681360002300E001231846083788
:1016F800BD4680BD0C000024000000240800002422
:1017080080B400AF064B1B781A46064B1B6813447F
:10171800044A136000BFBD465DF8047B704700BFF4
:101728000C000024B402002480B400AF034B1B68F3
:101738001846BD465DF8047B704700BFB40200241C
:1017480080B584B000AF7860FFF7EEFFB8607B68C3
:10175800FB60FB68B3F1FF3F05D00A4B1B781A46C4
:10176800FB681344FB6000BFFFF7DEFF0246BB685F
:10177800D31AFA689A42F7D800BF00BF1037BD469F
:1017880080BD00BF0C00002480B485B000AF786035
:101798007B6803F00703FB600B4BDB68BB60BA6830
:1017A8004FF6FF031340BB60FB681A02BB681A437D
:1017B800064B1343BB60044ABB68D36000BF1437B1
:1017C800BD465DF8047B704700ED00E00000FA05B7
:1017D80080B400AF044BDB681B0A03F0070318460C
:1017E800BD465DF8047B704700ED00E080B483B02F
:1017F80000AF03463960FB80B7F90630002B0ADBDF
:101808003B68DAB20C49B7F906301201D2B20B4480
:1018180083F800230AE03B68DAB20849FB8803F042
:101828000F03043B1201D2B20B441A7600BF0C37E7
:10183800BD465DF8047B704700E100E000ED00E084
:1018480080B489B000AFF860B9607A60FB6803F0D3
:101858000703FB61FB69C3F10703042B28BF0423BB
:10186800BB61FB690433062B02D9FB69033B00E02B
:1018780000237B614FF0FF32BB6902FA03F3DA43BE
:10188800BB681A407B699A404FF0FF317B6901FAC7
:1018980003F3D9437B680B40134318462437BD46EE
:1018A8005DF8047B7047000080B582B000AF7860B7
:1018B8007B68013BB3F1807F01D301230FE00A4A23
:1018C8007B68013B53600F214FF0FF30FFF78EFF1D
:1018D800054B00229A60044B07221A600023184621
:1018E8000837BD4680BD00BF10E000E080B582B07B
:1018F80000AF78607868FFF747FF00BF0837BD463C
:1019080080BD80B586B000AF0346B9607A60FB81C0
:10191800FFF75EFF78617A68B9687869FFF790FF2A
:101928000246B7F90E3011461846FFF75FFF00BFB1
:101938001837BD4680BD80B582B000AF7860786842
:10194800FFF7B2FF034618460837BD4680BD0000C2
:1019580080B489B000AFB34B1B6903F03803182B70
:1019680000F2558101A252F823F000BFD9190008EE
:10197800171C0008171C0008171C0008171C000873
:10198800171C0008171C0008171C0008FF1900087E
:10199800171C0008171C0008171C0008171C000853
:1019A800171C0008171C0008171C0008051A000857
:1019B800171C0008171C0008171C0008171C000833
:1019C800171C0008171C0008171C00080B1A000831
:1019D800944B1B6803F02003002B09D0914B1B6824
:1019E800DB0803F00303904A22FA03F3BB6111E119
:1019F8008D4BBB610EE18D4BBB610BE18C4BBB6129
:101A080008E1884B9B6A03F003037B61854B9B6A63
:101A18001B0903F03F033B61824BDB6A03F00103C0
:101A2800FB60804B5B6BDB08C3F30C03FA6802FBBB
:101A380003F307EE903AF8EE677AC7ED027A3B694E
:101A4800002B00F0E1807B69022B00F083807B692A
:101A5800022B00F2A1807B69002B03D07B69012B4C
:101A680056D099E06F4B1B6803F02003002B2DD054
:101A78006C4B1B68DB0803F003036B4A22FA03F381
:101A88007B607B6807EE903AF8EE676A3B6907EE81
:101A9800903AF8EE677A86EEA77A624B1B6BC3F32F
:101AA800080307EE903AF8EE676A97ED026ADFEDF1
:101AB800615AC6EE257A76EEA77AF7EE006A77EED7
:101AC800A67A67EE277AC7ED077A87E03B6907EEC3
:101AD800903AF8EE677ADFED586A86EEA77A514BAE
:101AE8001B6BC3F3080307EE903AF8EE676A97EDAD
:101AF800026ADFED505AC6EE257A76EEA77AF7EE3F
:101B0800006A77EEA67A67EE277AC7ED077A65E06E
:101B18003B6907EE903AF8EE677ADFED486A86EEA1
:101B2800A77A404B1B6BC3F3080307EE903AF8EE15
:101B3800676A97ED026ADFED3F5AC6EE257A76EEC0
:101B4800A77AF7EE006A77EEA67A67EE277AC7EDEE
:101B5800077A43E03B6907EE903AF8EE677ADFEDE3
:101B6800386A86EEA77A2F4B1B6BC3F3080307EE80
:101B7800903AF8EE676A97ED026ADFED2E5AC6EEE4
:101B8800257A76EEA77AF7EE006A77EEA67A67EE00
:101B9800277AC7ED077A21E03B6907EE903AF8EE1D
:101BA800677ADFED266A86EEA77A1E4B1B6BC3F3B6
:101BB800080307EE903AF8EE676A97ED026ADFEDE0
:101BC8001D5AC6EE257A76EEA77AF7EE006A77EE0A
:101BD800A67A67EE277AC7ED077A00BF114B1B6B11
:101BE8005B0A03F07F0301333B603B6807EE903AE2
:101BF800B8EE677AD7ED076AC6EE877AFCEEE77A21
:101C080017EE903ABB6105E00023BB6102E0074B89
:101C1800BB6100BFBB6918462437BD465DF8047B2D
:101C2800704700BF004402580090D00300093D00EF
:101C380040787D01000000460024744C0024744A5A
:101C480020BCBE4B2DE9B04FCAB000AFC7F8140195
:101C5800002387F82731002387F82631D7F8143175
:101C6800D3E9002302F00064002554EA050349D0B3
:101C7800D7F814319B6EB3F5401F2FD0B3F5401F32
:101C880028D8B3F5001F1AD0B3F5001F22D8002BAF
:101C980003D0B3F5801F07D01CE0B84BDB6AB74A06
:101CA80043F40033D3621AE0D7F814310833022121
:101CB800184601F0D1F9034687F827310FE0D7F825
:101CC800143128330221184601F078FA034687F8C0
:101CD800273104E0012387F8273100E000BF97F897
:101CE8002731002B0AD1A54B1B6D23F44011D7F8DF
:101CF80014319B6EA14A0B43136503E097F8273113
:101D080087F82631D7F81431D3E9002302F4807814
:101D18004FF0000958EA090347D0D7F814319B6DF2
:101D2800042B2AD801A252F823F000BF491D00084D
:101D3800571D00086D1D00088B1D00088B1D00082D
:101D48008E4BDB6A8D4A43F40033D3621AE0D7F82E
:101D5800143108330021184601F07EF9034687F84C
:101D680027310FE0D7F8143128330021184601F045
:101D780025FA034687F8273104E0012387F827313D
:101D880000E000BF97F82731002B0AD17B4B1B6D71
:101D980023F00701D7F814319B6D784A0B4313657C
:101DA80003E097F8273187F82631D7F81431D3E9BB
:101DB800002302F4007A4FF0000B5AEA0B034CD0D0
:101DC800D7F81431DB6DB3F5807F30D0B3F5807F61
:101DD80029D8C02B2DD0C02B25D8802B18D0802BEC
:101DE80021D8002B02D0402B07D01CE0634BDB6AC4
:101DF800624A43F40033D3621CE0D7F81431083345
:101E08000021184601F028F9034687F8273111E028
:101E1800D7F8143128330021184601F0CFF90346CA
:101E280087F8273106E0012387F8273102E000BF51
:101E380000E000BF97F82731002B0AD14F4B1B6DEC
:101E480023F4E071D7F81431DB6D4C4A0B4313656A
:101E580003E097F8273187F82631D7F81431D3E90A
:101E6800002302F48063C7F808310023C7F80C3157
:101E7800D7E942120B46134353D0D7F81431D3F89D
:101E8800A830B3F5000F35D0B3F5000F2ED8B3F551
:101E9800C00F31D0B3F5C00F28D8B3F5800F1AD0D2
:101EA800B3F5800F22D8002B03D0B3F5001F07D05D
:101EB8001CE0324BDB6A314A43F40033D3621CE046
:101EC800D7F8143108330021184601F0C5F8034645
:101ED80087F8273111E0D7F8143128330021184644
:101EE80001F06CF9034687F8273106E0012387F8EB
:101EF800273102E000BF00E000BF97F82731002B30
:101F08000BD11E4B9B6D23F46001D7F81431D3F825
:101F1800A8301A4A0B43936503E097F8273187F8EE
:101F28002631D7F81431D3E9002302F40063C7F847
:101F380000310023C7F80431D7E940120B46134398
:101F480056D0D7F81431D3F8AC30B3F1806F38D00D
:101F5800B3F1806F31D8B3F1407F34D0B3F1407F13
:101F68002BD8B3F1007F1DD0B3F1007F25D8002B0B
:101F780006D0B3F1807F0AD01FE000BF00440258AA
:101F8800A24BDB6AA14A43F40033D3621CE0D7F8C2
:101F9800143108330021184601F05EF8034687F82B
:101FA800273111E0D7F8143128330021184601F001
:101FB80005F9034687F8273106E0012387F827311A
:101FC80002E000BF00E000BF97F82731002B0BD1DB
:101FD8008E4B9B6D23F0E061D7F81431D3F8AC3009
:101FE8008A4A0B43936503E097F8273187F826312F
:101FF800D7F81431D3E9002302F00073C7F8F8309A
:102008000023C7F8FC30D7E93E120B4613433AD0F9
:10201800D7F81431DB6C302B1FD0302B19D8202B7C
:102028000CD0202B15D8002B19D0102B11D1774BA1
:10203800DB6A764A43F40033D36211E0D7F81431EF
:1020480008330221184601F007F8034687F82731BC
:1020580006E0012387F8273102E000BF00E000BF57
:1020680097F82731002B0AD1684BDB6C23F030013D
:10207800D7F81431DB6C654A0B43D36403E097F857
:10208800273187F82631D7F81431D3E9002302F431
:102098008053C7F8F0300023C7F8F430D7E93C1272
:1020A8000B46134351D0D7F814311B6EB3F5804F4C
:1020B80035D0B3F5804F2ED8B3F5405F31D0B3F5A6
:1020C800405F28D8B3F5005F1AD0B3F5005F22D877
:1020D800002B03D0B3F5805F07D01CE04B4BDB6AC5
:1020E8004A4A43F40033D3621CE0D7F8143108336A
:1020F8000021184600F0B0FF034687F8273111E0A9
:10210800D7F8143128330021184601F057F8034650
:1021180087F8273106E0012387F8273102E000BF5E
:1021280000E000BF97F82731002B0AD1374B1B6D11
:1021380023F4E041D7F814311B6E344A0B4313657E
:1021480003E097F8273187F82631D7F81431D3E917
:10215800002302F40053C7F8E8300023C7F8EC3036
:10216800D7E93A120B46134356D0D7F814315B6EB1
:10217800B3F5A02F33D0B3F5A02F2CD8B3F5802F0B
:102188002FD0B3F5802F26D8B3F5403F2BD0B3F529
:10219800403F20D8B3F5003F12D0B3F5003F1AD81E
:1021A800002B22D0B3F5803F15D1D7F8143108336E
:1021B8000121184600F050FF034687F8273115E043
:1021C800D7F8143128330121184600F0F7FF0346E9
:1021D80087F827310AE0012387F8273106E000BF96
:1021E80004E000BF02E000BF00E000BF97F827311D
:1021F800002B0DD1054B1B6D23F4E021D7F81431CA
:102208005B6E024A0B43136506E000BF00440258A8
:1022180097F8273187F82631D7F81431D3E9002306
:1022280002F48043C7F8E0300023C7F8E430D7E968
:1022380038120B46134355D0D7F81431D3F8B030C1
:10224800B3F1A04F33D0B3F1A04F2CD8B3F1804FE6
:102258002FD0B3F1804F26D8B3F1405F2BD0B3F124
:10226800405F20D8B3F1005F12D0B3F1005F1AD8F5
:10227800002B22D0B3F1805F15D1D7F81431083381
:102288000121184600F0E8FE034687F8273115E0DB
:10229800D7F8143128330121184600F08FFF034680
:1022A80087F827310AE0012387F8273106E000BFC5
:1022B80004E000BF02E000BF00E000BF97F827314C
:1022C800002B0BD1A34B9B6D23F0E041D7F81431C1
:1022D800D3F8B0309F4A0B43936503E097F8273152
:1022E80087F82631D7F81431D3E9002302F40043E4
:1022F800C7F8D8300023C7F8DC30D7E936120B46C8
:10230800134337D0D7F814311B6FB3F1005F0ED0E9
:10231800B3F1005F16D8002B18D0B3F1805F11D14C
:102328008C4BDB6A8B4A43F40033D3620FE0D7F857
:10233800143108330121184600F08EFE034687F851
:10234800273104E0012387F8273100E000BF97F820
:102358002731002B0AD17F4B1B6D23F04051D7F852
:1023680014311B6F7B4A0B43136503E097F8273141
:1023780087F82631D7F81431D3E9002302F08073A7
:10238800C7F8D0300023C7F8D430D7E934120B4649
:10239800134339D0D7F814319B6C032B1CD801A2F6
:1023A80052F823F0E9230008BD230008CB230008D6
:1023B800E9230008674BDB6A664A43F40033D362BB
:1023C8000FE0D7F8143108330221184600F044FE14
:1023D800034687F8273104E0012387F8273100E016
:1023E80000BF97F82731002B0AD15A4BDB6C23F03A
:1023F8000301D7F814319B6C564A0B43D36403E0AE
:1024080097F8273187F82631D7F81431D3E9002314
:1024180002F48003C7F8C8300023C7F8CC30D7E9E6
:1024280032120B46134300F09F804B4B1B684A4AFD
:1024380043F480731360FFF777F9C7F820010BE0C6
:10244800FFF772F90246D7F82031D31A642B03D963
:10245800032387F8273105E03F4B1B6803F480739B
:10246800002BEDD097F82731002B79D1394B1A6F13
:10247800D7F81431D3F8B430534003F44073002B29
:1024880015D0344B1B6F23F44073C7F81C31314B04
:102498001B6F304A43F4803313672E4B1B6F2D4A52
:1024A80023F4803313672B4AD7F81C311367D7F806
:1024B8001431D3F8B430B3F5807F18D1FFF734F96D
:1024C800C7F820010DE0FFF72FF90246D7F82031B1
:1024D800D21A41F288339A4203D9032387F8273165
:1024E80005E01C4B1B6F03F00203002BEBD097F8A1
:1024F8002731002B29D1D7F81431D3F8B43003F49D
:102508004073B3F5407F0ED1124B1B6923F47C5105
:10251800D7F81431D3F8B4301A09104B13400D4AC8
:102528000B43136105E00B4B1B690A4A23F47C53E8
:102538001361084B196FD7F81431D3F8B430C3F3CB
:102548000B03044A0B4313670EE097F8273187F80B
:10255800263109E00044025800480258CFFFFF0026
:1025680097F8273187F82631D7F81431D3E90023B3
:1025780002F00103C7F8C0300023C7F8C430D7E918
:1025880030120B46134300F08980D7F81431DB6F03
:10259800282B6BD801A252F823F000BF7D26000833
:1025A8007526000875260008752600087526000897
:1025B80075260008752600087526000849260008B3
:1025C8007526000875260008752600087526000877
:1025D8007526000875260008752600085F2600087D
:1025E8007526000875260008752600087526000857
:1025F8007526000875260008752600087D2600083F
:102608007526000875260008752600087526000836
:102618007526000875260008752600087D2600081E
:102628007526000875260008752600087526000816
:102638007526000875260008752600087D260008FE
:10264800D7F8143108330121184600F005FD034678
:1026580087F827310FE0D7F81431283301211846BD
:1026680000F0ACFD034687F8273104E0012387F822
:10267800273100E000BF97F82731002B0AD1BF4B64
:102688005B6D23F03801D7F81431DB6FBB4A0B437D
:10269800536503E097F8273187F82631D7F81431C6
:1026A800D3E9002302F00203C7F8B8300023C7F8C3
:1026B800BC30D7E92E120B46134341D0D7F814315A
:1026C8009B6F052B24D801A252F823F0212700087C
:1026D800ED26000803270008212700082127000805
:1026E80021270008D7F8143108330121184600F0D3
:1026F800B3FC034687F827310FE0D7F814312833A5
:102708000121184600F05AFD034687F8273104E0F6
:10271800012387F8273100E000BF97F82731002B05
:102728000AD1964B5B6D23F00701D7F814319B6FE4
:10273800924A0B43536503E097F8273187F826310F
:10274800D7F81431D3E9002302F00403C7F8B030F6
:102758000023C7F8B430D7E92C120B46134344D0F2
:10276800D7F81431D3F89430052B25D801A252F8A4
:1027780023F000BFC927000895270008AB270008E9
:10278800C9270008C9270008C9270008D7F8143145
:1027980008330121184600F05FFC034687F827310B
:1027A8000FE0D7F8143128330121184600F006FD50
:1027B800034687F8273104E0012387F8273100E032
:1027C80000BF97F82731002B0BD16C4B9B6D23F082
:1027D8000701D7F81431D3F89430684A0B4393654E
:1027E80003E097F8273187F82631D7F81431D3E971
:1027F800002302F02003C7F8A8300023C7F8AC3044
:10280800D7E92A120B46134355D0D7F81431D3F819
:102818009030B3F1A04F33D0B3F1A04F2CD8B3F11F
:10282800804F2FD0B3F1804F26D8B3F1405F2BD023
:10283800B3F1405F20D8B3F1005F12D0B3F1005F6D
:102848001AD8002B22D0B3F1805F15D1D7F81431F4
:1028580008330021184600F0FFFB034687F82731AC
:1028680015E0D7F8143128330221184600F0A6FCE9
:10287800034687F827310AE0012387F8273106E065
:1028880000BF04E000BF02E000BF00E000BF97F80F
:102898002731002B0BD1394B5B6D23F0E041D7F882
:1028A8001431D3F89030354A0B43536503E097F859
:1028B800273187F82631D7F81431D3E9002302F0FD
:1028C8004003C7F8A0300023C7F8A430D7E928127E
:1028D8000B46134358D0D7F81431D3F89C30B3F5CE
:1028E800A05F33D0B3F5A05F2CD8B3F5805F2FD0AD
:1028F800B3F5805F26D8B3F5406F2BD0B3F5406FA2
:1029080020D8B3F5006F12D0B3F5006F1AD8002B9A
:1029180022D0B3F5806F15D1D7F8143108330021D0
:10292800184600F099FB034687F8273115E0D7F8D9
:10293800143128330221184600F040FC034687F87A
:1029480027310AE0012387F8273106E000BF04E0B9
:1029580000BF02E000BF00E000BF97F82731002B5E
:102968000ED1064B9B6D23F4E051D7F81431D3F800
:102978009C30024A0B43936506E000BF00440258AE
:1029880097F8273187F82631D7F81431D3E900238F
:1029980002F08003C7F898300023C7F89C30D7E9C5
:1029A80026120B46134355D0D7F81431D3F8A0306C
:1029B800B3F5204F33D0B3F5204F2CD8B3F5004FE3
:1029C8002FD0B3F5004F26D8B3F5C04F2BD0B3F5B1
:1029D800C04F20D8B3F5804F12D0B3F5804F1AD826
:1029E800002B22D0B3F5005F15D1D7F81431083386
:1029F8000021184600F030FB034687F8273115E020
:102A0800D7F8143128330221184600F0D7FB0346C3
:102A180087F827310AE0012387F8273106E000BF4D
:102A280004E000BF02E000BF00E000BF97F82731D4
:102A3800002B0BD1A14B9B6D23F46041D7F81431C7
:102A4800D3F8A0309D4A0B43936503E097F82731EC
:102A580087F82631D7F81431D3E9002302F00803A8
:102A6800C7F890300023C7F89430D7E924120B46F2
:102A780013431ED0D7F81431D3F88430B3F5805FF0
:102A88000CD1D7F8143128330221184600F096FBF0
:102A98000346002B02D0012387F82631874B5B6D54
:102AA80023F44051D7F81431D3F88430834A0B43C8
:102AB8005365D7F81431D3E9002302F01003C7F89F
:102AC80088300023C7F88C30D7E922120B4613430D
:102AD8001ED0D7F81431D3F89830B3F5807F0CD1D5
:102AE800D7F8143128330221184600F067FB034653
:102AF800002B02D0012387F82631704B9B6D23F4FD
:102B08004071D7F81431D3F898306C4A0B43936569
:102B1800D7F81431D3E9002302F40023C7F8803032
:102B28000023C7F88430D7E920120B4613433ED060
:102B3800D7F81431D3F8A430B3F5003F22D0B3F559
:102B4800003F1BD8002B03D0B3F5803F0BD015E016
:102B5800D7F8143108330021184600F07DFA0346EF
:102B680087F827310FE0D7F81431283302211846A7
:102B780000F024FB034687F8273104E0012387F897
:102B8800273100E000BF97F82731002B0BD14B4BC2
:102B98009B6D23F44031D7F81431D3F8A430474A59
:102BA8000B43936503E097F8273187F82631D7F868
:102BB8001431D3E9002302F48023BB670023FB67A9
:102BC800D7E91E120B4613433BD0D7F81431D3F87C
:102BD8008830B3F5401F1FD0B3F5401F18D8B3F5A0
:102BE800801F03D0B3F5001F07D011E0334BDB6A19
:102BF800324A43F40033D3620FE0D7F81431283354
:102C08000121184600F0DAFA034687F8273104E074
:102C1800012387F8273100E000BF97F82731002B00
:102C28000BD1264B5B6D23F44011D7F81431D3F840
:102C38008830224A0B43536503E097F8273187F819
:102C48002631D7F81431D3E9002302F480333B67E7
:102C580000237B67D7E91C120B46134334D0D7F8FF
:102C680014311B6D002B03D0B3F5803F07D011E062
:102C7800124BDB6A114A43F40033D3620EE0D7F8F3
:102C8800143108330221184600F0E6F9034687F8A4
:102C9800273103E0012387F8273100BF97F8273150
:102CA800002B0DD1054BDB6C23F48031D7F81431A0
:102CB8001B6D024A0B43D36406E000BF0044025870
:102CC80097F8273187F82631D7F81431D3E900234C
:102CD80002F00053BB660023FB66D7E91A120B46C5
:102CE80013430CD0D7F8143128330221184600F0CA
:102CF80065FA0346002B02D0012387F82631D7F85E
:102D08001431D3E9002302F400333B6600237B66C9
:102D1800D7E918120B46134338D0D7F81431D3F833
:102D28008030B3F5407F18D0B3F5407F11D8B3F5A4
:102D3800007F14D0B3F5007F0BD8002B11D0B3F56A
:102D4800807F06D1C34BDB6AC24A43F40033D362A7
:102D580008E0012387F8273104E000BF02E000BF44
:102D680000E000BF97F82731002B0BD1B94B5B6D02
:102D780023F44071D7F81431D3F88030B54A0B43A7
:102D8800536503E097F8273187F82631D7F81431CF
:102D9800D3E9002302F48013BB650023FB65D7E960
:102DA80016120B46134309D0AA4B1B6D23F00041A2
:102DB800D7F814315B6FA74A0B431365D7F8143162
:102DC800D3E9002302F080533B6500237B65D7E9F4
:102DD80014120B4613430AD09E4B1B6923F48041FF
:102DE800D7F81431D3F8B8309A4A0B431361D7F89F
:102DF8001431D3E9002302F40013BB640023FB64FD
:102E0800D7E912120B46134309D0924B1B6D23F0DE
:102E18008071D7F81431DB6E8E4A0B431365D7F8EF
:102E28001431D3E9002302F080433B6400237B6420
:102E3800D7E910120B4613430ED0864B1B69854AFF
:102E480023F400431361834B1969D7F81431D3F87D
:102E5800BC30804A0B431361D7F81431D3E90023FF
:102E680002F00043BB630023FB63D7E90E120B4655
:102E7800134309D0774BDB6C23F04051D7F814315A
:102E88005B6D744A0B43D364D7F81431D3E900233C
:102E980002F400033B6300237B63D7E90C120B4663
:102EA80013430AD06B4B5B6D23F44001D7F8143100
:102EB800D3F88C30674A0B435365D7F81431D3E9FC
:102EC80000230021B96203F00103FB62D7E90A126B
:102ED8000B46134311D0D7F8143108330021184694
:102EE80000F0BAF8034687F8273197F82731002B06
:102EF80003D097F8273187F82631D7F81431D3E96A
:102F080000230021396203F002037B62D7E908122B
:102F18000B46134311D0D7F8143108330121184652
:102F280000F09AF8034687F8273197F82731002BE5
:102F380003D097F8273187F82631D7F81431D3E929
:102F480000230021B96103F00403FB61D7E90612ED
:102F58000B46134311D0D7F8143108330221184611
:102F680000F07AF8034687F8273197F82731002BC5
:102F780003D097F8273187F82631D7F81431D3E9E9
:102F880000230021396103F008037B61D7E90412AB
:102F98000B46134311D0D7F81431283300211846B3
:102FA80000F00CF9034687F8273197F82731002BF2
:102FB80003D097F8273187F82631D7F81431D3E9A9
:102FC80000230021B96003F01003FB60D7E9021267
:102FD8000B46134311D0D7F8143128330121184672
:102FE80000F0ECF8034687F8273197F82731002BD3
:102FF80003D097F8273187F82631D7F81431D3E969
:1030080000230021396003F020037B60D7E9001218
:103018000B46134311D0D7F8143128330221184630
:1030280000F0CCF8034687F8273197F82731002BB2
:1030380003D097F8273187F8263197F82631002BE7
:1030480001D1002300E00123184607F59477BD4617
:10305800BDE8B08F0044025880B584B000AF7860F6
:1030680039600023FB73534B9B6A03F00303032B64
:1030780001D1012399E04F4B1B684E4A23F080632E
:103088001360FEF751FBB86008E0FEF74DFB0246FF
:10309800BB68D31A022B01D9032386E0454B1B6872
:1030A80003F00063002BF0D1424B9B6A23F47C327F
:1030B8007B681B681B033F4913438B627B685B6813
:1030C800013BC3F308027B689B68013B5B029BB230
:1030D8001A437B68DB68013B1B0403F4FE031A43B5
:1030E8007B681B69013B1B0603F0FE433149134310
:1030F8008B63304BDB6A23F0C0027B685B692D4928
:103108001343CB622B4BDB6A23F020027B689B695D
:1031180028491343CB62274BDB6A264A23F0100366
:10312800D362244BDA6B244B13407A68D269D200FD
:1031380020491343CB631F4BDB6A1E4A43F010033D
:10314800D3623B68002B06D11A4BDB6A194A43F459
:103158000023D3620FE03B68012B06D1154BDB6AD5
:10316800144A43F48013D36205E0124BDB6A114A18
:1031780043F40013D3620F4B1B680E4A43F080637D
:103188001360FEF7D1FAB86008E0FEF7CDFA024600
:10319800BB68D31A022B01D9032306E0054B1B6831
:1031A80003F00063002BF0D0FB7B18461037BD46B8
:1031B80080BD00BF004402580700FFFF80B584B0FF
:1031C80000AF786039600023FB73534B9B6A03F0B0
:1031D8000303032B01D1012399E04F4B1B684E4A8F
:1031E80023F080531360FEF79FFAB86008E0FEF7FB
:1031F8009BFA0246BB68D31A022B01D9032386E047
:10320800454B1B6803F00053002BF0D1424B9B6ADF
:1032180023F07C727B681B681B053F4913438B6254
:103228007B685B68013BC3F308027B689B68013BD2
:103238005B029BB21A437B68DB68013B1B0403F407
:10324800FE031A437B681B69013B1B0603F0FE4320
:10325800314913430B64304BDB6A23F440627B68CB
:103268005B692D491343CB622B4BDB6A23F4007255
:103278007B689B6928491343CB62274BDB6A264A44
:1032880023F48073D362244B5A6C244B13407A681E
:10329800D269D200204913434B641F4BDB6A1E4A94
:1032A80043F48073D3623B68002B06D11A4BDB6A68
:1032B800194A43F48003D3620FE03B68012B06D11F
:1032C800154BDB6A144A43F40003D36205E0124B42
:1032D800DB6A114A43F08073D3620F4B1B680E4AB6
:1032E80043F080531360FEF71FFAB86008E0FEF75A
:1032F8001BFA0246BB68D31A022B01D9032306E046
:10330800054B1B6803F00053002BF0D0FB7B1846DD
:103318001037BD4680BD00BF004402580700FFFFBC
:1033280080B489B000AF786039600023FB61894BB5
:103338007B6194E13B681A680121FB6901FA03F398
:1033480013403B613B69002B00F086813B685B685A
:1033580003F00303012B05D03B685B6803F003030C
:10336800022B30D17B689B68BB61FB695B00032241
:1033780002FA03F3DB43BA691340BB613B68DA68BE
:10338800FB695B0002FA03F3BA691343BB617B680C
:10339800BA699A607B685B68BB610122FB6902FAC3
:1033A80003F3DB43BA691340BB613B685B681B09E5
:1033B80003F00102FB6902FA03F3BA691343BB6124
:1033C8007B68BA695A603B685B6803F00303032BA8
:1033D80017D07B68DB68BB61FB695B00032202FADC
:1033E80003F3DB43BA691340BB613B689A68FB6926
:1033F8005B0002FA03F3BA691343BB617B68BA69DD
:10340800DA603B685B6803F00303022B23D1FB6996
:10341800DA087B68083253F82230BB61FB6903F095
:1034280007039B000F2202FA03F3DB43BA69134038
:10343800BB613B681A69FB6903F007039B0002FA4A
:1034480003F3BA691343BB61FB69DA087B68083286
:10345800B96943F822107B681B68BB61FB695B0094
:10346800032202FA03F3DB43BA691340BB613B68EA
:103478005B6803F00302FB695B0002FA03F3BA69B5
:103488001343BB617B68BA691A603B685B6803F4E5
:103498004033002B00F0E0802F4BD3F8F4302E4A55
:1034A80043F00203C2F8F4302B4BD3F8F43003F0A6
:1034B8000203FB60FB68294AFB699B08023352F848
:1034C8002330BB61FB6903F003039B000F2202FA60
:1034D80003F3DB43BA691340BB617B68204A93421C
:1034E80052D07B681F4A934231D07B681E4A934270
:1034F8002BD07B681D4A934225D07B681C4A934297
:103508001FD07B681B4A934219D07B681A4A9342A2
:1035180013D07B68194A93420DD07B68184A9342AE
:1035280007D07B68174A934201D109232DE00A236B
:103538002BE0082329E0072327E0062325E00523BD
:1035480023E0042321E003231FE002231DE00123DD
:103558001BE000BF800000580044025800040058D7
:10356800000002580004025800080258000C0258D3
:10357800001002580014025800180258001C025883
:1035880000200258002402580023FA6902F00302BE
:1035980092009340BA691343BB613849FB699B08A1
:1035A8000233BA6941F823204FF0B0431B68BB616E
:1035B8003B69DB43BA691340BB613B685B6803F452
:1035C8008013002B03D0BA693B691343BB614FF0EA
:1035D800B042BB6913604FF0B0435B68BB613B69A5
:1035E800DB43BA691340BB613B685B6803F40013B3
:1035F800002B03D0BA693B691343BB614FF0B0425B
:10360800BB6953607B695B68BB613B69DB43BA6933
:103618001340BB613B685B6803F40033002B03D0A5
:10362800BA693B691343BB617B69BA695A607B69B4
:103638001B68BB613B69DB43BA691340BB613B68EC
:103648005B6803F48033002B03D0BA693B691343EA
:10365800BB617B69BA691A60FB690133FB613B682E
:103668001A68FB6922FA03F3002B7FF463AE00BFEC
:1036780000BF2437BD465DF8047B7047000400583E
:1036880080B483B000AF78600B467B8013467B70B4
:103698007B78002B03D07A887B689A6103E07B886B
:1036A8001A047B689A6100BF0C37BD465DF8047B3D
:1036B8007047000080B584B000AF78607B68002B4D
:1036C80001D101230FE17B6800229A627B681B68A5
:1036D800874A93420FD07B681B68864A93420AD078
:1036E8007B681B68844A934205D07B68DB680F2B94
:1036F80001D90123F7E0786800F0F6FEF8607B68EE
:103708001B687B4A93420CD07B681B68794A9342BA
:1037180007D07B681B68784A934202D0FB68082B65
:1037280011D87B681B68724A934209D07B681B6872
:10373800704A934204D07B681B686F4A934204D155
:10374800FB68102B01D90123CDE07B6893F8813009
:10375800DBB2002B06D17B68002283F880207868D2
:10376800FDF788FC7B68022283F881207B681B6850
:103778001A687B681B6822F001021A607B681B6864
:103788009B6803F4F813BB607B689B69B3F1806F97
:1037980019D17B685B68B3F5800F03D17B689B6B9D
:1037A800002B08D07B685B68002B0CD17B689B6B77
:1037B800B3F1805F07D17B681B681A687B681B6858
:1037C80042F480521A607B685B6803F48003002B24
:1037D8000FD07B68DB68062B0BD97B681B681B68DE
:1037E80023F480717B681A6D7B681B680A431A6032
:1037F80007E07B681B681A687B681B6822F4807284
:103808001A607B68DA697B689B6A1A43BB681A434B
:103818007B68DB6B42EA03017B68DA687B681B68BC
:103828000A439A607B685A6B7B685B6A1A437B68B9
:103838009B6B1A437B689B691A437B681B691A4315
:103848007B685B691A437B681B6A1A437B685B6801
:103858001A437B68DB6C1A437B689B681A437B6856
:103868009B6C42EA03017B689A6D7B681B680A437C
:10387800DA607B685B68002B13D17B681B689B68E8
:1038880023F4C0527B681B6842F400629A607B682C
:103898001B689B6823F4C0627B681B6842F48062E3
:1038A8009A607B681B681A6D7B681B6822F00102AE
:1038B8001A657B685B6803F48003002B0AD07B6879
:1038C8001B68DB6823F000417B685A6D7B681B68C6
:1038D8000A43DA607B680022C3F884207B680122EF
:1038E80083F88120002318461037BD4680BD00BFED
:1038F8000030014000380040003C004080B588B0EE
:1039080002AFF860B9603B601346FB80FB681B6838
:1039180020337B61FDF708FF3861FB6893F881303D
:10392800DBB2012B01D00223D1E1BB68002B02D00E
:10393800FB88002B01D10123C9E1FB6893F8803093
:10394800012B01D10223C2E1FB68012283F8802008
:10395800FB68032283F88120FB680022C3F88420D7
:10396800FB68BA68DA65FB68FA88A3F86020FB6828
:10397800FA88A3F86220FB6800225A66FB680022D6
:10398800A3F86820FB680022A3F86A20FB680022DD
:103998005A67FB6800221A67FB689B68B3F5C02F5B
:1039A80008D1FB681B681A68FB681B6842F4006250
:1039B8001A6009E0FB681B68DB6823F4C022FB6817
:1039C8001B6842F40032DA60FB681B685A68964B41
:1039D8001340F988FA6812680B435360FB681B6848
:1039E8001A68FB681B6842F001021A60FB685B6892
:1039F800B3F5800F07D1FB681B681A68FB681B6862
:103A080042F400721A60FB68DB680F2B47D93FE06D
:103A1800FB681B685B6903F00203022B14D1FB6887
:103A2800DA6DFB681B6812681A62FB68DB6D1A1D89
:103A3800FB68DA65FB68B3F862309BB2013B9AB267
:103A4800FB68A3F8622023E0FDF76EFE02463B699F
:103A5800D31A3A689A4203D83B68B3F1FF3F02D1C0
:103A68003B68002B14D1F86800F070FCFB68D3F8B1
:103A7800843043F48072FB68C3F88420FB68012219
:103A880083F88120FB68002283F8802003231EE14D
:103A9800FB68B3F862309BB2002BB9D1F1E0FB6848
:103AA800DB68072B40F2E6805DE0FB681B685B691A
:103AB80003F00203022B32D1FB68B3F862309BB2E9
:103AC800012B18D9FB68DB6B002B14D0FB68DA6D6F
:103AD800FB681B6812681A62FB68DB6D1A1DFB68BD
:103AE800DA65FB68B3F862309BB2023B9AB2FB68B6
:103AF800A3F8622037E0FB68DB6D1A887B691A80BF
:103B0800FB68DB6D9A1CFB68DA65FB68B3F862300A
:103B18009BB2013B9AB2FB68A3F8622023E0FDF751
:103B280003FE02463B69D31A3A689A4203D83B68B7
:103B3800B3F1FF3F02D13B68002B14D1F86800F0C5
:103B480005FCFB68D3F8843043F48072FB68C3F843
:103B58008420FB68012283F88120FB68002283F817
:103B680080200323B3E0FB68B3F862309BB2002BDC
:103B78009BD186E0FB681B685B6903F00203022B9C
:103B880054D1FB68B3F862309BB2032B18D9FB6899
:103B9800DB6B402B14D9FB68DA6DFB681B68126875
:103BA8001A62FB68DB6D1A1DFB68DA65FB68B3F8FF
:103BB80062309BB2043B9AB2FB68A3F8622059E0DA
:103BC800FB68B3F862309BB2012B17D9FB68DB6B3B
:103BD800002B13D0FB68DB6D1A887B691A80FB68A1
:103BE800DB6D9A1CFB68DA65FB68B3F862309BB240
:103BF800023B9AB2FB68A3F862203BE0FB68DA6DEF
:103C0800FB681B68203312781A70FB68DB6D5A1C3E
:103C1800FB68DA65FB68B3F862309BB2013B9AB285
:103C2800FB68A3F8622025E00000FFFFFDF77CFD9C
:103C380002463B69D31A3A689A4203D83B68B3F103
:103C4800FF3F02D13B68002B14D1F86800F07EFBDF
:103C5800FB68D3F8843043F48072FB68C3F884208F
:103C6800FB68012283F88120FB68002283F880200A
:103C780003232CE0FB68B3F862309BB2002B7FF47F
:103C880079AF3B6900933B6800220821F86800F08F
:103C9800FDFB0346002B07D0FB68D3F8843043F0C4
:103CA8002002FB68C3F88420F86800F04FFBFB682B
:103CB800012283F88120FB68002283F88020FB68BA
:103CC800D3F88430002B01D0012300E000231846EC
:103CD8001837BD4680BD00BF80B58EB002AFF86012
:103CE800B9607A607B80FB681B6820337B62FB6865
:103CF8001B6830333B62FB68DB6B5B099BB20133AB
:103D0800FB83FDF711FDB8617B887B857B883B854C
:103D1800FB6893F88130DBB2012B01D0022310E35A
:103D2800BB68002B05D07B68002B02D07B88002B5A
:103D380001D1012305E3FB6893F88030012B01D101
:103D48000223FEE2FB68012283F88020FB6805223B
:103D580083F88120FB680022C3F88420FB687A6816
:103D68005A66FB687A88A3F86A20FB687A88A3F801
:103D78006820FB68BA68DA65FB687A88A3F862206D
:103D8800FB687A88A3F86020FB6800221A67FB6842
:103D980000225A67FB681B68DA68FB681B6822F414
:103DA800C022DA60FB681B68704A934209D0FB683E
:103DB8001B686F4A934204D0FB681B686D4A9342A4
:103DC80002D11023FB6201E00823FB62FB681B6839
:103DD8005A68694B13407988FA6812680B43536034
:103DE800FB681B681A68FB681B6842F001021A60CE
:103DF800FB685B68B3F5800F07D1FB681B681A681E
:103E0800FB681B6842F400721A60FB68DB680F2BC2
:103E180040F2A280FB6A9B08FB6294E0FB681B6887
:103E28005B6903F00203022B20D17B8D002B1DD090
:103E38003A8D798DFB6A0B449A4217D2FB68DA6D8A
:103E4800FB681B6812681A62FB68DB6D1A1DFB6849
:103E5800DA65FB68B3F862309BB2013B9AB2FB6843
:103E6800A3F86220FB68B3F862307B85FB681B68A7
:103E78005B697B613B8D002B65D0FB681B685B69C8
:103E880003F00103012B18D1FB681A68FB685B6E0D
:103E9800126B1A60FB685B6E1A1DFB685A66FB683A
:103EA800B3F86A309BB2013B9AB2FB68A3F86A2068
:103EB800FB68B3F86A303B8545E03A8DFB8B9A4244
:103EC8001DD27B6903F40043002B18D0FB681A68E5
:103ED800FB685B6E126B1A60FB685B6E1A1DFB68F1
:103EE8005A66FB68B3F86A309BB2013B9AB2FB682A
:103EF800A3F86A20FB68B3F86A303B8523E0FDF736
:103F080013FC0246BB69D31ABA6B9A4203D8BB6B3F
:103F1800B3F1FF3F02D1BB6B002B14D1F86800F05E
:103F280015FAFB68D3F8843043F48072FB68C3F851
:103F38008420FB68012283F88120FB68002283F833
:103F480080200323FDE17B8D002B7FF467AF3B8D41
:103F5800002B7FF463AFCEE1FB68DB68072B40F2F0
:103F6800C281FB6A5B08FB62C9E000BF0030014008
:103F780000380040003C00400000FFFFFB681B6861
:103F88005B6903F00203022B1FD17B8D002B1CD031
:103F98003A8D798DFB6A0B449A4216D2FB68DB6D29
:103FA8001A887B6A1A80FB68DB6D9A1CFB68DA65E5
:103FB800FB68B3F862309BB2013B9AB2FB68A3F886
:103FC8006220FB68B3F862307B85FB681B685B691D
:103FD8007B613B8D002B00F09280FB681B685B695E
:103FE80003F00103012B18D1FB685B6E3A6A128853
:103FF80092B21A80FB685B6E9A1CFB685A66FB6873
:10400800B3F86A309BB2013B9AB2FB68A3F86A2006
:10401800FB68B3F86A303B8571E03A8DFB8B9A42B6
:1040280028D27B6903F40043002B23D0FB685B6E26
:104038003A6A128892B21A80FB685B6E9A1CFB6817
:104048005A66FB685B6E3A6A128892B21A80FB68FD
:104058005B6E9A1CFB685A66FB68B3F86A309BB2C1
:10406800023B9AB2FB68A3F86A20FB68B3F86A308F
:104078003B8544E03B8D012B1DD17B6903F4005344
:10408800002B18D0FB685B6E3A6A128892B21A80CD
:10409800FB685B6E9A1CFB685A66FB68B3F86A306B
:1040A8009BB2013B9AB2FB68A3F86A20FB68B3F89D
:1040B8006A303B8523E0FDF737FB0246BB69D31A1C
:1040C800BA6B9A4203D8BB6BB3F1FF3F02D1BB6B0B
:1040D800002B14D1F86800F039F9FB68D3F8843064
:1040E80043F48072FB68C3F88420FB68012283F8DC
:1040F8008120FB68002283F88020032321E17B8D47
:10410800002B7FF43BAF3B8D002B7FF437AFF2E001
:10411800FB681B685B6903F00203022B21D17B8DCE
:10412800002B1ED03A8D798DFB6A0B449A4218D227
:10413800FB68DA6DFB681B68203312781A70FB681D
:10414800DB6D5A1CFB68DA65FB68B3F862309BB21A
:10415800013B9AB2FB68A3F86220FB68B3F86230AF
:104168007B85FB681B685B697B613B8D002B00F0DE
:10417800BA80FB681B685B6903F00103012B1BD144
:10418800FB681B6803F13002FB685B6E1278D2B2E1
:104198001A70FB685B6E5A1CFB685A66FB68B3F8BA
:1041A8006A309BB2013B9AB2FB68A3F86A20FB68AD
:1041B800B3F86A303B8596E03A8DFB8B9A424AD237
:1041C8007B6903F40043002B45D0FB681B6803F1AF
:1041D8003002FB685B6E1278D2B21A70FB685B6EB5
:1041E8005A1CFB685A66FB681B6803F13002FB68BF
:1041F8005B6E1278D2B21A70FB685B6E5A1CFB6851
:104208005A66FB681B6803F13002FB685B6E127824
:10421800D2B21A70FB685B6E5A1CFB685A66FB6860
:104228001B6803F13002FB685B6E1278D2B21A7019
:10423800FB685B6E5A1CFB685A66FB68B3F86A3009
:104248009BB2043B9AB2FB68A3F86A20FB68B3F8F8
:104258006A303B8547E03B8D032B20D87B6903F40C
:10426800C043002B1BD0FB681B6803F13002FB68BE
:104278005B6E1278D2B21A70FB685B6E5A1CFB68D0
:104288005A66FB68B3F86A309BB2013B9AB2FB6886
:10429800A3F86A20FB68B3F86A303B8523E0FDF792
:1042A80043FA0246BB69D31ABA6B9A4203D8BB6B6E
:1042B800B3F1FF3F02D1BB6B002B14D1F86800F0BB
:1042C80045F8FB68D3F8843043F48072FB68C3F880
:1042D8008420FB68012283F88120FB68002283F890
:1042E800802003232DE07B8D002B7FF411AF3B8DC5
:1042F800002B7FF40DAFBB690093BB6B0022082134
:10430800F86800F0C3F80346002B07D0FB68D3F821
:10431800843043F02002FB68C3F88420F86800F07A
:1043280015F8FB68012283F88120FB68002283F8D6
:104338008020FB68D3F88430002B01D0012300E0F3
:10434800002318463037BD4680BD00BF80B485B015
:1043580000AF78607B681B685B69FB607B681B68E3
:104368009A697B681B6842F008029A617B681B683F
:104378009A697B681B6842F010029A617B681B6827
:104388001A687B681B6822F001021A607B681B6848
:1043980019697B681A683C4B0B4013617B681B6882
:1043A8009A687B681B6822F440429A607B6893F89D
:1043B8008130DBB2042B14D0FB6803F02003002B00
:1043C8000FD07B68D3F8843043F080027B68C3F851
:1043D80084207B681B689A697B681B6842F020020E
:1043E8009A617B6893F88130DBB2032B14D0FB68A9
:1043F80003F04003002B0FD07B68D3F8843043F0E0
:1044080004027B68C3F884207B681B689A697B6810
:104418001B6842F040029A61FB6803F40073002BAA
:104428000FD07B68D3F8843043F001027B68C3F86F
:1044380084207B681B689A697B681B6842F4007259
:104448009A61FB6803F48073002B0FD07B68D3F864
:10445800843043F008027B68C3F884207B681B68BB
:104468009A697B681B6842F480729A617B680022B3
:10447800A3F862207B680022A3F86A2000BF1437E3
:10448800BD465DF8047B704790FCFFFF80B584B0A3
:1044980000AFF860B9603B601346FB7110E0FDF7B0
:1044A80043F90246BB69D31A3A689A4203D83B6873
:1044B800B3F1FF3F02D13B68002B01D103230FE08A
:1044C800FB681B685A69BB681340BA689A420CBFFC
:1044D80001230023DBB21A46FB799A42DFD000237E
:1044E80018461037BD4680BD80B485B000AF7860EF
:1044F8007B68DB6B5B090133FB607B68DB6801333E
:10450800BB60BB680733DB08BB60BB68FA6802FBAB
:1045180003F318461437BD465DF8047B7047024420
:104528000346934200D1704703F8011BF9E70000E6
:1045380070B50D4B0D4D5B1B9C100026A64209D192
:1045480000F028F80A4D0B4B5B1B9C100026A64276
:1045580005D170BD55F8043B98470136EEE755F88C
:10456800043B98470136F2E7F84C0008F84C00087D
:10457800F84C0008FC4C00080A44914200F1FF3353
:1045880000D1704710B511F8014B03F8014F914263
:10459800F9D110BDF8B500BFF8BC08BC9E467047FD
:0C45A800F8B500BFF8BC08BC9E46704788
:1045B4005B424F4F545D20484152444641554C5450
:1045C4000D0A00005B424F4F545D20484653523D54
:1045D4003078000020434653523D307800000000FC
:1045E4000D0A5B424F4F545D204D4D4641523D30C4
:1045F4007800000020424641523D3078000000001F
:104604000D0A5B424F4F545D2050433D307800000B
:10461400204C523D30780000204D53503D307800FE
:104624000D0A00005B424F4F545D20464C415348F5
:1046340020455252207372323D3078002057525038
:10464400455252002050475345525200204F504586
:10465400525200005B424F4F545D20464C41534838
:1046640020574149542054494D454F55540D0A0093
:104674005B424F4F545D20666C61736820756E6CAD
:104684006F636B206F6B0D0A000000005B424F4F9D
:10469400545D206D6173732D6572617365204241B1
:1046A4004E4B322E2E2E0D0A000000005B424F4F5F
:1046B400545D20657261736520776169742E2E2EB6
:1046C400200000005B424F4F545D206572617365AA
:1046D40020646F6E650D0A005B424F4F545D20628B
:1046E40075726E206C656E204F5554204F462052D3
:1046F400414E47450D0A00005B424F4F545D206513
:1047040072617365204641494C0D0A005B424F4F6C
:10471400545D206572617365642C206275726E69E4
:104724006E672040307800005B424F4F545D20702C
:10473400726F6720776169742E2E2E2000000000AE
:104744005B424F4F545D206275726E204641494C66
:104754000D0A00005B424F4F545D206275726E6516
:10476400642000004B420D0A000000005B424F4FE2
:10477400545D206275726E206F6B0D0A000000009C
:104784005B424F4F545D20646F5F75706461746564
:104794003A206372635F7370693D0000206578702E
:1047A4003D000000206C656E3D0000000D0A5B4278
:1047B4004F4F545D202A2A20444F204E4F542050FE
:1047C4004F574552204F46462C20757064617469DA
:1047D4006E6720287E316D696E29202A2A0D0A0011
:1047E4005B424F4F545D206261636B757020646F50
:1047F4006E650D0A000000005B424F4F545D20625D
:1048040075726E207374616765204641494C202D92
:104814003E20726F6C6C6261636B0D0A00000000D5
:104824005B424F4F545D20766572696679204D492D
:10483400534D41544348202D3E20726F6C6C62618D
:10484400636B0D0A000000005B424F4F545D2076FD
:104854006572696679206F6B0D0A00005B424F4FE9
:10486400545D206D6574613D00000000207772691D
:104874007474656E0D0A00005B424F4F545D205303
:10488400544152540D0A00005B424F4F545D207452
:1048940072793D00206D616769633D002073746126
:1048A40074653D005B424F4F545D2066696E616CD8
:1048B400206D616769633D00206E65775F6C656E8E
:1048C4003D000000206E65775F6372633D00000069
:1048D4003031323334353637383941424344454632
:1048E4000000000000000000963007772C610EEEF7
:1048F400BA51099919C46D078FF46A7035A563E933
:10490400A395649E3288DB0EA4B8DC791EE9D5E059
:1049140088D9D2972B4CB609BD7CB17E072DB8E758
:10492400911DBF906410B71DF220B06A4871B9F3AD
:10493400DE41BE847DD4DA1AEBE4DD6D51B5D4F4E6
:10494400C785D38356986C13C0A86B647AF962FD4B
:10495400ECC9658A4F5C0114D96C0663633D0FFA98
:10496400F50D088DC8206E3B5E10694CE44160D59E
:10497400727167A2D1E4033C47D4044BFD850DD288
:104984006BB50AA5FAA8B5356C98B242D6C9BBDB9B
:1049940040F9BCACE36CD832755CDF45CF0DD6DC96
:1049A400593DD1ABAC30D9263A00DE518051D7C83D
:1049B4001661D0BFB5F4B42123C4B3569995BACFC8
:1049C4000FA5BDB89EB802280888055FB2D90CC6E9
:1049D40024E90BB1877C6F2F114C6858AB1D61C162
:1049E4003D2D66B69041DC760671DB01BC20D29881
:1049F4002A10D5EF8985B1711FB5B606A5E4BF9F0E
:104A040033D4B8E8A2C9077834F9000F8EA8099600
:104A140018980EE1BB0D6A7F2D3D6D08976C64916B
:104A2400015C63E6F4516B6B62616C1CD830658584
:104A34004E0062F2ED95066C7BA5011BC1F4088261
:104A440057C40FF5C6D9B06550E9B712EAB8BE8BA2
:104A54007C88B9FCDF1DDD62492DDA15F37CD38C2B
:104A6400654CD4FB5861B24DCE51B53A7400BCA329
:104A7400E230BBD441A5DF4AD795D83D6DC4D1A45B
:104A8400FBF4D6D36AE96943FCD96E34468867AD32
:104A9400D0B860DA732D0444E51D03335F4C0AAAD1
:104AA400C97C0DDD3C710550AA41022710100BBED4
:104AB40086200CC925B56857B3856F2009D466B91B
:104AC4009FE461CE0EF9DE5E98C9D9292298D0B050
:104AD400B4A8D7C7173DB359810DB42E3B5CBDB7FD
:104AE400AD6CBAC02083B8EDB6B3BF9A0CE2B6037E
:104AF4009AD2B1743947D5EAAF77D29D1526DB0433
:104B04008316DC73120B63E3843B64943E6A6D0D7D
:104B1400A85A6A7A0BCF0EE49DFF099327AE000AC8
:104B2400B19E077D44930FF0D2A3088768F2011E5B
:104B3400FEC206695D5762F7CB67658071366C19F2
:104B4400E7066B6E761BD4FEE02BD3895A7ADA1013
:104B5400CC4ADD676FDFB9F9F9EFBE8E43BEB717F4
:104B6400D58EB060E8A3D6D67E93D1A1C4C2D8387E
:104B740052F2DF4FF167BBD16757BCA6DD06B53FE4
:104B84004B36B248DA2B0DD84C1B0AAFF64A033623
:104B9400607A0441C3EF60DF55DF67A8EF8E6E31A2
:104BA40079BE69468CB361CB1A8366BCA0D26F25EB
:104BB40036E2685295770CCC03470BBBB916022238
:104BC4002F260555BE3BBAC5280BBDB2925AB42B4D
:104BD400046AB35CA7FFD7C231CFD0B58B9ED92C62
:104BE4001DAEDE5BB0C2649B26F263EC9CA36A75C7
:104BF4000A936D02A906099C3F360EEB856707727E
:104C040013570005824ABF95147AB8E2AE2BB17BE4
:104C1400381BB60C9B8ED2920DBED5E5B7EFDC7C6B
:104C240021DFDB0BD4D2D38642E2D4F1F8B3DD68C2
:104C34006E83DA1FCD16BE815B26B9F6E177B06FBD
:104C44007747B718E65A0888706A0FFFCA3B0666AA
:104C54005C0B0111FF9E658F69AE62F8D3FF6B6137
:104C640045CF6C1678E20AA0EED20DD75483044ED9
:104C7400C2B30339612667A7F71660D04D47694967
:104C8400DB776E3E4A6AD1AEDC5AD6D9660BDF407A
:104C9400F03BD83753AEBCA9C59EBBDE7FCFB2472D
:104CA400E9FFB5301CF2BDBD8AC2BACA3093B35312
:104CB400A6A3B4240536D0BA9306D7CD2957DE541B
:104CC400BF67D9232E7A66B3B84A61C4021B685DF4
:104CD400942B6F2A37BE0BB4A18E0CC31BDF055A6D
:104CE4008DEF022D00000000010203040102030401
:044CF400060708099E
:044CF800BD020008F1
:044CFC009902000811
:104D00000090D0030090D0031000000001000000CC
:04000005080002D914
:00000001FF
