:020000040800F2
:10000000000008202DA40108E59E0108ED9E0108CE
:10001000019F0108159F0108299F010800000000A9
:1000200000000000000000000000000091A3000894
:100030003D9F010800000000A1A5000809A60008D6
:100040007DA401087DA401087DA401087DA4010808
:100050007DA401087DA401087DA401087DA40108F8
:100060007DA401087DA401087DA401084D9F01081D
:10007000619F0108759F0108899F01089D9F0108E4
:10008000B19F0108C59F01087DA401087DA4010856
:100090007DA401087DA401087DA401087DA40108B8
:1000A0007DA401087DA401087DA401087DA40108A8
:1000B0007DA401087DA401087DA401087DA4010898
:1000C0007DA401087DA401087DA401087DA4010888
:1000D0007DA40108D99F0108ED9F010801A0010836
:1000E0007DA401087DA401087DA401087DA4010868
:1000F0007DA401087DA401087DA4010815A00108C4
:100100007DA401087DA401087DA401087DA4010847
:1001100029A001083DA001087DA4010851A0010803
:100120007DA4010865A0010879A001087DA401084B
:100130007DA401088DA001087DA401087DA401080B
:100140007DA401087DA401087DA401087DA4010807
:100150007DA40108A1A00108B5A00108C9A001085B
:100160007DA401087DA401087DA401087DA40108E7
:100170007DA401087DA401087DA401080000000001
:100180007DA401087DA40108DDA00108F1A00108FB
:100190007DA401087DA401087DA401087DA40108B7
:1001A0007DA401087DA401087DA401087DA40108A7
:1001B0007DA401087DA401087DA401087DA4010897
:1001C0007DA401087DA40108000000007DA40108B1
:1001D0007DA401087DA401087DA401087DA4010877
:1001E0007DA401087DA401087DA401087DA4010867
:0801F0007DA401087DA40108B3
:1002000010B5054C237833B9044B13B10448AFF350
:1002100000800123237010BDD009022000000000DF
:10022000688E020808B5034B1BB103490348AFF3BE
:10023000008008BD00000000D4090220688E02087A
:1002400081F0004102E000BF83F0004330B54FEA87
:1002500041044FEA430594EA050F08BF90EA020FF4
:100260001FBF54EA000C55EA020C7FEA645C7FEA87
:10027000655C00F0E2804FEA5454D4EB5555B8BFAA
:100280006D420CDD2C4480EA020281EA030382EA1B
:10029000000083EA010180EA020281EA0303362DAD
:1002A00088BF30BD11F0004F4FEA01314FF4801C80
:1002B0004CEA113102D0404261EB410113F0004F92
:1002C0004FEA03334CEA133302D0524263EB430349
:1002D00094EA050F00F0A780A4F10104D5F1200EE7
:1002E0000DDB02FA0EFC22FA05F2801841F1000142
:1002F00003FA0EF2801843FA05F359410EE0A5F116
:1003000020050EF1200E012A03FA0EFC28BF4CF046
:10031000020C43FA05F3C01851EBE37101F00045FC
:1003200007D54FF0000EDCF1000C7EEB00006EEB09
:100330000101B1F5801F1BD3B1F5001F0CD3490893
:100340005FEA30004FEA3C0C04F101044FEA4452EA
:1003500012F5800F80F09A80BCF1004F08BF5FEA71
:10036000500C50F1000041EB045141EA050130BD51
:100370005FEA4C0C404141EB0101013C28BFB1F563
:10038000801FE9D291F0000F04BF01460020B1FAAE
:1003900081F308BF2033A3F10B03B3F120020CDA81
:1003A0000C3208DD02F1140CC2F10C0201FA0CF05F
:1003B00021FA02F10CE002F11402D8BFC2F1200CC4
:1003C00001FA02F120FA0CFCDCBF41EA0C0190407A
:1003D000E41AA2BF01EB0451294330BD6FEA0404C3
:1003E0001F3C1CDA0C340EDC04F11404C4F12002AE
:1003F00020FA04F001FA02F340EA030021FA04F3C0
:1004000045EA030130BDC4F10C04C4F1200220FA16
:1004100002F001FA04F340EA0300294630BD21FA54
:1004200004F0294630BD94F0000F83F4801306BF1A
:1004300081F480110134013D4EE77FEA645C18BF0E
:100440007FEA655C29D094EA050F08BF90EA020FA5
:1004500005D054EA000C04BF1946104630BD91EA9D
:10046000030F1EBF0021002030BD5FEA545C05D1A0
:100470004000494128BF41F0004130BD14F58004DF
:100480003CBF01F5801130BD01F0004545F0FE4153
:1004900041F470014FF0000030BD7FEA645C1ABF88
:1004A000194610467FEA655C1CBF0B46024650EABF
:1004B000013406BF52EA033591EA030F41F40021EB
:1004C00030BD00BF90F0000F04BF0021704730B571
:1004D0004FF4806404F132044FF000054FF0000146
:1004E00050E700BF90F0000F04BF0021704730B507
:1004F0004FF4806404F1320410F0004548BF4042DC
:100500004FF000013EE700BF42004FEAE2014FEA30
:1005100031014FEA02701FBF12F07F4393F07F4F0B
:1005200081F06051704732F07F4208BF704793F00E
:100530007F4F04BF41F40021704730B54FF4607421
:1005400001F0004521F000411CE700BF50EA010224
:1005500008BF704730B54FF000050AE050EA0102CD
:1005600008BF704730B511F0004502D5404261EB3D
:1005700041014FF4806404F132045FEA915C3FF47E
:10058000D8AE4FF003025FEADC0C18BF03325FEA1B
:10059000DC0C18BF033202EBDC02C2F1200300FACC
:1005A00003FC20FA02F001FA03FE40EA0E0021FAF1
:1005B00002F11444BDE600BF53B94AB9002908BF8F
:1005C00000281CBF4FF0FF314FF0FF3000F0C0B9E2
:1005D000ADF1080C6DE904CE00F03EF8DDF804E062
:1005E000DDE9022304B0704708B502460B4643EC30
:1005F000172BB5EEC07BF1EE10FA03D4BDE808402E
:1006000000F00AB8B1EE477B51EC170B00F004F88C
:10061000404261EB410108BD9FED0B6B41EC170BB4
:100620009FED0B5B27EE066BBCEEC66BB8EE464B40
:10063000A4EE457BFCEEC77B16EE101A17EE900A6F
:10064000704700BFAFF30080000000000000F03DE5
:10065000000000000000F0412DE9F047089D0F4622
:1006600004468C46002B48D18A42164661D9B2FA1C
:1006700082F34BB1C3F1200201FA03FC20FA02F22B
:100680009E4042EA0C0C9C404FEA164EB7B2BCFBAF
:10069000FEF1220C0EFB11CC42EA0C4201FB07F0EA
:1006A000904209D9B21801F1FF3C80F0EE809042EF
:1006B00040F2EB8002393244121AA4B2B2FBFEF0CF
:1006C0000EFB102244EA024400FB07F7A74209D9B7
:1006D000341900F1FF3280F0DA80A74240F2D7806F
:1006E0003444023840EA0140E41B00211DB1DC40E3
:1006F0000023C5E90043BDE8F0878B4206D90DB160
:10070000C5E9000100210846BDE8F087B3FA83F18E
:10071000002948D1BB4202D3824200F20781841AE9
:1007200067EB030201209446002DE4D0C5E9004C9C
:10073000E1E7002A00F09280B2FA82F3002B40F049
:10074000A8808A1A4FEA164E1FFA86FC0121200C57
:10075000B2FBFEF70EFB172240EA02420CFB07F049
:10076000904207D9B21807F1FF3802D2904200F246
:10077000E2804746121AA4B2B2FBFEF00EFB102232
:1007800044EA02440CFB00FCA44507D9341900F1EB
:10079000FF3202D2A44500F2CB801046A4EB0C0439
:1007A00040EA0740A2E7C1F120068B4022FA06FC8E
:1007B0004CEA030C07FA01F420FA06F3F7404FEA7B
:1007C0001C49234300FA01F81FFA8CFEB7FBF9F02D
:1007D0001C0C09FB107744EA074400FB0EF7A74204
:1007E00002FA01F20AD91CEB040400F1FF3A80F08E
:1007F0009B80A74240F2988002386444E41B9FB279
:10080000B4FBF9F309FB134447EA044403FB0EFE6F
:10081000A64509D91CEB040403F1FF3780F0828060
:10082000A6457FD9023B644443EA0040A4EB0E0492
:10083000A0FB02E7BC427346B94663D360D05DB10A
:10084000B8EB030264EB090404FA06F622FA01F39A
:100850001E43CC40C5E9006400214CE7620848080B
:1008600042EAC1710B0C43EA00438AB242EA0342F6
:10087000B3FBF6F1E407B4463746B6461F23B0FB98
:10088000F6F0D21B41EA004161E7614614E71046E9
:1008900028E7C3F1200120FA01F29E4027FA01F176
:1008A0009F403A434FEA164E1FFA86FCB1FBFEF713
:1008B0000EFB1710110C41EA004107FB0CF88845AC
:1008C00004FA03F43AD9711807F1FF3001D28845D0
:1008D0001FD8A1EB0801B1FBFEF808FB0CF70EFBDB
:1008E000181192B242EA0142BA422FD2B21808F16C
:1008F000FF31C6D2BA42C4D2A8F102013244C0E7E5
:10090000F0459CD2BEEB020367EB0C070138B946F9
:1009100095E7A6EB08084144B81EB1FBFEF808FBBA
:100920000CF7DCE73B467FE7504667E70846FBE607
:100930003444023832E7023F32441BE7A1EB08019E
:100940003846B1FBFEF808FB0CF7C8E7414698E7CC
:10095000704700BF10F8012B11F8013B012A28BF96
:100960009A42F7D0D01A7047034613F8012B002A99
:10097000FBD1181A01387047000000000000000089
:1009800001F0FF01102A2BDB10F0070F08D010F840
:10099000013B013A8B422DD010F0070F42B3F6D144
:1009A000F0B441EA012141EA014122F007047FF05D
:1009B00000070023F0E80256083C85EA010586EAB4
:1009C000010685FA47F5A3FA87F586FA47F6A5FAF0
:1009D00087F68EB9EED1F0BC01F0FF0102F00702FC
:1009E00032B110F8013B013A83EA010313B1F8D1A7
:1009F0000020704701387047002D06BF3546033888
:100A0000073815F0010F07D1013015F4807F02BFC0
:100A1000013015F4C03F0130F0BC0138704700BF11
:100A20007BB972B90029BEBF00204FF0004106E03B
:100A300008BF00281CBF6FF000414FF0FF30FFF7E8
:100A400087BFADF1080C6DE904CE002909DB002B4E
:100A50001ADBFFF701FEDDF804E0DDE9022304B054
:100A60007047404261EB4101002B1BDBFFF7F4FDB7
:100A7000DDF804E0DDE9022304B0404261EB41010E
:100A8000524263EB43037047524263EB4303FFF769
:100A9000E3FDDDF804E0DDE9022304B0404261EB50
:100AA00041017047524263EB4303FFF7D5FDDDF888
:100AB00004E0DDE9022304B0524263EB43037047D4
:100AC00080B400AF064BD3F88830054A43F4700376
:100AD000C2F8883000BFBD465DF8047B704700BF98
:100AE00000ED00E080B582B000AF78607B68002B3D
:100AF00001D1012349E07B6893F83D30DBB2002B44
:100B000006D17B68002283F83C20786800F041F829
:100B10007B68022283F83D207B681A687B68043377
:100B20001946104600F0E8F97B68012283F8482056
:100B30007B68012283F83E207B68012283F83F20F6
:100B40007B68012283F840207B68012283F84120E2
:100B50007B68012283F842207B68012283F84320CE
:100B60007B68012283F844207B68012283F84520BA
:100B70007B68012283F846207B68012283F84720A6
:100B80007B68012283F83D20002318460837BD46C4
:100B900080BD80B483B000AF786000BF0C37BD4625
:100BA0005DF8047B7047000080B485B000AF7860CA
:100BB0007B6893F83D30DBB2012B01D0012354E078
:100BC0007B68022283F83D207B681B68DA687B68BB
:100BD0001B6842F00102DA607B681B68264A934278
:100BE00022D07B681B68B3F1804F1DD07B681B68E7
:100BF000224A934218D07B681B68214A934213D043
:100C00007B681B681F4A93420ED07B681B681E4A94
:100C1000934209D07B681B681C4A934204D07B68CE
:100C20001B681B4A934215D17B681B689A68194B55
:100C30001340FB60FB68062B15D0FB68B3F5803FC3
:100C400011D07B681B681A687B681B6842F0010240
:100C50001A6008E07B681B681A687B681B6842F0B2
:100C600001021A6000E000BF002318461437BD4699
:100C70005DF8047B704700BF0000014000040040A5
:100C800000080040000C004000040140004001400A
:100C9000001800400700010080B584B000AF786004
:100CA0007B681B68DB68FB607B681B681B69BB603B
:100CB000BB6803F00203002B20D0FB6803F00203A3
:100CC000002B1BD07B681B686FF002021A617B68E7
:100CD00001221A777B681B689B6903F00303002BD2
:100CE00003D0786800F0E9F805E0786800F0DBF8F8
:100CF000786800F0ECF87B6800221A77BB6803F094
:100D00000403002B20D0FB6803F00403002B1BD04E
:100D10007B681B686FF004021A617B6802221A77F5
:100D20007B681B689B6903F44073002B03D07868D1
:100D300000F0C3F805E0786800F0B5F8786800F0D6
:100D4000C6F87B6800221A77BB6803F00803002B03
:100D500020D0FB6803F00803002B1BD07B681B68C6
:100D60006FF008021A617B6804221A777B681B689F
:100D7000DB6903F00303002B03D0786800F09DF8D3
:100D800005E0786800F08FF8786800F0A0F87B68DC
:100D900000221A77BB6803F01003002B20D0FB68F9
:100DA00003F01003002B1BD07B681B686FF0100250
:100DB0001A617B6808221A777B681B68DB6903F479
:100DC0004073002B03D0786800F077F805E078686E
:100DD00000F069F8786800F07AF87B6800221A77EA
:100DE000BB6803F00103002B0CD0FB6803F0010388
:100DF000002B07D07B681B686FF001021A617868CE
:100E000017F07EFDBB6803F08003002B04D1BB68A4
:100E100003F40053002B0CD0FB6803F08003002B7D
:100E200007D07B681B686FF402521A61786800F083
:100E300013F9BB6803F48073002B0CD0FB6803F03C
:100E40008003002B07D07B681B686FF480721A61E7
:100E5000786800F00BF9BB6803F04003002B0CD05E
:100E6000FB6803F04003002B07D07B681B686FF022
:100E700040021A61786800F034F8BB6803F0200380
:100E8000002B0CD0FB6803F02003002B07D07B68FD
:100E90001B686FF020021A61786800F0D3F800BF79
:100EA0001037BD4680BD80B483B000AF786000BF0E
:100EB0000C37BD465DF8047B704780B483B000AF4B
:100EC000786000BF0C37BD465DF8047B704780B486
:100ED00083B000AF786000BF0C37BD465DF8047B7F
:100EE000704780B483B000AF786000BF0C37BD4658
:100EF0005DF8047B7047000080B485B000AF786077
:100F000039607B681B68FB607B68434A934213D05F
:100F10007B68B3F1804F0FD07B68404A93420BD07F
:100F20007B683F4A934207D07B683E4A934203D096
:100F30007B683D4A934208D1FB6823F07003FB6055
:100F40003B685B68FA681343FB607B68324A9342F4
:100F50002BD07B68B3F1804F27D07B682F4A934218
:100F600023D07B682E4A93421FD07B682D4A934240
:100F70001BD07B682C4A934217D07B682B4A934244
:100F800013D07B682A4A93420FD07B68294A934248
:100F90000BD07B68284A934207D07B68274A93424C
:100FA00003D07B68264A934208D1FB6823F4407340
:100FB000FB603B68DB68FA681343FB60FB6823F067
:100FC00080023B685B691343FB603B689A687B68FF
:100FD000DA623B681A687B689A627B680E4A9342C1
:100FE00003D07B68104A934203D13B681A697B683F
:100FF0001A637B681B6843F004027B681A607B6895
:1010000001225A617B68FA681A6000BF1437BD4636
:101010005DF8047B704700BF000001400004004001
:1010200000080040000C0040000401400040014066
:10103000004401400048014000180040001C0040EE
:101040000020004080B483B000AF786000BF0C3750
:10105000BD465DF8047B704780B483B000AF786014
:1010600000BF0C37BD465DF8047B704780B483B089
:1010700000AF786000BF0C37BD465DF8047B704759
:1010800080B586B000AF78600023FB757B68002BCD
:1010900001D101239BE27B681B6803F00103002B55
:1010A00000F08780964B9B6803F00C03042B0CD058
:1010B000934B9B6803F00C03082B12D1904B5B6899
:1010C00003F48003B3F5800F0BD18D4B1B6803F441
:1010D0000033002B6CD07B685B68002B68D1012348
:1010E00075E27B685B68B3F5803F06D1844B1B6873
:1010F000834A43F4803313602EE07B685B68002BE7
:101100000CD17F4B1B687E4A23F4803313607C4BE9
:101110001B687B4A23F4802313601DE07B685B68B7
:10112000B3F5A02F0CD1764B1B68754A43F480238E
:101130001360734B1B68724A43F4803313600BE0F7
:101140006F4B1B686E4A23F4803313606C4B1B6833
:101150006B4A23F4802313607B685B68002B13D0F9
:1011600002F064F8386108E002F060F802463B697A
:10117000D31A642B01D9032329E2614B1B6803F4C2
:101180000033002BF0D014E002F050F8386108E092
:1011900002F04CF802463B69D31A642B01D90323B1
:1011A00015E2574B1B6803F40033002BF0D100E02D
:1011B00000BF7B681B6803F00203002B69D0504B13
:1011C0009B6803F00C03002B0BD04D4B9B6803F086
:1011D0000C03082B1CD14A4B5B6803F48003002BE3
:1011E00016D1474B1B6803F00203002B05D07B6828
:1011F000DB68012B01D00123E9E1414B1B6823F09F
:10120000F8027B681B69DB003D4913430B6040E03B
:101210007B68DB68002B23D0394B1B68384A43F0CE
:101220000103136002F002F8386108E001F0FEFFEC
:1012300002463B69D31A022B01D90323C7E1304B85
:101240001B6803F00203002BF0D02D4B1B6823F02A
:10125000F8027B681B69DB00294913430B6018E027
:10126000274B1B68264A23F00103136001F0DEFFC1
:10127000386108E001F0DAFF02463B69D31A022B1D
:1012800001D90323A3E11E4B1B6803F00203002BCB
:10129000F0D17B681B6803F00803002B38D07B6813
:1012A0005B69002B19D0164B5B6F154A43F00103A5
:1012B000536701F0BBFF386108E001F0B7FF024659
:1012C0003B69D31A022B01D9032380E10C4B5B6FDE
:1012D00003F00203002BF0D01AE0094B5B6F084AC1
:1012E00023F00103536701F0A1FF38610AE001F028
:1012F0009DFF02463B69D31A022B03D9032366E103
:1013000000380240924B5B6F03F00203002BEED1DA
:101310007B681B6803F00403002B00F0A4808C4B57
:101320001B6C03F08053002B0DD1894B1B6C884A3A
:1013300043F080531364864B1B6C03F08053BB60F7
:10134000BB680123FB75834B1B6803F48073002B80
:1013500018D1804B1B687F4A43F48073136001F0FF
:1013600065FF386108E001F061FF02463B69D31A6E
:10137000642B01D903232AE1764B1B6803F48073A5
:10138000002BF0D07B689B68012B06D1704B1B6F44
:101390006F4A43F0010313672DE07B689B68002BC5
:1013A0000CD16B4B1B6F6A4A23F001031367684B28
:1013B0001B6F674A23F0040313671CE07B689B687C
:1013C000052B0CD1624B1B6F614A43F0040313677A
:1013D0005F4B1B6F5E4A43F0010313670BE05C4BEE
:1013E0001B6F5B4A23F001031367594B1B6F584A6D
:1013F00023F0040313677B689B68002B15D001F072
:1014000015FF38610AE001F011FF02463B69D31A6B
:1014100041F28832934201D90323D8E04C4B1B6F31
:1014200003F00203002BEED014E001F0FFFE386160
:101430000AE001F0FBFE02463B69D31A41F2883212
:10144000934201D90323C2E0414B1B6F03F0020317
:10145000002BEED1FB7D012B05D13D4B1B6C3C4A93
:1014600023F0805313647B689B69002B00F0AE80EF
:10147000374B9B6803F00C03082B6DD07B689B698E
:10148000022B4BD1324B1B68314A23F0807313601F
:1014900001F0CCFE386108E001F0C8FE02463B696D
:1014A000D31A022B01D9032391E0294B1B6803F0C7
:1014B0000073002BF0D17B68DA697B681B6A1A43E2
:1014C0007B685B6A9B011A437B689B6A5B08013BF4
:1014D0001B041A437B68DB6A1B061A437B681B6B81
:1014E0001B071B4913434B60194B1B68184A43F0F9
:1014F0008073136001F09AFE386108E001F096FEF7
:1015000002463B69D31A022B01D903235FE0104B3B
:101510001B6803F00073002BF0D057E00C4B1B68E6
:101520000B4A23F08073136001F080FE386108E0FD
:1015300001F07CFE02463B69D31A022B01D903233A
:1015400045E0034B1B6803F00073002BF0D13DE036
:1015500000380240007000401F4B5B68FB607B68F6
:101560009B69012B30D0FB6803F480027B68DB6948
:101570009A4229D1FB6803F03F027B681B6A9A42BA
:1015800022D1FA6847F6C07313407A68526A920112
:10159000934219D1FB6803F440327B689B6A5B0875
:1015A000013B1B049A420FD1FB6803F070627B6819
:1015B000DB6A1B069A4207D1FB6803F0E0427B68B6
:1015C0001B6B1B079A4201D0012300E00023184641
:1015D0001837BD4680BD00BF0038024080B584B0DA
:1015E00000AF786039600023FB607B68002B01D17D
:1015F0000123D0E06A4B1B6803F00F033A689A425C
:1016000010D9674B1B6823F00F0265493B681343F1
:101610000B60634B1B6803F00F033A689A4201D0DA
:101620000123B8E07B681B6803F00203002B20D085
:101630007B681B6803F00403002B05D0594B9B68A3
:10164000584A43F4E05393607B681B6803F0080337
:10165000002B05D0534B9B68524A43F46043936080
:10166000504B9B6823F0F0027B689B684D49134305
:101670008B607B681B6803F00103002B40D07B6804
:101680005B68012B07D1474B1B6803F40033002B29
:1016900015D101237FE07B685B68022B07D1414BAA
:1016A0001B6803F00073002B09D1012373E03D4B4D
:1016B0001B6803F00203002B01D101236BE0394BBF
:1016C0009B6823F003027B685B68364913438B6099
:1016D00001F0ACFDF8600AE001F0A8FD0246FB68ED
:1016E000D31A41F28832934201D9032353E02D4BA0
:1016F0009B6803F00C027B685B689B009A42EBD10D
:10170000274B1B6803F00F033A689A4210D2244B10
:101710001B6823F00F0222493B6813430B60204BE8
:101720001B6803F00F033A689A4201D0012332E0AC
:101730007B681B6803F00403002B08D0194B9B68DF
:1017400023F4E0527B68DB68164913438B607B68A7
:101750001B6803F00803002B09D0124B9B6823F48D
:1017600060427B681B69DB000E4913438B6000F00D
:1017700021F802460B4B9B681B0903F00F030A4933
:10178000CB5C22FA03F3094A1360094B1B68184625
:1017900018F0E0FC002318461037BD4680BD00BF9E
:1017A000003C024000380240E8E902080000022044
:1017B000040002202DE9B04F90B000AF00237B63FE
:1017C0000023FB6300233B630023BB63584B9B68F0
:1017D00003F00C03082B0DD0082B00F2A080002B87
:1017E00002D0042B03D09AE0524BBB639AE0524BD9
:1017F000BB6397E04E4B5B6803F03F037B634C4B4E
:101800005B6803F48003002B27D0494B5B689B097E
:1018100000223B627A623B6AC3F308000021464B18
:1018200003FB01F2002300FB03F31344424AA0FB35
:101830000221F962BA62FA6A1344FB627B6B0022EE
:10184000BB61FA61D7E90623D7E90A01FEF7B4FEC6
:1018500002460B461346FB6353E0354B5B689B091E
:1018600000223B617A613B69C3F3080A4FF0000B29
:1018700052465B464FF000004FF00001590141EA2B
:10188000D261500102460B46B2EB0A0863EB0B092A
:101890004FF000024FF000034FEA891343EA9863C8
:1018A0004FEA8812B2EB080463EB09054FF000021F
:1018B0004FF00003EB0043EA5473E20014461D4668
:1018C00014EB0A033B6045EB0B037B604FF0000217
:1018D0004FF00003D7E9004529468B02214643EA31
:1018E000915321468A02104619467B6B0022BB6049
:1018F000FA60D7E90223FEF75FFE02460B46134665
:10190000FB630B4B5B681B0C03F0030301335B00B1
:101910003B63FA6B3B6BB2FBF3F3BB6302E0054B3B
:10192000BB6300BFBB6B18464037BD46BDE8B08FF8
:10193000003802400024F40040787D0180B400AFFC
:10194000034B1B681846BD465DF8047B704700BF1B
:101950000000022080B500AFFFF7F0FF0246054B04
:101960009B689B0A03F007030349CB5C22FA03F34D
:10197000184680BD00380240F8E9020880B500AF83
:10198000FFF7DCFF0246054B9B685B0B03F0070388
:101990000349CB5C22FA03F3184680BD00380240AD
:1019A000F8E9020880B483B000AF786039607B68E2
:1019B0000F221A60124B9B6803F003027B685A6087
:1019C0000F4B9B6803F0F0027B689A600C4B9B689E
:1019D00003F4E0527B68DA60094B9B68DB0803F490
:1019E000E0527B681A61074B1B6803F00F023B68EB
:1019F0001A6000BF0C37BD465DF8047B704700BF1E
:101A000000380240003C024080B588B000AF7860EA
:101A100000237B6100233B610023FB600023FB610B
:101A20000023BB617B681B6803F00103002B12D00D
:101A3000694B9B68684A23F400039360664B9A687D
:101A40007B685B6B644913438B607B685B6B002B2B
:101A500001D10123FB617B681B6803F40023002B89
:101A600017D05D4BD3F88C3023F440127B68DB6BCE
:101A700059491343C1F88C307B68DB6BB3F5801F89
:101A800001D10123FB617B68DB6B002B01D10123BA
:101A9000BB617B681B6803F48013002B17D04E4B8F
:101AA000D3F88C3023F440027B681B6C4A49134303
:101AB000C1F88C307B681B6CB3F5800F01D101231A
:101AC000FB617B681B6C002B01D10123BB617B6830
:101AD0001B6803F08073002B01D00123FB617B683E
:101AE0001B6803F02003002B00F08B803A4B1B6C2B
:101AF000394A43F080531364374B1B6C03F0805317
:101B0000BB60BB68354B1B68344A43F48073136079
:101B100001F08CFB786108E001F088FB02467B69EC
:101B2000D31A642B01D903238FE32C4B1B6803F4D6
:101B30008073002BF0D0284B1B6F03F440733B6184
:101B40003B69002B35D07B681B6B03F440733A690B
:101B50009A422ED0204B1B6F23F440733B611E4BE7
:101B60001B6F1D4A43F4803313671B4B1B6F1A4ACC
:101B700023F480331367184A3B691367164B1B6FB6
:101B800003F00103012B14D101F050FB78610AE04E
:101B900001F04CFB02467B69D31A41F28832934232
:101BA00001D9032351E30C4B1B6F03F00203002BFD
:101BB000EED07B681B6B03F44073B3F5407F11D10B
:101BC000054B9B6823F4F8127B68196B044B0B40A0
:101BD000014913438B600BE0003802400070004065
:101BE000FFFCFF0FAC4B9B68AB4A23F4F8139360E8
:101BF000A94B1A6F7B681B6BC3F30B03A6491343F6
:101C00000B677B681B6803F01003002B10D0A24BFE
:101C1000D3F88C30A04A23F08073C2F88C309E4BEE
:101C2000D3F88C207B689B6B9B491343C1F88C30A5
:101C30007B681B6803F48043002B0AD0964BD3F8D3
:101C4000903023F440327B685B6E93491343C1F8B4
:101C500090307B681B6803F40043002B0AD08E4B46
:101C6000D3F8903023F440227B689B6E8A4913435B
:101C7000C1F890307B681B6803F48033002B0AD0D6
:101C8000854BD3F8903023F440127B68DB6E824999
:101C90001343C1F890307B681B6803F40033002BBA
:101CA0000AD07D4BD3F8903023F440027B681B6F41
:101CB00079491343C1F890307B681B6803F04003F7
:101CC000002B0AD0744BD3F8903023F003027B68CA
:101CD0005B6C71491343C1F890307B681B6803F05B
:101CE0008003002B0AD06C4BD3F8903023F00C0209
:101CF0007B689B6C68491343C1F890307B681B6814
:101D000003F48073002B0AD0634BD3F8903023F098
:101D100030027B68DB6C60491343C1F890307B680C
:101D20001B6803F40073002B0AD05B4BD3F8903090
:101D300023F0C0027B681B6D57491343C1F89030F4
:101D40007B681B6803F48063002B0AD0524BD3F8E6
:101D5000903023F440727B685B6D4F491343C1F8A8
:101D600090307B681B6803F40063002B0AD04A4B59
:101D7000D3F8903023F440627B689B6D464913434F
:101D8000C1F890307B681B6803F48053002B0AD0A5
:101D9000414BD3F8903023F440527B68DB6D3E49D1
:101DA0001343C1F890307B681B6803F40053002B89
:101DB0000AD0394BD3F8903023F440427B681B6E35
:101DC00035491343C1F890307B681B6803F48003E6
:101DD000002B0AD0304BD3F8903023F080627B6820
:101DE0009B6F2D491343C1F890307B681B6803F447
:101DF0000013002B11D0284BD3F8903023F0006251
:101E00007B68DB6F24491343C1F890307B68DB6F3C
:101E1000B3F1006F01D10123BB617B681B6803F044
:101E20000803002B01D00123BB617B681B6803F40E
:101E30008023002B0AD0184BD3F8903023F0407247
:101E40007B685B6F14491343C1F890307B681B6853
:101E500003F40003002B0BD00F4BD3F8903023F08A
:101E600080527B68D3F880300B491343C1F890301F
:101E70007B681B6803F08063002B0FD0064BD3F800
:101E8000903023F000527B68D3F88430024913432A
:101E9000C1F8903002E000BF003802407B681B6848
:101EA00003F00063002B0BD08A4BD3F88C3023F067
:101EB00000727B68D3F8883086491343C1F88C30B0
:101EC0007B681B6803F08053002B0BD0814BD3F849
:101ED0008C3023F080627B68D3F88C307D491343CB
:101EE000C1F88C30FB69012B06D07B681B6803F0BE
:101EF0000073002B00F0D680764B1B68754A23F0E8
:101F00008063136001F092F9786108E001F08EF9C6
:101F100002467B69D31A642B01D9032395E16D4BEB
:101F20001B6803F00063002BF0D17B681B6803F093
:101F30000103002B21D07B685B6B002B1DD1654B0F
:101F4000D3F884301B0C03F003033B61614BD3F8DF
:101F500084301B0E03F00F03FB607B685B689A0103
:101F60003B691B041A43FB681B061A437B689B688A
:101F70001B0758491343C1F884307B681B6803F47E
:101F80000023002B04D07B68DB6BB3F5801F0AD0E5
:101F90007B681B6803F48013002B2ED07B681B6CBE
:101FA000B3F5800F29D14B4BD3F884301B0C03F0D1
:101FB00003033B61474BD3F884301B0F03F0070347
:101FC000FB607B685B689A013B691B041A437B6872
:101FD000DB681B061A43FB681B073E491343C1F825
:101FE00084303C4BD3F88C3023F01F027B685B6A53
:101FF000013B38491343C1F88C307B681B6803F000
:102000008073002B1DD0334BD3F884301B0E03F0AC
:102010000F033B612F4BD3F884301B0F03F00703F2
:10202000FB607B685B689A017B681B691B041A4331
:102030003B691B061A43FB681B0726491343C1F87B
:1020400084307B681B6803F00073002B11D07B6821
:102050005B689A017B681B691B041A437B68DB6819
:102060001B061A437B689B681B071A491343C1F878
:102070008430184B1B68174A43F08063136001F0EB
:10208000D5F8786108E001F0D1F802467B69D31AEF
:10209000642B01D90323D8E00E4B1B6803F00063C7
:1020A000002BF0D0BB69012B40F0CE80094B1B68A0
:1020B000084A23F08053136001F0B8F878610BE010
:1020C00001F0B4F802467B69D31A642B04D90323C8
:1020D000BBE000BF003802405E4B1B6803F00053BA
:1020E000B3F1005FECD07B681B6803F40023002B86
:1020F00003D07B68DB6B002B09D07B681B6803F483
:102100008013002B2ED07B681B6C002B2AD1514BE7
:10211000D3F888301B0C03F003033B614D4BD3F81D
:1021200088301B0F03F00703FB607B685B699A0133
:102130003B691B041A437B689B691B061A43FB68B7
:102140001B0744491343C1F88830424BD3F88C3005
:1021500023F4F8527B689B6A013B1B023D49134301
:10216000C1F88C307B681B6803F40013002B22D06D
:102170007B68DB6FB3F1006F1DD1364BD3F888302D
:102180001B0E03F00F033B61324BD3F888301B0F5B
:1021900003F00703FB607B685B699A017B681B6A3D
:1021A0001B041A433B691B061A43FB681B0729499A
:1021B0001343C1F888307B681B6803F00803002BC9
:1021C00028D0244BD3F888301B0E03F00F033B615B
:1021D000204BD3F888301B0C03F00303FB607B68B3
:1021E0005B699A01FB681B041A433B691B061A438F
:1021F0007B68DB691B0717491343C1F88830154B0F
:10220000D3F88C3023F440327B68DB6A11491343E6
:10221000C1F88C300F4B1B680E4A43F0805313609B
:1022200001F004F8786108E001F000F802467B69EB
:10223000D31A642B01D9032307E0064B1B6803F074
:102240000053B3F1005FEFD1002318462037BD469D
:1022500080BD00BF0038024080B489B000AF786014
:1022600039600023FB6100237B6100233B61002375
:10227000BB610023FB6175E10122FB6902FA03F3F4
:102280007B613B681B687A6913403B613A697B69F3
:102290009A4240F064813B685B6803F00303012BC2
:1022A00005D03B685B6803F00303022B30D17B68E9
:1022B0009B68BB61FB695B00032202FA03F3DB430B
:1022C000BA691340BB613B68DA68FB695B0002FADC
:1022D00003F3BA691343BB617B68BA699A607B6890
:1022E0005B68BB610122FB6902FA03F3DB43BA6955
:1022F0001340BB613B685B681B0903F00102FB698B
:1023000002FA03F3BA691343BB617B68BA695A6086
:102310003B685B6803F00303032B17D07B68DB6823
:10232000BB61FB695B00032202FA03F3DB43BA697A
:102330001340BB613B689A68FB695B0002FA03F3D8
:10234000BA691343BB617B68BA69DA603B685B6852
:1023500003F00303022B23D1FB69DA087B68083200
:1023600053F82230BB61FB6903F007039B000F2287
:1023700002FA03F3DB43BA691340BB613B681A6995
:10238000FB6903F007039B0002FA03F3BA691343E6
:10239000BB61FB69DA087B680832B96943F822102F
:1023A0007B681B68BB61FB695B00032202FA03F3D5
:1023B000DB43BA691340BB613B685B6803F003020F
:1023C000FB695B0002FA03F3BA691343BB617B68E4
:1023D000BA691A603B685B6803F44033002B00F075
:1023E000BE80664B5B6C654A43F480435364634B29
:1023F0005B6C03F48043FB60FB68614AFB699B08EC
:10240000023352F82330BB61FB6903F003039B00E6
:102410000F2202FA03F3DB43BA691340BB617B6806
:10242000584A934237D07B68574A934231D07B68F1
:10243000564A93422BD07B68554A934225D07B68FD
:10244000544A93421FD07B68534A934219D07B6809
:10245000524A934213D07B68514A93420DD07B6815
:10246000504A934207D07B684F4A934201D10923D7
:1024700012E00A2310E008230EE007230CE00623F5
:102480000AE0052308E0042306E0032304E0022316
:1024900002E0012300E00023FA6902F00302920047
:1024A0009340BA691343BB613549FB699B0802330A
:1024B000BA6941F823203D4B9B68BB613B69DB4314
:1024C000BA691340BB613B685B6803F48013002B5F
:1024D00003D0BA693B691343BB61344ABB6993605B
:1024E000324BDB68BB613B69DB43BA691340BB61BC
:1024F0003B685B6803F40013002B03D0BA693B69A7
:102500001343BB61294ABB69D360284B5B68BB613D
:102510003B69DB43BA691340BB613B685B6803F40A
:102520000033002B03D0BA693B691343BB611F4AD8
:10253000BB6953601D4B1B68BB613B69DB43BA69D8
:102540001340BB613B685B6803F48033002B03D00E
:10255000BA693B691343BB61144ABB691360FB69E9
:102560000133FB61FB690F2B7FF686AE00BF00BF16
:102570002437BD465DF8047B704700BF0038024039
:102580000038014000000240000402400008024000
:10259000000C0240001002400014024000180240EB
:1025A000001C02400020024000240240003C014088
:1025B00080B483B000AF78600B467B8013467B709D
:1025C0007B78002B03D07A887B689A6103E07B8854
:1025D0001A047B689A6100BF0C37BD465DF8047B26
:1025E000704780B485B000AF78600B467B807B6815
:1025F0005B69FB607A88FB6813401A04FB68D94367
:102600007B880B401A437B689A6100BF1437BD4634
:102610005DF8047B7047000080B586B000AF78603D
:1026200000237B6100F002FE38617B68002B01D142
:10263000012399E07B68022283F835207B68002221
:1026400083F834207B681B681A687B681B6822F05B
:1026500001021A600FE000F0E9FD02463B69D31A5F
:10266000052B08D97B6820225A657B68032283F8F2
:102670003520032378E07B681B681B6803F00103A7
:10268000002BE8D17B681B681B687B617A69384B3B
:1026900013407B617B685A687B689B681A437B6840
:1026A000DB681A437B681B691A437B685B691A43C2
:1026B0007B689B691A437B68DB691A437B681B6AEA
:1026C00013437A6913437B617B685B6A042B07D1F0
:1026D0007B68DA6A7B681B6B13437A6913437B61FF
:1026E0007B681B687A691A607B681B685B697B6121
:1026F0007B6923F007037B617B685B6A7A6913431C
:102700007B617B685B6A042B17D17B689B6A7A6963
:1027100013437B617B68DB6A002B0ED0786800F086
:1027200009FB0346002B08D07B6840225A657B6872
:10273000002283F83520012316E07B681B687A6944
:102740005A61786800F0C0FA0346FB607B68DB6D75
:102750003F229A40FB689A607B6800225A657B683A
:10276000012283F83520002318461837BD4680BD66
:102770003F8010E080B586B000AFF860B9607A6045
:102780003B600023FB75FB689B6D3B61FB6893F826
:102790003430012B01D1022348E0FB68012283F889
:1027A0003420FB6893F83530DBB2012B37D1FB685E
:1027B000022283F83520FB6800225A653B687A685C
:1027C000B968F86800F052FAFB68DB6D3F229A4066
:1027D0003B699A60FB681B681A68FB681B6842F0DB
:1027E00016021A60FB681B685A69FB681B6842F096
:1027F00080025A61FB681B6C002B07D0FB681B68CA
:102800001A68FB681B6842F008021A60FB681B68C4
:102810001A68FB681B6842F001021A6005E0FB6859
:10282000002283F834200223FB75FB7D18461837FD
:10283000BD4680BD80B584B000AF78607B689B6D7D
:10284000FB6000F0F3FCB8607B6893F83530DBB2D6
:10285000022B08D07B6880225A657B68002283F8AF
:102860003420012352E07B681B681A687B681B6870
:1028700022F016021A607B681B685A697B681B6825
:1028800022F080025A617B681B6C002B03D17B68AD
:102890009B6C002B07D07B681B681A687B681B68E1
:1028A00022F008021A607B681B681A687B681B6844
:1028B00022F001021A6013E000F0B8FC0246BB6887
:1028C000D31A052B0CD97B6820225A657B6803221A
:1028D00083F835207B68002283F83420032315E039
:1028E0007B681B681B6803F00103002BE4D17B6845
:1028F000DB6D3F229A40FB689A607B68012283F877
:1029000035207B68002283F83420002318461037D6
:10291000BD4680BD80B483B000AF78607B6893F81B
:102920003530DBB2022B04D07B6880225A6501234C
:102930000CE07B68052283F835207B681B681A68E9
:102940007B681B6822F001021A60002318460C37CE
:10295000BD465DF8047B704780B586B000AF7860F7
:102960000023BB608E4B1B688E4AA2FB03239B0A8D
:102970007B617B689B6D3B613B691B68FB607B688F
:10298000DB6D08229A40FB681340002B1AD07B684D
:102990001B681B6803F00403002B13D07B681B68C3
:1029A0001A687B681B6822F004021A607B68DB6D82
:1029B00008229A403B699A607B685B6D43F0010294
:1029C0007B685A657B68DB6D01229A40FB68134087
:1029D000002B12D07B681B685B6903F08003002B1F
:1029E0000BD07B68DB6D01229A403B699A607B6863
:1029F0005B6D43F002027B685A657B68DB6D0422E5
:102A00009A40FB681340002B12D07B681B681B6840
:102A100003F00203002B0BD07B68DB6D04229A408D
:102A20003B699A607B685B6D43F004027B685A6582
:102A30007B68DB6D10229A40FB681340002B43D06B
:102A40007B681B681B6803F00803002B3CD07B6885
:102A5000DB6D10229A403B699A607B681B681B689B
:102A600003F48023002B18D07B681B681B6803F4D9
:102A70000023002B08D17B681B6C002B24D07B68C3
:102A80001B6C786898471FE07B689B6C002B1BD001
:102A90007B689B6C7868984716E07B681B681B68AE
:102AA00003F48073002B07D17B681B681A687B686E
:102AB0001B6822F008021A607B681B6C002B03D095
:102AC0007B681B6C786898477B68DB6D20229A4096
:102AD000FB681340002B00F08F807B681B681B682D
:102AE00003F01003002B00F087807B68DB6D202251
:102AF0009A403B699A607B6893F83530DBB2052BCE
:102B000036D17B681B681A687B681B6822F0160246
:102B10001A607B681B685A697B681B6822F0800218
:102B20005A617B681B6C002B03D17B689B6C002B6C
:102B300007D07B681B681A687B681B6822F0080254
:102B40001A607B68DB6D3F229A403B699A607B6824
:102B5000012283F835207B68002283F834207B68CB
:102B60001B6D002B7ED07B681B6D7868984779E0E1
:102B70007B681B681B6803F48023002B1DD07B68D7
:102B80001B681B6803F40023002B0DD17B685B6C72
:102B9000002B31D07B685B6C786898472CE000BFD5
:102BA00000000220B5814E1B7B68DB6B002B23D01D
:102BB0007B68DB6B786898471EE07B681B681B6846
:102BC00003F48073002B0FD17B681B681A687B6845
:102BD0001B6822F010021A607B68012283F83520FE
:102BE0007B68002283F834207B68DB6B002B03D0EA
:102BF0007B68DB6B786898477B685B6D002B32D015
:102C00007B685B6D03F00103002B22D07B680522FB
:102C100083F835207B681B681A687B681B6822F084
:102C200001021A60BB680133BB607A699A4207D31C
:102C30007B681B681B6803F00103002BF2D100E0E6
:102C400000BF7B68012283F835207B68002283F86F
:102C500034207B68DB6C002B05D07B68DB6C7868EC
:102C6000984700E000BF1837BD4680BD80B485B0EE
:102C700000AFF860B9607A603B60FB681B681A6857
:102C8000FB681B6822F480221A60FB681B683A68A4
:102C90005A60FB689B68402B08D1FB681B687A6808
:102CA0009A60FB681B68BA68DA6007E0FB681B681B
:102CB000BA689A60FB681B687A68DA6000BF1437EC
:102CC000BD465DF8047B704780B485B000AF786086
:102CD0007B681B68DBB2103B134AA2FB03231B0972
:102CE000FB60124AFB6813441B781A467B68DA655E
:102CF000FB68032B08D97B681B681A460C4B1340F2
:102D00001A1D7B689A6506E07B681B681A46084BAB
:102D100013407A6893657B689B6D18461437BD46EF
:102D20005DF8047B704700BFABAAAAAA00EA0208BC
:102D300000FCFFFF80B485B000AF78600023FB7318
:102D40007B689B6ABB607B689B69002B1FD1BB685B
:102D5000032B56D801A252F823F000BF6D2D0008B6
:102D60007F2D00086D2D0008032E00087B68DB6AAC
:102D700003F08073002B46D00123FB7343E07B6894
:102D8000DB6AB3F1C07F40D10123FB733DE07B6878
:102D90009B69B3F5005F21D1BB68032B37D801A233
:102DA00052F823F0B52D0008BB2D0008B52D000802
:102DB000CD2D00080123FB7330E07B68DB6A03F054
:102DC0008073002B25D00123FB7322E07B68DB6A34
:102DD000B3F1C07F1FD10123FB731CE0BB68022B42
:102DE00003D9BB68032B03D018E00123FB7315E064
:102DF0007B68DB6A03F08073002B0ED00123FB732A
:102E00000BE000BF0AE000BF08E000BF06E000BF23
:102E100004E000BF02E000BF00E000BFFB7B1846FB
:102E20001437BD465DF8047B704700BF80B400AF27
:102E3000054B1B68044A43F48073136000BFBD4612
:102E40005DF8047B704700BF0070004080B582B021
:102E500000AF00237B60234B1B6C224A43F080535E
:102E60001364204B1B6C03F080533B603B681E4B8C
:102E70001B681D4A43F48033136000F0D7F9786073
:102E800009E000F0D3F902467B68D31AB3F57A7FE4
:102E900001D9032322E0144B5B6803F48033B3F5BC
:102EA000803FEED1104B1B680F4A43F40033136090
:102EB00000F0BCF9786009E000F0B8F902467B68E0
:102EC000D31AB3F57A7F01D9032307E0064B5B6879
:102ED00003F40033B3F5003FEED100231846083762
:102EE000BD4680BD003802400070004080B485B00F
:102EF00000AF78607B6803F00703FB600B4BDB6877
:102F0000BB60BA684FF6FF031340BB60FB681A0250
:102F1000BB681A43064B1343BB60044ABB68D360CB
:102F200000BF1437BD465DF8047B704700ED00E03C
:102F30000000FA0580B400AF044BDB681B0A03F005
:102F400007031846BD465DF8047B704700ED00E0BE
:102F500080B483B000AF0346FB7197F90730002BB4
:102F60000BDBFB7903F01F02074997F907305B0978
:102F7000012000FA02F241F8232000BF0C37BD46C1
:102F80005DF8047B704700BF00E100E080B483B0CF
:102F900000AF03463960FB7197F90730002B0ADB5D
:102FA0003B68DAB20C4997F907301201D2B20B44F0
:102FB00083F800230AE03B68DAB20849FB7903F0A2
:102FC0000F03043B1201D2B20B441A7600BF0C3738
:102FD000BD465DF8047B704700E100E000ED00E0D5
:102FE00080B489B000AFF860B9607A60FB6803F024
:102FF0000703FB61FB69C3F10703042B28BF04230C
:10300000BB61FB690433062B02D9FB69033B00E07B
:1030100000237B614FF0FF32BB6902FA03F3DA430E
:10302000BB681A407B699A404FF0FF317B6901FA17
:1030300003F3D9437B680B40134318462437BD463E
:103040005DF8047B7047000080B400AFBFF34F8F82
:1030500000BF064BDB6803F4E0620449044B1343F2
:10306000CB60BFF34F8F00BF00BFFDE700ED00E076
:103070000400FA0580B582B000AF78607868FFF789
:1030800035FF00BF0837BD4680BD80B586B000AFB4
:103090000346B9607A60FB7300237B61FFF74AFF48
:1030A00078617A68B9687869FFF79AFF024697F9FC
:1030B0000F3011461846FFF769FF00BF1837BD46AD
:1030C00080BD80B582B000AF0346FB7197F9073031
:1030D0001846FFF73DFF00BF0837BD4680BD80B5ED
:1030E00000AFFFF7B1FF000080B400AFBFF35F8F08
:1030F00000BF074B5B6A064A23F480335362054BDB
:1031000000225A6000BFBD465DF8047B704700BFD7
:1031100000ED00E090ED00E080B483B000AF786097
:103120000B4A7B6843F0010353600A4B5B6A094A10
:1031300043F480335362BFF34F8F00BFBFF36F8FF1
:1031400000BF00BF0C37BD465DF8047B704700BF71
:1031500090ED00E000ED00E080B483B000AF786057
:103160007B685A781B4B9A601A4B1B69194A23F0EB
:1031700001031361174A7B685B68D3607B681B7B24
:103180001A077B68DB7A1B061A437B689B7ADB0491
:103190001A437B685B7B9B041A437B689B7B5B04C5
:1031A0001A437B68DB7B1B041A437B685B7A1B0238
:1031B0001A437B681B7A5B0013437A6812781146C6
:1031C000044A0B43136100BF0C37BD465DF8047B16
:1031D000704700BF90ED00E080B500AF084B1B6862
:1031E000074A43F4007313600320FFF743FF0F20E7
:1031F00016F0B0FF16F086FF0023184680BD00BF12
:10320000003C024080B400AF064B1B781A46064BC8
:103210001B681344044A136000BFBD465DF8047B7D
:10322000704700BF08000220EC09022080B400AF04
:10323000034B1B681846BD465DF8047B704700BF12
:10324000EC09022080B584B000AF7860FFF7EEFF94
:10325000B8607B68FB60FB68B3F1FF3F05D00A4BA9
:103260001B781A46FB681344FB6000BFFFF7DEFFC4
:103270000246BB68D31AFA689A42F7D800BF00BF6B
:103280001037BD4680BD00BF0800022080B400AFEB
:10329000034B1B681B0C1846BD465DF8047B70474A
:1032A000002004E080B584B000AF78607B68002B1C
:1032B00001D1012386E07B68D3F88430002B06D14E
:1032C0007B682022C3F88420786814F08FFE3F4B7F
:1032D0005B6C3E4A43F4804353643C4B5B6C03F4A9
:1032E0008043BB60BB683A4B5B68394A23F40003F8
:1032F0005360374B5A687B689B68354913434B6072
:10330000334B5B687B681B6803F580531B687A68E6
:10331000126843F0010302F580521360FFF786FF45
:10332000F86011E0FFF782FF0246FB68D31AB3F59D
:10333000FA7F09D97B680422C3F888207B68E022E1
:10334000C3F8842001233DE07B681B6803F58053AC
:103350001B6803F00103002BE4D1786800F05CFFE8
:10336000786801F007F8786801F05DF87B685B68C1
:103370001A460021786800F0C5FF7B681B68DA6B8D
:103380007B681B6842F40272DA637B681B68D3F8BF
:103390000C117B681A680F4B0B43C2F80C317B6829
:1033A0001B68D3F810217B681B6842F40312C3F832
:1033B00010217B680022C3F888207B681022C3F8A4
:1033C0008420002318461037BD4680BD00380240D7
:1033D000003801406000020080B584B000AF786022
:1033E0007B68D3F88430102B5FD17B682022C3F830
:1033F00084207B6801229A657B680422DA667868FB
:1034000000F0F6F97B681B681B68FB600120FFF782
:1034100019FF7B681B68FA681A607B681B6803F5F4
:1034200080539B697A68126843F4005302F5805216
:1034300093617B681B6803F580539B697A68126807
:1034400043F0020302F580529361786800F080FD3A
:103450007B681B681A687B681B6842F008021A6068
:103460007B681B681B68FB600120FFF7EBFE7B6835
:103470001B68FA681A607B681B681A687B681B689F
:1034800042F004021A607B681B6803F58053D96917
:103490007B681A68074B0B4302F58052D3617B6847
:1034A0004022C3F88420002300E00123184610378F
:1034B000BD4680BDC1A0010080B586B000AF786078
:1034C0007B68D3F88430402B6ED17B682022C3F810
:1034D00084207B681B6803F58053D9697B681A6870
:1034E000344B0B4002F58052D3617B681B6803F5B7
:1034F00080539B697A68126823F4005302F5805266
:1035000093617B681B6803F580539B697A68126836
:1035100023F0020302F5805293617B681B681A68EE
:103520007B681B6822F004021A607B681B681B68BA
:103530003B610120FFF786FE7B681B683A691A60D1
:10354000786800F005FD7B681B681A687B681B685B
:1035500022F008021A607B681B681B683B6101202F
:10356000FFF770FE7B681B683A691A6000237B6175
:103570000EE07B687A69123253F82230FB60FB68F8
:103580005B6843F00042FB685A607B6901337B61F2
:103590007B69032BEDD97B6800229A657B6810223A
:1035A000C3F88420002300E0012318461837BD46E5
:1035B00080BD00BF3E5FFEFF80B582B000AF786087
:1035C00039603B68002B09D17B68D3F8883043F021
:1035D00001027B68C3F88820012345E07B68D3F8AB
:1035E0008430402B3FD13B685A6B7B68DA63012201
:1035F0003968786800F086FF0346002B09D07B68A5
:10360000D3F8883043F002027B68C3F88820012396
:103610002AE0BFF34F8F00BF7B689B6A5A1C7B6810
:103620009A627B689B6A032B04D97B689B6A1A1F8A
:103630007B689A627B681B6803F580535B6903F0C3
:103640000403002B0DD07B681B6803F580531A46DA
:10365000042353617B681B6803F580531A460023DB
:103660005360002300E0012318460837BD4680BDA3
:1036700080B588B000AF7860396000237B6100239B
:10368000FB743B68002B09D17B68D3F8883043F08A
:1036900001027B68C3F888200123A4E07B68D3F88B
:1036A0008430402B01D001239DE07B68DB6DFB6102
:1036B0007B68FA69123253F82230BB617B68DB6E9B
:1036C000C3F10403FB6066E0BB691B6803F480730D
:1036D000002B07D0BB69DA697B689A67BB699A6976
:1036E0007B685A67BB691B6803F40073002B03D126
:1036F0007B68DB6F002B3CD0BB691B6803F4007355
:10370000002B05D07B6800221A667B6800225A666F
:10371000BB691B681B0CC3F30D03BB60BB691B6853
:1037200003F48073002B05D0BB691A687B681A67A5
:103730000123FB74BB699A68BB691A627B6803F159
:103740007C007B6803F18001BB691B6A1A46BB6879
:103750009BB214F01BFF7B681B6E5A1C7B681A66B9
:103760007B685A6EBB681A447B685A66BB69002244
:103770001A62FB690133FB61FB69032B02D9FB6908
:10378000043BFB617B68FA69123253F82230BB615B
:103790007B6901337B61BB691B68002B06DB7A699F
:1037A000FB689A4202D2FB7C002B8DD07B68DA6EDC
:1037B0007B691A447B68DA667B68DB6E002B02D07B
:1037C000786800F015F87B68FA69DA65FB7C012BF4
:1037D00008D17B68DA6F3B681A607B680022DA6781
:1037E000002300E0012318462037BD4680BD0000BD
:1037F00080B588B000AF78600023BB600123FB7404
:103800007B689B6EFB617B68FA69123253F8223049
:103810007B617B68DB6EBB6142E07B691B6A002BCE
:1038200012D107F10803184614F080FEBB68002B84
:1038300002D10023FB7407E0BB681A467B691A6259
:10384000BB681A467B699A60FB7C002B28D07B689A
:103850009B6D002B06D17B685A69264B13437A690E
:10386000536005E07B685B6943F480427B695A6082
:103870007B691B6843F000427B691A60FB69013376
:10388000FB61FB69032B02D9FB69043BFB617B688D
:10389000FA69123253F822307B61BB69013BBB618C
:1038A000BB69002B02D0FB7C002BB6D17B68DB6EA2
:1038B000BA699A421AD0FB69033303F00303FB6031
:1038C000BFF35F8F00BF7B681969FA6813469B00DE
:1038D0001344DB00CA187B681B6803F580539A60A9
:1038E0007B68FA699A667B68BA69DA6600BF203736
:1038F000BD4680BD0040008080B586B000AF7860D6
:103900007B681833BB60BB689B6A7B61BB68DB6A02
:103910003B610123FB7347E00123BB737B69013BE0
:103920007B61BA683B6904339B0013445B68002BDE
:103930000AD13B6901333B613B69032B02D93B69E7
:10394000043B3B610023BB73BB7B002B2CD07B680B
:10395000D9683A6913469B001344DB000B441B688B
:10396000002B1FDBBA683B6904339B0013445B6880
:10397000184614F04DFEBA683B6904339B001344AB
:1039800000225A603B6901333B613B69032B02D93A
:103990003B69043B3B61BB687A699A62BB683A69E0
:1039A000DA6201E00023FB737B69002B02D0FB7B12
:1039B000002BB1D1002318461837BD4680BD00004A
:1039C00080B586B000AF78607B681B689B6B7B61BD
:1039D0007B681B6803F580535B693B617B681B68F0
:1039E00003F58053DB69FB604B4B5B69BB603B6954
:1039F00003F04003002B0ED0FB6803F04003002BC4
:103A000009D07B681B6803F580531A46434B53610A
:103A1000786813F0ADFF3B6903F00103002B0FD072
:103A2000FB6803F00103002B0AD07B681B6803F5D9
:103A300080531A464FF001135361786813F0A8FFC2
:103A40003B6903F40043002B42D0FB6803F40043BE
:103A5000002B3DD07B68D3F8883043F008027B68A8
:103A6000C3F888203B6903F40053002B1AD07B680D
:103A70001B6803F580535A69294B13407A68C2F8D2
:103A80008C307B681B6803F58053DB697A681268A9
:103A900023F4C03302F58052D3617B68E022C3F87F
:103AA000842012E07B681B6803F580535A6948F252
:103AB000806313407A68C2F88C307B681B6803F51A
:103AC00080531A4648F280635361786813F070FFA0
:103AD0007B6903F00803002B0ED07B681B68DB6A50
:103AE00003F060027B68C3F89420786800F01AF84D
:103AF0007B680022C3F89420BB6803F40023002BEA
:103B000006D0054B4FF400225A61786800F014F893
:103B100000BF1837BD4680BD003C01404000010099
:103B200000207E0080B483B000AF786000BF0C3707
:103B3000BD465DF8047B704780B483B000AF786009
:103B400000BF0C37BD465DF8047B704780B586B07A
:103B500000AFF860B9607A603B60FB681B681B6966
:103B60007B617B6903F01C037B61BB68DB029BB25A
:103B70007A6913437B617B689B0103F4F8637A697C
:103B800013437B617B6923F002037B617B6943F014
:103B900001037B61FB681B687A691A61FFF746FBCA
:103BA00038610DE0FFF742FB02463B69D31AB3F5DB
:103BB000803F01D3012310E0FB681B681B697B6118
:103BC0007B6903F00103002BECD1FB681B685B6988
:103BD0009BB21A463B681A60002318461837BD4648
:103BE00080BD80B586B000AFF860B9607A603B6098
:103BF000FB681B681B697B617B6903F01C037B61AD
:103C0000BB68DB029BB27A6913437B617B689B01D3
:103C100003F4F8637A6913437B617B6943F0020321
:103C20007B617B6943F001037B613B689AB2FB686F
:103C30001B685A61FB681B687A691A61FFF7F6FA1C
:103C400038610DE0FFF7F2FA02463B69D31AB3F58B
:103C5000803F01D3012309E0FB681B681B697B617E
:103C60007B6903F00103002BECD1002318461837C1
:103C7000BD4680BD80B483B000AF786039603B68DA
:103C8000002B01D10123E6E07B681B681B6803F071
:103C90001003002B14BF01230023DBB21A463B683C
:103CA00083F828207B681B681B6803F060023B6870
:103CB0005A627B681B681B6803F40073002B0CBFFF
:103CC00001230023DBB21A463B6883F820207B687F
:103CD0001B681B6803F48033002B14BF01230023EF
:103CE000DBB21A463B68DA777B681B681B6803F413
:103CF0000053002B0CBF01230023DBB21A463B68A4
:103D00009A777B681B681B6803F48053002B14BFF1
:103D100001230023DBB21A463B681A777B681B68D5
:103D20001B6803F400623B689A617B681B681B6830
:103D300003F480423B685A617B681B681B6803F48C
:103D40008003002B0CBF01230023DBB21A463B6823
:103D50005A747B681B681B6803F40003002B0CBFBC
:103D600001230023DBB21A463B681A747B681B6888
:103D70001B6803F08003002B14BF01230023DBB278
:103D80001A463B68DA737B681B681B6803F4602281
:103D90003B689A607B681B681B6803F48063002B98
:103DA00014BF01230023DBB21A463B681A717B68FB
:103DB0001B681B6803F00073002B14BF0123002352
:103DC000DBB21A463B689A737B681B689B6903F0F9
:103DD0000203002B14BF01230023DBB21A463B6809
:103DE00083F854207B681B689B6903F08003002BD9
:103DF0000CBF01230023DBB21A463B6883F84C203A
:103E00007B681B689B6903F030023B681A657B681E
:103E10001B689B691B0C9AB23B689A647B681B68A1
:103E20009B6903F00403002B14BF01230023DBB2C2
:103E30001A463B6883F856207B681B689B6903F031
:103E40000803002B14BF01230023DBB21A463B6892
:103E500083F85520002318460C37BD465DF8047BD7
:103E6000704780B582B000AF786039603B68002B46
:103E700001D101230BE07B68D3F88430102B05D1EE
:103E80003968786800F08AF8002300E001231846BA
:103E90000837BD4680BD000080B584B000AF7860B3
:103EA0007B681B681B69FB60FB6823F01C03FB60DD
:103EB000FDF744FDB860BB68144A934204D8FB6820
:103EC00043F00803FB6019E0BB68114A934204D237
:103ED000FB6843F00C03FB6010E0BB680D4A9342A3
:103EE0000CD9BB680C4A934204D8FB6843F0040326
:103EF000FB6003E0FB6843F01003FB607B681B681A
:103F0000FA681A6100BF1037BD4680BDBF0E1602A9
:103F100000879303FFE0F5057FD1F00880B483B0FC
:103F200000AF78607B68D3F8883018460C37BD4600
:103F30005DF8047B704780B483B000AF78607B6825
:103F4000D3F88C3018460C37BD465DF8047B7047BB
:103F500080B584B000AF78600023FB607B681B688D
:103F600003F580539B697A68126843F4801302F565
:103F7000805293617B681B6803F580539B69FB60EB
:103F80000120FFF75FF97B681A68FB6802F5805231
:103F9000936100BF1037BD4680BD000080B584B07E
:103FA00000AF786039607B681B681B68FB60FA684B
:103FB000534B1340FB603B689B7B5B063A68127C6B
:103FC000002A02D14FF4000200E0002213433A68B5
:103FD000527C002A02D14FF4800200E000221A43F2
:103FE0003B689B681A433B68DB7F1B041A433B68B2
:103FF0005B6913433A68927F002A02D14FF4005262
:1040000000E000221A433B681B7F1B031A433B68F6
:104010009B691A433B681B799B0213433A6892F8E9
:104020002020002A02D14FF4007200E000221A433F
:104030003B68DB7BDB011A433B685B6A1A433B68E6
:1040400093F828301B011343FA681343FB607B6825
:104050001B68FA681A607B681B681B68FB6001209C
:10406000FFF7F0F87B681B68FA681A607B681B68CA
:104070009B69FB60FA684FF641731340FB603B6835
:104080009B6C1B043A6892F84C20002A01D18022D4
:1040900000E000221A433B681B6D13433A6892F814
:1040A0005520012A01D1082200E0002213433A687A
:1040B00092F85620012A01D1042200E00022134385
:1040C0003A6892F85420012A01D1022200E000222D
:1040D0001343FA681343FB607B681B68FA689A61B4
:1040E0007B681B689B69FB600120FFF7ABF87B686E
:1040F0001B68FA689A6100BF1037BD4680BD00BFDB
:104100000F8120FD80B584B000AF786039607B6896
:104110001B6803F580539B69FB60FA683D4B1340B5
:10412000FB603B681B7B002B02D14FF0806200E0FC
:1041300000223B685B7B5B0613433A68527F002A90
:1041400002D14FF4801200E000221A433B689B7BAF
:104150005B051A433B685B691A433B681B7FDB01C5
:104160001A433B689B7F9B011A433B681B6A1A43B7
:104170003B6893F824309B001343FA681343FB60B9
:104180007B681B6803F580531A46FB6893617B6864
:104190001B6803F580539B69FB600120FFF752F811
:1041A0007B681B6803F580531A46FB6893613B6884
:1041B0001B795A063B689B681A433B689B691A4304
:1041C0003B681B691A433B6893F82530DB011A43AF
:1041D0003B689B6A9B001A433B681B6813437A68E1
:1041E000126843F4000302F5805213607B681B6879
:1041F00003F580531B68FB600120FFF723F87B6801
:104200001B6803F580531A46FB68136000BF103724
:10421000BD4680BD233FDEF880B5A6B000AF786014
:10422000012387F84430012387F845300023FB63DE
:10423000002387F85330012387F85230002387F892
:104240005030012387F84230012387F838300023AB
:1042500087F85430002387F843300023BB650023E0
:1042600087F85C300023FB67002387F88030002349
:10427000C7F88430002387F88A30002387F8883015
:104280004FF48043BB644FF40063FB64002387F862
:10429000893007F1340319467868FFF77FFE012360
:1042A0003B7501237B75012387F825300123BB75FE
:1042B0000023FB61002387F82430002387F8263091
:1042C0000023BB62012387F82C3001233B734FF49A
:1042D00080333B614FF480033B624FF40053BB617A
:1042E000012387F82D3000233B630023BB6007F1D7
:1042F000080319467868FFF705FF00BF9837BD46E9
:1043000080BD000080B487B000AFF860B9607A600B
:104310007B6805331B781B027A68043212781343DA
:104320007B61BA68114B13441A467B6913607B6842
:1043300003331B781A067B6802331B781B041A436D
:104340007B6801331B781B0213437A68127813438E
:104350007B61BA68064B13441A467B69136000BF41
:104360001C37BD465DF8047B704700BF40800240AB
:104370004480024080B485B000AF78600023FB60C9
:104380003EE07B68D968FA6813469B001344DB0063
:104390000B44BB60BB6800221A60BB6800225A60F5
:1043A000BB6800229A60BB680022DA60B9687B684B
:1043B000FA68063243F82210BB681B6843F4801287
:1043C000BB681A60FB68022B0CD87B68D968FB6855
:1043D0005A1C13469B001344DB000B441A46BB686F
:1043E000DA6004E07B68DB681A46BB68DA60BB68A9
:1043F0001B6843F44002BB681A60FB680133FB6032
:10440000FB68032BBDD97B6800229A627B68DA685F
:104410007B681B6803F580531A6100BF1437BD46E3
:104420005DF8047B704780B485B000AF78600023EE
:10443000FB6048E07B681969FA6813469B001344E7
:10444000DB000B44BB60BB6800221A60BB68002223
:104450005A60BB6800229A60BB680022DA60BB68C1
:1044600000221A62BB6800225A62BB684FF0004209
:104470001A607B685B6943F48042BB685A60BB6822
:104480005B6823F00042BB685A60B9687B68FA68D1
:10449000123243F82210FB68022B0CD87B68196992
:1044A000FB685A1C13469B001344DB000B441A465E
:1044B000BB68DA6004E07B681B691A46BB68DA6097
:1044C000FB680133FB60FB68032BB3D97B680022D8
:1044D000DA657B6800221A667B6800229A667B6830
:1044E0000022DA667B6800229A657B681A697B681D
:1044F0001B6803F58053DA6000BF1437BD465DF8D2
:10450000047B704780B491B000AFF860B9607A6006
:10451000FB6818337B627B6A1B69FB637B6A1B69E0
:104520003B6200237B637B6AFA6B53F822303B6368
:10453000BB689B68FB620023BB623B6B1B6803F09C
:104540000043B3F1004F07D07A6AFB6B04339B0042
:1045500013445B68002B01D0022311E17B6B013314
:104560007B63FB6A1B681A463B6B9A603B6B5A681D
:10457000864B1340FA6A52681A433B6B5A60BB6819
:104580001B6803F00103002B08D03B6B1B6823F46E
:104590004002BB685B691A433B6B1A60BB681B68CF
:1045A00003F02003002B08D03B6B1B6823F0406214
:1045B000BB681B691A433B6B1A60BB681B6803F03E
:1045C0000403002B05D03B6B1B6843F080023B6B60
:1045D0001A603B6B1B6843F080523B6B1A6082E0B1
:1045E0003B6B1B6823F000523B6B1A607B68002B0F
:1045F00006D03B6B1B6843F080423B6B1A6005E0C2
:104600003B6B1B6823F080423B6B1A60FB6B0133F2
:10461000FB63FB6B032B02D9FB6B043BFB637B6AE5
:10462000FA6B53F822303B633B6B1B6803F000438B
:10463000B3F1004F07D07A6AFB6B04339B0013443D
:104640005B68002B29D03B6AFB637B6AFA6B53F8EB
:1046500022303B630023BB6319E0BFF35F8F00BFD1
:104660003B6B1B6823F000423B6B1A60FB6B013312
:10467000FB63FB6B032B02D9FB6B043BFB637B6A85
:10468000FA6B53F822303B63BB6B0133BB63BA6BED
:104690007B6B9A42E1D3022372E03B6B1B6823F0F1
:1046A00080523B6B1A607B6B01337B63FB6A9B68B8
:1046B000FB62FB6A1B681A463B6B9A603B6B5A684D
:1046C000324B1340FA6A52681A433B6B5A60BB6A1A
:1046D0000133BB62BFF35F8F00BF3B6B1B6843F0CE
:1046E00000423B6B1A60FB6A9B68002B7FF478AF3B
:1046F0007B68002B06D03B6B1B6843F080423B6B12
:104700001A6005E03B6B1B6823F080423B6B1A602C
:104710003B6B1B6843F000523B6B1A607B6A3A6A42
:1047200053F822303B63BFF35F8F00BF3B6B1B68C6
:1047300043F000423B6B1A607B6A5A6A796AFB6BF2
:1047400004339B000B445A607B6AFA6B1A61EFF3E7
:1047500010833B613B69FB6101237B617B6983F3D0
:10476000108800BF7B6A9A6ABB6A13445A1C7B6A32
:104770009A62FB69BB61BB6983F3108800BF0023A9
:1047800018464437BD465DF8047B704700E0FFFFE4
:1047900080B483B000AF78607B681B684AF6AA22B9
:1047A0001A60002318460C37BD465DF8047B70473D
:1047B00080B584B000AF78607B68002B01D1012305
:1047C00071E07B685B7FDBB2002B05D17B68002248
:1047D0001A77786814F01EFC7B6802225A777B688F
:1047E0001B68DB6803F01003102B53D07B681B6839
:1047F000CA225A627B681B6853225A62786800F0AA
:104800004BFA0346FB73FB7B002B2AD17B681B68AA
:1048100099687B681A68264B0B4093607B681B681D
:1048200099687B685A687B681B691A437B685B6977
:104830001A437B681B680A439A607B681B687A6826
:10484000D2681A617B681B6819697B689B681A04C7
:104850007B681B680A431A61786800F054FA0346C3
:10486000FB73FB7B002B10D17B681B68DA6C7B68C9
:104870001B6822F00802DA647B681B68D96C7B68CD
:104880009A697B681B680A43DA647B681B68FF22AD
:104890005A6201E00023FB73FB7B002B02D17B6893
:1048A00001225A77FB7B18461037BD4680BD00BFFA
:1048B000BFFF8FFF90B587B000AFF860B9607A6036
:1048C00000237B61FB681B7F012B01D1022385E064
:1048D000FB6801221A77FB6802225A777B68002B5B
:1048E00026D1FB681B689B6803F04003002B02D1B4
:1048F000BB680022DA70BB681B78184600F028FA03
:1049000003461C04BB685B78184600F021FA034696
:104910001B021C43BB689B78184600F019FA03463B
:1049200044EA0302BB68DB789B0513437B6118E014
:10493000FB681B689B6803F04003002B02D1BB6837
:104940000022DA70BB681B781A04BB685B781B0214
:104950001343BA6892781A43BB68DB789B0513430C
:104960007B61FB681B68CA225A62FB681B68532282
:104970005A62F86800F090F90346FB74FB7C002B48
:104980001ED1FB681A687969164B0B401360FB68EF
:104990001B689A68FB681B6822F480229A60FB6897
:1049A0001B689968BB68DA68BB681B691A43FB68B7
:1049B0001B680A439A60F86800F0A5F90346FB7487
:1049C000FB7C002B02D1FB6801225A77FB681B6835
:1049D000FF225A62FB6800221A77FB7C18461C37BC
:1049E000BD4690BD7F7F7F0080B586B000AFF86088
:1049F000B9607A6000237B61FB681B689A6ABB68B8
:104A00005A60FB681B681B69C3F30E02BB689A609F
:104A1000FB681B681A68224B13407B617B691B0C87
:104A2000DBB203F03F03DAB2BB681A707B691B0A82
:104A3000DBB203F07F03DAB2BB685A707B69DBB28A
:104A400003F07F03DAB2BB689A707B699B0DDBB21F
:104A500003F00103DAB2BB68DA707B68002B1AD16D
:104A6000BB681B78184600F091F903461A46BB68EC
:104A70001A70BB685B78184600F088F903461A463E
:104A8000BB685A70BB689B78184600F07FF90346F4
:104A90001A46BB689A70002318461837BD4680BD79
:104AA0007F7F7F0090B587B000AFF860B9607A6013
:104AB00000237B61FB681B7F012B01D102236FE088
:104AC000FB6801221A77FB6802225A777B68002B69
:104AD0000ED1BB685B7803F01003002B08D0BB68D5
:104AE0005B7823F01003DBB20A33DAB2BB685A708A
:104AF0007B68002B1CD1BB68DB78184600F028F9D6
:104B000003461C04BB685B78184600F021F9034695
:104B10001B021C43BB689B78184600F019F903463A
:104B200044EA0302BB681B785B0313437B610EE01E
:104B3000BB68DB781A04BB685B781B021343BA6856
:104B400092781A43BB681B785B0313437B61FB6855
:104B50001B68CA225A62FB681B6853225A62F868B3
:104B600000F09AF80346FB74FB7C002B0AD1FB682B
:104B70001A6879690C4B0B405360F86800F0C3F871
:104B80000346FB74FB7C002B02D1FB6801225A77A1
:104B9000FB681B68FF225A62FB6800221A77FB7CC5
:104BA00018461C37BD4690BD3FFFFF0080B586B05C
:104BB00000AFF860B9607A6000237B61FB681B6816
:104BC0005A68214B13407B617B691B0CDAB2BB68CE
:104BD000DA707B691B0ADBB203F01F03DAB2BB6831
:104BE0005A707B69DBB203F03F03DAB2BB689A709C
:104BF0007B695B0BDBB203F00703DAB2BB681A70A8
:104C00007B68002B1AD1BB68DB78184600F0BEF831
:104C100003461A46BB68DA70BB685B78184600F03A
:104C2000B5F803461A46BB685A70BB689B781846AD
:104C300000F0ACF803461A46BB689A700023184689
:104C40001837BD4680BD00BF3FFFFF0080B584B070
:104C500000AF78600023FB607B681B680D4ADA6058
:104C6000FEF7E4FAF86009E0FEF7E0FA0246FB68B6
:104C7000D31AB3F57A7F01D9032307E07B681B6859
:104C8000DB6803F02003002BEED00023184610371A
:104C9000BD4680BD5FFF010080B584B000AF786085
:104CA0000023BB600023FB737B681B68DB6803F099
:104CB0004003002B22D17B681B68DA687B681B6885
:104CC00042F08002DA60FEF7B1FAB8600CE0FEF75D
:104CD000ADFA0246BB68D31AB3F57A7F04D97B6874
:104CE00004225A770123FB737B681B68DB6803F09F
:104CF0004003002B02D1FB7B012BE8D1FB7B184644
:104D00001037BD4680BD80B584B000AF7860002309
:104D1000FB737B681B68DA687B681B6822F0800283
:104D2000DA607B681B689B6803F02003002B0AD1C4
:104D30007868FFF78BFF0346002B04D07B680422C2
:104D40005A770123FB73FB7B18461037BD4680BDA5
:104D500080B485B000AF0346FB710023FB6005E023
:104D6000FB680133FB60FB790A3BFB71FB79092B84
:104D7000F6D8FB68DBB21B01DAB2FB791343DBB276
:104D800018461437BD465DF8047B704780B485B083
:104D900000AF0346FB710023FB60FB791B09DBB20C
:104DA0001A4613469B0013445B00FB60FB68DAB2B3
:104DB000FB7903F00F03DBB21344DBB21846143760
:104DC000BD465DF8047B704780B483B000AF786067
:104DD0007B681B7F012B01D1022320E07B6801222D
:104DE0001A777B6802225A777B681B68CA225A624C
:104DF0007B681B6853225A627B681B689A687B68D1
:104E00001B6842F020029A607B681B68FF225A628E
:104E10007B6801225A777B6800221A7700231846A4
:104E20000C37BD465DF8047B704780B582B000AF9B
:104E300078607B68002B01D1012340E07B68DB6F49
:104E4000002B06D17B68002283F87820786814F064
:104E50008FFA7B682422DA677B681B681A687B6894
:104E60001B6822F001021A607B685B6A002B02D08B
:104E7000786800F049FE786800F0E2FB0346012BF9
:104E800001D101231BE07B681B685A687B681B68A3
:104E900022F490425A607B681B689A687B681B68A2
:104EA00022F02A029A607B681B681A687B681B687C
:104EB00042F001021A60786800F0C8FE0346184606
:104EC0000837BD4680BD80B58AB002AFF860B960D2
:104ED0003B601346FB80FB68DB6F202B77D1BB6800
:104EE000002B02D0FB88002B01D1012370E0FB686E
:104EF0000022C3F88420FB682122DA67FEF796F9C6
:104F00007861FB68FA88A3F85020FB68FA88A3F858
:104F10005220FB689B68B3F5805F08D1FB681B6972
:104F2000002B04D10023FB61BB68BB6103E0BB68BD
:104F3000FB610023BB612FE03B6800937B6900228B
:104F40008021F86800F02AFF0346002B04D0FB689C
:104F50002022DA6703233BE0FB69002B0BD1BB69FE
:104F60001B881A46FB681B68C2F308029A62BB6979
:104F70000233BB6107E0FB691A78FB681B689A6221
:104F8000FB690133FB61FB68B3F852309BB2013B14
:104F90009AB2FB68A3F85220FB68B3F852309BB278
:104FA000002BC9D13B6800937B6900224021F8683F
:104FB00000F0F4FE0346002B04D0FB682022DA67E1
:104FC000032305E0FB682022DA67002300E00223C8
:104FD00018462037BD4680BD80B5BAB000AF7860B6
:104FE0007B681B68DB69C7F8E4307B681B681B685B
:104FF000C7F8E0307B681B689B68C7F8DC30D7F8DF
:10500000E42040F60F031340C7F8D830D7F8D83063
:10501000002B15D1D7F8E43003F02003002B0FD07C
:10502000D7F8E03003F02003002B09D07B689B6E9B
:10503000002B00F0C6827B689B6E78689847C0E2C0
:10504000D7F8D830002B00F01781D7F8DC3003F008
:105050000103002B06D1D7F8E020854B1340002B2D
:1050600000F00A81D7F8E43003F00103002B11D0DF
:10507000D7F8E03003F48073002B0BD07B681B68FB
:1050800001221A627B68D3F8843043F001027B6806
:10509000C3F88420D7F8E43003F00203002B11D0CA
:1050A000D7F8DC3003F00103002B0BD07B681B68C2
:1050B00002221A627B68D3F8843043F004027B68D2
:1050C000C3F88420D7F8E43003F00403002B11D098
:1050D000D7F8DC3003F00103002B0BD07B681B6892
:1050E00004221A627B68D3F8843043F002027B68A2
:1050F000C3F88420D7F8E43003F00803002B17D05E
:10510000D7F8E03003F02003002B05D1D7F8DC30CE
:1051100003F00103002B0BD07B681B6808221A6286
:105120007B68D3F8843043F008027B68C3F884209E
:10513000D7F8E43003F40063002B12D0D7F8E03046
:1051400003F08063002B0CD07B681B684FF4006277
:105150001A627B68D3F8843043F020027B68C3F87E
:1051600084207B68D3F88430002B00F02C82D7F8A1
:10517000E43003F02003002B0DD0D7F8E03003F02B
:105180002003002B07D07B689B6E002B03D07B682D
:105190009B6E786898477B68D3F88430C7F8D43022
:1051A0007B681B689B6803F04003402B05D0D7F851
:1051B000D43003F02803002B4FD0786800F0E8FFCC
:1051C0007B681B689B6803F04003402B41D17B68E0
:1051D0001B680833C7F89C30D7F89C3053E8003F71
:1051E000C7F89830D7F8983023F04003C7F8D0308C
:1051F0007B681B680833D7F8D020C7F8A820C7F809
:10520000A430D7F8A410D7F8A82041E80023C7F8A5
:10521000A030D7F8A030002BD9D17B685B6F002B72
:1052200013D07B685B6F134A1A657B685B6F184607
:10523000FDF770FB0346002B17D07B685B6F1B6D7F
:105240007A68526F104698470FE0786800F0E4F9EA
:105250000BE0786800F0E0F907E0786800F0DCF92E
:105260007B680022C3F88420ADE100BFABE100BF42
:1052700020010004A76400087B681B6E012B40F02E
:105280006681D7F8E43003F01003002B00F05F8153
:10529000D7F8E03003F01003002B00F058817B6852
:1052A0001B6810221A627B681B689B6803F040032E
:1052B000402B40F0D0807B685B6F1B685B68A7F871
:1052C000BE30B7F8BE30002B00F0AB807B68B3F87F
:1052D0005830B7F8BE209A4280F0A3807B68B7F8B8
:1052E000BE20A3F85A207B685B6FDB69B3F5807F33
:1052F00000F086807B681B68C7F88830D7F8883054
:1053000053E8003FC7F88430D7F8843023F4807323
:10531000C7F8B8307B681B681A46D7F8B830C7F8AA
:105320009430C7F89020D7F89010D7F8942041E82F
:105330000023C7F88C30D7F88C30002BDAD17B688B
:105340001B6808337B677B6F53E8003F3B673B6F0D
:1053500023F00103C7F8B4307B681B680833D7F823
:10536000B420C7F88020FB67F96FD7F8802041E8A8
:105370000023BB67BB6F002BE1D17B681B68083340
:105380003B663B6E53E8003FFB65FB6D23F040033B
:10539000C7F8B0307B681B680833D7F8B020FA66CE
:1053A000BB66B96EFA6E41E800237B667B6E002B0C
:1053B000E3D17B682022C3F880207B6800221A6634
:1053C0007B681B68FB64FB6C53E8003FBB64BB6CF1
:1053D00023F01003C7F8AC307B681B681A46D7F877
:1053E000AC30BB657A65796DBA6D41E800233B65E9
:1053F0003B6D002BE4D17B685B6F1846FDF71AFA12
:105400007B6802225A667B68B3F858207B68B3F841
:105410005A309BB2D31A9BB2194678681AF006FE2E
:10542000D3E07B68B3F85830B7F8BE209A4240F01A
:10543000CC807B685B6FDB69B3F5807F40F0C58013
:105440007B6802225A667B68B3F858301946786840
:105450001AF0ECFDB9E07B68B3F858207B68B3F82C
:105460005A309BB2D31AA7F8CE307B68B3F85A30C3
:105470009BB2002B00F0AB80B7F8CE30002B00F0D1
:10548000A6807B681B68BB63BB6B53E8003F7B63F4
:105490007B6B23F49073C7F8C8307B681B681A468F
:1054A000D7F8C8307B643A64396C7A6C41E80023E1
:1054B000FB63FB6B002BE4D17B681B6808337B62CA
:1054C0007B6A53E8003F3B623B6A23F00103C7F865
:1054D000C4307B681B680833D7F8C4203A63FB628A
:1054E000F96A3A6B41E80023BB62BB6A002BE3D147
:1054F0007B682022C3F880207B6800221A667B68C4
:1055000000229A667B681B683B613B6953E8003F59
:10551000FB60FB6823F01003C7F8C0307B681B6892
:105520001A46D7F8C030FB61BA61B969FA6941E837
:1055300000237B617B69002BE4D17B6802225A66E1
:10554000B7F8CE30194678681AF070FD3FE0D7F80A
:10555000E43003F48013002B0ED0D7F8DC3003F4D2
:105560008003002B08D07B681B684FF480121A62FE
:10557000786800F05BF82DE0D7F8E43003F08003A2
:10558000002B0ED0D7F8E03003F08003002B08D0BA
:105590007B68DB6E002B1CD07B68DB6E78689847DD
:1055A00017E0D7F8E43003F04003002B12D0D7F80F
:1055B000E03003F04003002B0CD0786800F085FF4A
:1055C00008E000BF06E000BF04E000BF02E000BF4B
:1055D00000E000BFE837BD4680BD00BF80B483B0A7
:1055E00000AF786000BF0C37BD465DF8047B7047A4
:1055F00080B483B000AF786000BF0C37BD465DF863
:10560000047B704780B483B000AF786000BF0C3774
:10561000BD465DF8047B704780B483B000AF78600E
:1056200000BF0C37BD465DF8047B704780B483B083
:1056300000AF786000BF0C37BD465DF8047B704753
:1056400080B588B000AF78600023BB777B689A682C
:105650007B681B691A437B685B691A437B68DB695B
:1056600013437B617B681B681A68A64B13407A68FA
:10567000126879690B4313607B681B685B6823F4CD
:1056800040517B68DA687B681B680A435A607B6814
:105690009B697B617B681B6A7A6913437B617B68CA
:1056A0001B689B6823F430617B681B687A690A4336
:1056B0009A607B681B68944A934220D1934BD3F83D
:1056C000903003F00303032B16D801A252F823F005
:1056D000E1560008ED560008E7560008F3560008AA
:1056E0000123FB7750E10223FB774DE10423FB7795
:1056F0004AE10823FB7747E11023FB7744E17B680D
:105700001B68834A934232D1804BD3F8903003F028
:105710000C030C2B28D801A252F823F05157000893
:105720006957000869570008695700085D57000865
:10573000695700086957000869570008575700085B
:10574000695700086957000869570008635700083F
:105750000023FB7718E10223FB7715E10423FB7795
:1057600012E10823FB770FE11023FB770CE17B6844
:105770001B68684A934220D1644BD3F8903003F001
:105780003003302B13D0302B14D8202B09D0202BF2
:1057900010D8002B02D0102B06D00BE00023FB7793
:1057A000F2E00223FB77EFE00423FB77ECE0082331
:1057B000FB77E9E01023FB77E6E07B681B68564A3D
:1057C000934220D1514BD3F8903003F0C003C02B4B
:1057D00013D0C02B14D8802B09D0802B10D8002BCD
:1057E00002D0402B06D00BE00023FB77CCE0022355
:1057F000FB77C9E00423FB77C6E00823FB77C3E00F
:105800001023FB77C0E07B681B68444A934225D194
:105810003E4BD3F8903003F44073B3F5407F17D07C
:10582000B3F5407F17D8B3F5007F0BD0B3F5007FF9
:1058300011D8002B03D0B3F5807F06D00BE00023F6
:10584000FB77A1E00223FB779EE00423FB779BE03C
:105850000823FB7798E01023FB7795E07B681B68B3
:105860002F4A934225D1294BD3F8903003F440635B
:10587000B3F5406F17D0B3F5406F17D8B3F5006F8D
:105880000BD0B3F5006F11D8002B03D0B3F5806FA8
:1058900006D00BE00123FB7776E00223FB7773E071
:1058A0000423FB7770E00823FB776DE01023FB7780
:1058B0006AE07B681B681B4A934238D1134BD3F8CC
:1058C000903003F44053B3F5405F17D0B3F5405F19
:1058D0002AD8B3F5005F0BD0B3F5005F24D8002BB6
:1058E00003D0B3F5805F06D01EE00023FB774BE0CA
:1058F0000223FB7748E00423FB7745E00823FB778E
:1059000042E000BFF369FFEF0010014000380240A1
:105910000044004000480040004C0040005000405F
:1059200000140140007800401023FB772CE07B68D6
:105930001B68724A934225D1714BD3F8903003F41F
:105940004043B3F5404F17D0B3F5404F17D8B3F5E8
:10595000004F0BD0B3F5004F11D8002B03D0B3F597
:10596000804F06D00BE00023FB770DE00223FB778E
:105970000AE00423FB7707E00823FB7704E0102309
:10598000FB7701E01023FB777B68DB69B3F5004F01
:105990005BD1FB7F082B28D801A252F823F000BF6F
:1059A000C5590008CD590008D5590008EB59000821
:1059B000DB590008EB590008EB590008EB590008C7
:1059C000E3590008FBF7C6FFB86113E0FBF7D6FF09
:1059D000B8610FE04B4BBB610CE0FBF7EBFEB8612D
:1059E00008E04FF40043BB6104E00023BB610123E6
:1059F000BB7700BFBB69002B74D0BB695A007B68C2
:105A00005B685B081A447B685B68B2FBF3F33B613D
:105A10003B690F2B16D93B69B3F5803F12D23B6926
:105A20009BB223F00F03FB813B695B089BB203F041
:105A300007039AB2FB891343FB817B681B68FA89D1
:105A4000DA604FE00123BB774CE0FB7F082B28D8BE
:105A500001A252F823F000BF7D5A0008855A0008C1
:105A60008D5A0008A35A0008935A0008A35A000848
:105A7000A35A0008A35A00089B5A0008FBF76AFFC4
:105A8000B86113E0FBF77AFFB8610FE01D4BBB6113
:105A90000CE0FBF78FFEB86108E04FF40043BB61F8
:105AA00004E00023BB610123BB7700BFBB69002B6F
:105AB00018D07B685B685A08BB691A447B685B68CE
:105AC000B2FBF3F33B613B690F2B09D93B69B3F59B
:105AD000803F05D23B699AB27B681B68DA6001E0BF
